{
  "_format": "hh-sol-artifact-1",
  "contractName": "TrackingContract",
  "sourceName": "contracts/FreightTracking.sol",
  "abi": [
    {
      "inputs": [],
      "stateMutability": "nonpayable",
      "type": "constructor"
    },
    {
      "anonymous": false,
      "inputs": [
        {
          "indexed": false,
          "internalType": "string",
          "name": "bookingReference",
          "type": "string"
        },
        {
          "indexed": false,
          "internalType": "string",
          "name": "location",
          "type": "string"
        },
        {
          "indexed": false,
          "internalType": "uint256",
          "name": "sequence",
          "type": "uint256"
        },
        {
          "indexed": false,
          "internalType": "enum TrackingContract.Status",
          "name": "status",
          "type": "uint8"
        },
        {
          "indexed": false,
          "internalType": "address",
          "name": "updatedBy",
          "type": "address"
        },
        {
          "indexed": false,
          "internalType": "uint256",
          "name": "timestamp",
          "type": "uint256"
        }
      ],
      "name": "TrackingUpdated",
      "type": "event"
    },
    {
      "inputs": [
        {
          "internalType": "address",
          "name": "user",
          "type": "address"
        }
      ],
      "name": "addAdmin",
      "outputs": [],
      "stateMutability": "nonpayable",
      "type": "function"
    },
    {
      "inputs": [
        {
          "internalType": "address",
          "name": "user",
          "type": "address"
        }
      ],
      "name": "addWarehouse",
      "outputs": [],
      "stateMutability": "nonpayable",
      "type": "function"
    },
    {
      "inputs": [
        {
          "internalType": "string",
          "name": "",
          "type": "string"
        }
      ],
      "name": "bookingOwner",
      "outputs": [
        {
          "internalType": "address",
          "name": "",
          "type": "address"
        }
      ],
      "stateMutability": "view",
      "type": "function"
    },
    {
      "inputs": [
        {
          "internalType": "string",
          "name": "",
          "type": "string"
        }
      ],
      "name": "currentIndex",
      "outputs": [
        {
          "internalType": "uint256",
          "name": "",
          "type": "uint256"
        }
      ],
      "stateMutability": "view",
      "type": "function"
    },
    {
      "inputs": [
        {
          "internalType": "string",
          "name": "bookingReference",
          "type": "string"
        }
      ],
      "name": "getCurrentLocation",
      "outputs": [
        {
          "components": [
            {
              "internalType": "string",
              "name": "bookingReference",
              "type": "string"
            },
            {
              "internalType": "string",
              "name": "location",
              "type": "string"
            },
            {
              "internalType": "uint256",
              "name": "sequence",
              "type": "uint256"
            },
            {
              "internalType": "enum TrackingContract.Status",
              "name": "status",
              "type": "uint8"
            },
            {
              "internalType": "int256",
              "name": "latitude",
              "type": "int256"
            },
            {
              "internalType": "int256",
              "name": "longitude",
              "type": "int256"
            },
            {
              "internalType": "uint256",
              "name": "arrivalTime",
              "type": "uint256"
            },
            {
              "internalType": "uint256",
              "name": "departureTime",
              "type": "uint256"
            },
            {
              "internalType": "address",
              "name": "updatedBy",
              "type": "address"
            },
            {
              "internalType": "uint256",
              "name": "updatedAt",
              "type": "uint256"
            }
          ],
          "internalType": "struct TrackingContract.TrackingPoint",
          "name": "",
          "type": "tuple"
        }
      ],
      "stateMutability": "view",
      "type": "function"
    },
    {
      "inputs": [
        {
          "internalType": "string",
          "name": "bookingReference",
          "type": "string"
        }
      ],
      "name": "getLatestStatus",
      "outputs": [
        {
          "internalType": "enum TrackingContract.Status",
          "name": "",
          "type": "uint8"
        }
      ],
      "stateMutability": "view",
      "type": "function"
    },
    {
      "inputs": [
        {
          "internalType": "string",
          "name": "bookingReference",
          "type": "string"
        }
      ],
      "name": "getTracking",
      "outputs": [
        {
          "components": [
            {
              "internalType": "string",
              "name": "bookingReference",
              "type": "string"
            },
            {
              "internalType": "string",
              "name": "location",
              "type": "string"
            },
            {
              "internalType": "uint256",
              "name": "sequence",
              "type": "uint256"
            },
            {
              "internalType": "enum TrackingContract.Status",
              "name": "status",
              "type": "uint8"
            },
            {
              "internalType": "int256",
              "name": "latitude",
              "type": "int256"
            },
            {
              "internalType": "int256",
              "name": "longitude",
              "type": "int256"
            },
            {
              "internalType": "uint256",
              "name": "arrivalTime",
              "type": "uint256"
            },
            {
              "internalType": "uint256",
              "name": "departureTime",
              "type": "uint256"
            },
            {
              "internalType": "address",
              "name": "updatedBy",
              "type": "address"
            },
            {
              "internalType": "uint256",
              "name": "updatedAt",
              "type": "uint256"
            }
          ],
          "internalType": "struct TrackingContract.TrackingPoint[]",
          "name": "",
          "type": "tuple[]"
        }
      ],
      "stateMutability": "view",
      "type": "function"
    },
    {
      "inputs": [
        {
          "internalType": "address",
          "name": "",
          "type": "address"
        }
      ],
      "name": "isAdmin",
      "outputs": [
        {
          "internalType": "bool",
          "name": "",
          "type": "bool"
        }
      ],
      "stateMutability": "view",
      "type": "function"
    },
    {
      "inputs": [
        {
          "internalType": "address",
          "name": "",
          "type": "address"
        }
      ],
      "name": "isWarehouse",
      "outputs": [
        {
          "internalType": "bool",
          "name": "",
          "type": "bool"
        }
      ],
      "stateMutability": "view",
      "type": "function"
    },
    {
      "inputs": [],
      "name": "owner",
      "outputs": [
        {
          "internalType": "address",
          "name": "",
          "type": "address"
        }
      ],
      "stateMutability": "view",
      "type": "function"
    },
    {
      "inputs": [
        {
          "internalType": "address",
          "name": "user",
          "type": "address"
        }
      ],
      "name": "removeAdmin",
      "outputs": [],
      "stateMutability": "nonpayable",
      "type": "function"
    },
    {
      "inputs": [
        {
          "internalType": "address",
          "name": "user",
          "type": "address"
        }
      ],
      "name": "removeWarehouse",
      "outputs": [],
      "stateMutability": "nonpayable",
      "type": "function"
    },
    {
      "inputs": [
        {
          "internalType": "string",
          "name": "",
          "type": "string"
        },
        {
          "internalType": "uint256",
          "name": "",
          "type": "uint256"
        }
      ],
      "name": "trackingData",
      "outputs": [
        {
          "internalType": "string",
          "name": "bookingReference",
          "type": "string"
        },
        {
          "internalType": "string",
          "name": "location",
          "type": "string"
        },
        {
          "internalType": "uint256",
          "name": "sequence",
          "type": "uint256"
        },
        {
          "internalType": "enum TrackingContract.Status",
          "name": "status",
          "type": "uint8"
        },
        {
          "internalType": "int256",
          "name": "latitude",
          "type": "int256"
        },
        {
          "internalType": "int256",
          "name": "longitude",
          "type": "int256"
        },
        {
          "internalType": "uint256",
          "name": "arrivalTime",
          "type": "uint256"
        },
        {
          "internalType": "uint256",
          "name": "departureTime",
          "type": "uint256"
        },
        {
          "internalType": "address",
          "name": "updatedBy",
          "type": "address"
        },
        {
          "internalType": "uint256",
          "name": "updatedAt",
          "type": "uint256"
        }
      ],
      "stateMutability": "view",
      "type": "function"
    },
    {
      "inputs": [
        {
          "internalType": "string",
          "name": "bookingReference",
          "type": "string"
        },
        {
          "internalType": "string",
          "name": "location",
          "type": "string"
        },
        {
          "internalType": "uint256",
          "name": "sequence",
          "type": "uint256"
        },
        {
          "internalType": "enum TrackingContract.Status",
          "name": "status",
          "type": "uint8"
        },
        {
          "internalType": "int256",
          "name": "latitude",
          "type": "int256"
        },
        {
          "internalType": "int256",
          "name": "longitude",
          "type": "int256"
        },
        {
          "internalType": "uint256",
          "name": "arrivalTime",
          "type": "uint256"
        },
        {
          "internalType": "uint256",
          "name": "departureTime",
          "type": "uint256"
        }
      ],
      "name": "updateTracking",
      "outputs": [],
      "stateMutability": "nonpayable",
      "type": "function"
    }
  ],
  "bytecode": "0x608060405234801561001057600080fd5b50336000806101000a81548173ffffffffffffffffffffffffffffffffffffffff021916908373ffffffffffffffffffffffffffffffffffffffff160217905550612f4a806100606000396000f3fe608060405234801561001057600080fd5b50600436106100ea5760003560e01c80638da5cb5b1161008c578063bca4bd5011610066578063bca4bd5014610281578063e0ec3b39146102b1578063e3c1a531146102cd578063e442ace5146102e9576100ea565b80638da5cb5b14610203578063a76403e314610221578063bb27708014610251576100ea565b80636a19c03a116100c85780636a19c03a1461016b578063704802751461019b5780637829008e146101b7578063814f696e146101e7576100ea565b80631785f53c146100ef57806319c319951461010b57806324d7806c1461013b575b600080fd5b61010960048036038101906101049190611bf9565b610322565b005b61012560048036038101906101209190611d6c565b61040b565b6040516101329190611fcd565b60405180910390f35b61015560048036038101906101509190611bf9565b61074b565b604051610162919061200a565b60405180910390f35b61018560048036038101906101809190611d6c565b61076b565b60405161019291906121c8565b60405180910390f35b6101b560048036038101906101b09190611bf9565b6109da565b005b6101d160048036038101906101cc9190611d6c565b610b31565b6040516101de91906121f9565b60405180910390f35b61020160048036038101906101fc9190611bf9565b610b7a565b005b61020b610d26565b60405161021891906121f9565b60405180910390f35b61023b60048036038101906102369190611d6c565b610d4a565b6040516102489190612223565b60405180910390f35b61026b60048036038101906102669190611d6c565b610d78565b604051610278919061224d565b60405180910390f35b61029b60048036038101906102969190611bf9565b61105b565b6040516102a8919061200a565b60405180910390f35b6102cb60048036038101906102c691906122e5565b61107b565b005b6102e760048036038101906102e29190611bf9565b61180b565b005b61030360048036038101906102fe91906123d3565b611948565b6040516103199a99989796959493929190612488565b60405180910390f35b60008054906101000a900473ffffffffffffffffffffffffffffffffffffffff1673ffffffffffffffffffffffffffffffffffffffff163373ffffffffffffffffffffffffffffffffffffffff16146103b0576040517f08c379a00000000000000000000000000000000000000000000000000000000081526004016103a79061257e565b60405180910390fd5b6000600160008373ffffffffffffffffffffffffffffffffffffffff1673ffffffffffffffffffffffffffffffffffffffff16815260200190815260200160002060006101000a81548160ff02191690831515021790555050565b610413611b0c565b600060048360405161042591906125da565b9081526020016040518091039020805480602002602001604051908101604052809291908181526020016000905b8282101561067757838290600052602060002090600a02016040518061014001604052908160008201805461048790612620565b80601f01602080910402602001604051908101604052809291908181526020018280546104b390612620565b80156105005780601f106104d557610100808354040283529160200191610500565b820191906000526020600020905b8154815290600101906020018083116104e357829003601f168201915b5050505050815260200160018201805461051990612620565b80601f016020809104026020016040519081016040528092919081815260200182805461054590612620565b80156105925780601f1061056757610100808354040283529160200191610592565b820191906000526020600020905b81548152906001019060200180831161057557829003601f168201915b50505050508152602001600282015481526020016003820160009054906101000a900460ff1660028111156105ca576105c9611e4d565b5b60028111156105dc576105db611e4d565b5b8152602001600482015481526020016005820154815260200160068201548152602001600782015481526020016008820160009054906101000a900473ffffffffffffffffffffffffffffffffffffffff1673ffffffffffffffffffffffffffffffffffffffff1673ffffffffffffffffffffffffffffffffffffffff16815260200160098201548152505081526020019060010190610453565b50505050905060008151116106c1576040517f08c379a00000000000000000000000000000000000000000000000000000000081526004016106b89061269d565b60405180910390fd5b60006005846040516106d391906125da565b908152602001604051809103902054905081518110610727576040517f08c379a000000000000000000000000000000000000000000000000000000000815260040161071e90612709565b60405180910390fd5b81818151811061073a57610739612729565b5b602002602001015192505050919050565b60016020528060005260406000206000915054906101000a900460ff1681565b606060048260405161077d91906125da565b9081526020016040518091039020805480602002602001604051908101604052809291908181526020016000905b828210156109cf57838290600052602060002090600a0201604051806101400160405290816000820180546107df90612620565b80601f016020809104026020016040519081016040528092919081815260200182805461080b90612620565b80156108585780601f1061082d57610100808354040283529160200191610858565b820191906000526020600020905b81548152906001019060200180831161083b57829003601f168201915b5050505050815260200160018201805461087190612620565b80601f016020809104026020016040519081016040528092919081815260200182805461089d90612620565b80156108ea5780601f106108bf576101008083540402835291602001916108ea565b820191906000526020600020905b8154815290600101906020018083116108cd57829003601f168201915b50505050508152602001600282015481526020016003820160009054906101000a900460ff16600281111561092257610921611e4d565b5b600281111561093457610933611e4d565b5b8152602001600482015481526020016005820154815260200160068201548152602001600782015481526020016008820160009054906101000a900473ffffffffffffffffffffffffffffffffffffffff1673ffffffffffffffffffffffffffffffffffffffff1673ffffffffffffffffffffffffffffffffffffffff168152602001600982015481525050815260200190600101906107ab565b505050509050919050565b60008054906101000a900473ffffffffffffffffffffffffffffffffffffffff1673ffffffffffffffffffffffffffffffffffffffff163373ffffffffffffffffffffffffffffffffffffffff1614610a68576040517f08c379a0000000000000000000000000000000000000000000000000000000008152600401610a5f9061257e565b60405180910390fd5b600073ffffffffffffffffffffffffffffffffffffffff168173ffffffffffffffffffffffffffffffffffffffff1603610ad7576040517f08c379a0000000000000000000000000000000000000000000000000000000008152600401610ace906127a4565b60405180910390fd5b60018060008373ffffffffffffffffffffffffffffffffffffffff1673ffffffffffffffffffffffffffffffffffffffff16815260200190815260200160002060006101000a81548160ff02191690831515021790555050565b6003818051602081018201805184825260208301602085012081835280955050505050506000915054906101000a900473ffffffffffffffffffffffffffffffffffffffff1681565b600160003373ffffffffffffffffffffffffffffffffffffffff1673ffffffffffffffffffffffffffffffffffffffff16815260200190815260200160002060009054906101000a900460ff1680610c1d575060008054906101000a900473ffffffffffffffffffffffffffffffffffffffff1673ffffffffffffffffffffffffffffffffffffffff163373ffffffffffffffffffffffffffffffffffffffff16145b610c5c576040517f08c379a0000000000000000000000000000000000000000000000000000000008152600401610c5390612810565b60405180910390fd5b600073ffffffffffffffffffffffffffffffffffffffff168173ffffffffffffffffffffffffffffffffffffffff1603610ccb576040517f08c379a0000000000000000000000000000000000000000000000000000000008152600401610cc2906127a4565b60405180910390fd5b6001600260008373ffffffffffffffffffffffffffffffffffffffff1673ffffffffffffffffffffffffffffffffffffffff16815260200190815260200160002060006101000a81548160ff02191690831515021790555050565b60008054906101000a900473ffffffffffffffffffffffffffffffffffffffff1681565b6005818051602081018201805184825260208301602085012081835280955050505050506000915090505481565b600080600483604051610d8b91906125da565b9081526020016040518091039020805480602002602001604051908101604052809291908181526020016000905b82821015610fdd57838290600052602060002090600a020160405180610140016040529081600082018054610ded90612620565b80601f0160208091040260200160405190810160405280929190818152602001828054610e1990612620565b8015610e665780601f10610e3b57610100808354040283529160200191610e66565b820191906000526020600020905b815481529060010190602001808311610e4957829003601f168201915b50505050508152602001600182018054610e7f90612620565b80601f0160208091040260200160405190810160405280929190818152602001828054610eab90612620565b8015610ef85780601f10610ecd57610100808354040283529160200191610ef8565b820191906000526020600020905b815481529060010190602001808311610edb57829003601f168201915b50505050508152602001600282015481526020016003820160009054906101000a900460ff166002811115610f3057610f2f611e4d565b5b6002811115610f4257610f41611e4d565b5b8152602001600482015481526020016005820154815260200160068201548152602001600782015481526020016008820160009054906101000a900473ffffffffffffffffffffffffffffffffffffffff1673ffffffffffffffffffffffffffffffffffffffff1673ffffffffffffffffffffffffffffffffffffffff16815260200160098201548152505081526020019060010190610db9565b5050505090506000815111611027576040517f08c379a000000000000000000000000000000000000000000000000000000000815260040161101e9061269d565b60405180910390fd5b8060018251611036919061285f565b8151811061104757611046612729565b5b602002602001015160600151915050919050565b60026020528060005260406000206000915054906101000a900460ff1681565b600260003373ffffffffffffffffffffffffffffffffffffffff1673ffffffffffffffffffffffffffffffffffffffff16815260200190815260200160002060009054906101000a900460ff168061111c5750600160003373ffffffffffffffffffffffffffffffffffffffff1673ffffffffffffffffffffffffffffffffffffffff16815260200190815260200160002060009054906101000a900460ff165b80611172575060008054906101000a900473ffffffffffffffffffffffffffffffffffffffff1673ffffffffffffffffffffffffffffffffffffffff163373ffffffffffffffffffffffffffffffffffffffff16145b6111b1576040517f08c379a00000000000000000000000000000000000000000000000000000000081526004016111a8906128df565b60405180910390fd5b60008851116111f5576040517f08c379a00000000000000000000000000000000000000000000000000000000081526004016111ec9061294b565b60405180910390fd5b6000875111611239576040517f08c379a0000000000000000000000000000000000000000000000000000000008152600401611230906129b7565b60405180910390fd5b6000861161127c576040517f08c379a000000000000000000000000000000000000000000000000000000000815260040161127390612a23565b60405180910390fd5b7fffffffffffffffffffffffffffffffffffffffffffffffffffffffffff76abc084121580156112af5750628954408413155b6112ee576040517f08c379a00000000000000000000000000000000000000000000000000000000081526004016112e590612a8f565b60405180910390fd5b7ffffffffffffffffffffffffffffffffffffffffffffffffffffffffffeed578083121580156113225750630112a8808313155b611361576040517f08c379a000000000000000000000000000000000000000000000000000000000815260040161135890612afb565b60405180910390fd5b600060048960405161137391906125da565b90815260200160405180910390209050600073ffffffffffffffffffffffffffffffffffffffff1660038a6040516113ab91906125da565b908152602001604051809103902060009054906101000a900473ffffffffffffffffffffffffffffffffffffffff1673ffffffffffffffffffffffffffffffffffffffff1603611457573360038a60405161140691906125da565b908152602001604051809103902060006101000a81548173ffffffffffffffffffffffffffffffffffffffff021916908373ffffffffffffffffffffffffffffffffffffffff160217905550611504565b3373ffffffffffffffffffffffffffffffffffffffff1660038a60405161147e91906125da565b908152602001604051809103902060009054906101000a900473ffffffffffffffffffffffffffffffffffffffff1673ffffffffffffffffffffffffffffffffffffffff1614611503576040517f08c379a00000000000000000000000000000000000000000000000000000000081526004016114fa90612b67565b60405180910390fd5b5b60008180549050111561156457600181805490506115229190612b87565b8714611563576040517f08c379a000000000000000000000000000000000000000000000000000000000815260040161155a90612c07565b60405180910390fd5b5b6001600281111561157857611577611e4d565b5b86600281111561158b5761158a611e4d565b5b036116445760008180549050111561161c57600060058a6040516115af91906125da565b9081526020016040518091039020549050818054905081101561161a5760028282815481106115e1576115e0612729565b5b90600052602060002090600a020160030160006101000a81548160ff0219169083600281111561161457611613611e4d565b5b02179055505b505b808054905060058a60405161163191906125da565b9081526020016040518091039020819055505b806040518061014001604052808b81526020018a815260200189815260200188600281111561167657611675611e4d565b5b81526020018781526020018681526020018581526020018481526020013373ffffffffffffffffffffffffffffffffffffffff1681526020014281525090806001815401808255809150506001900390600052602060002090600a020160009091909190915060008201518160000190816116f19190612dd3565b5060208201518160010190816117079190612dd3565b506040820151816002015560608201518160030160006101000a81548160ff0219169083600281111561173d5761173c611e4d565b5b02179055506080820151816004015560a0820151816005015560c0820151816006015560e082015181600701556101008201518160080160006101000a81548173ffffffffffffffffffffffffffffffffffffffff021916908373ffffffffffffffffffffffffffffffffffffffff160217905550610120820151816009015550507fe27d81713d263ad4a3954b752ec3e8e6741d9f32940c30e3e79caa04bdea06b18989898933426040516117f896959493929190612ea5565b60405180910390a1505050505050505050565b600160003373ffffffffffffffffffffffffffffffffffffffff1673ffffffffffffffffffffffffffffffffffffffff16815260200190815260200160002060009054906101000a900460ff16806118ae575060008054906101000a900473ffffffffffffffffffffffffffffffffffffffff1673ffffffffffffffffffffffffffffffffffffffff163373ffffffffffffffffffffffffffffffffffffffff16145b6118ed576040517f08c379a00000000000000000000000000000000000000000000000000000000081526004016118e490612810565b60405180910390fd5b6000600260008373ffffffffffffffffffffffffffffffffffffffff1673ffffffffffffffffffffffffffffffffffffffff16815260200190815260200160002060006101000a81548160ff02191690831515021790555050565b600482805160208101820180518482526020830160208501208183528095505050505050818154811061197a57600080fd5b90600052602060002090600a02016000915091505080600001805461199e90612620565b80601f01602080910402602001604051908101604052809291908181526020018280546119ca90612620565b8015611a175780601f106119ec57610100808354040283529160200191611a17565b820191906000526020600020905b8154815290600101906020018083116119fa57829003601f168201915b505050505090806001018054611a2c90612620565b80601f0160208091040260200160405190810160405280929190818152602001828054611a5890612620565b8015611aa55780601f10611a7a57610100808354040283529160200191611aa5565b820191906000526020600020905b815481529060010190602001808311611a8857829003601f168201915b5050505050908060020154908060030160009054906101000a900460ff16908060040154908060050154908060060154908060070154908060080160009054906101000a900473ffffffffffffffffffffffffffffffffffffffff1690806009015490508a565b60405180610140016040528060608152602001606081526020016000815260200160006002811115611b4157611b40611e4d565b5b815260200160008152602001600081526020016000815260200160008152602001600073ffffffffffffffffffffffffffffffffffffffff168152602001600081525090565b6000604051905090565b600080fd5b600080fd5b600073ffffffffffffffffffffffffffffffffffffffff82169050919050565b6000611bc682611b9b565b9050919050565b611bd681611bbb565b8114611be157600080fd5b50565b600081359050611bf381611bcd565b92915050565b600060208284031215611c0f57611c0e611b91565b5b6000611c1d84828501611be4565b91505092915050565b600080fd5b600080fd5b6000601f19601f8301169050919050565b7f4e487b7100000000000000000000000000000000000000000000000000000000600052604160045260246000fd5b611c7982611c30565b810181811067ffffffffffffffff82111715611c9857611c97611c41565b5b80604052505050565b6000611cab611b87565b9050611cb78282611c70565b919050565b600067ffffffffffffffff821115611cd757611cd6611c41565b5b611ce082611c30565b9050602081019050919050565b82818337600083830152505050565b6000611d0f611d0a84611cbc565b611ca1565b905082815260208101848484011115611d2b57611d2a611c2b565b5b611d36848285611ced565b509392505050565b600082601f830112611d5357611d52611c26565b5b8135611d63848260208601611cfc565b91505092915050565b600060208284031215611d8257611d81611b91565b5b600082013567ffffffffffffffff811115611da057611d9f611b96565b5b611dac84828501611d3e565b91505092915050565b600081519050919050565b600082825260208201905092915050565b60005b83811015611def578082015181840152602081019050611dd4565b60008484015250505050565b6000611e0682611db5565b611e108185611dc0565b9350611e20818560208601611dd1565b611e2981611c30565b840191505092915050565b6000819050919050565b611e4781611e34565b82525050565b7f4e487b7100000000000000000000000000000000000000000000000000000000600052602160045260246000fd5b60038110611e8d57611e8c611e4d565b5b50565b6000819050611e9e82611e7c565b919050565b6000611eae82611e90565b9050919050565b611ebe81611ea3565b82525050565b6000819050919050565b611ed781611ec4565b82525050565b611ee681611bbb565b82525050565b6000610140830160008301518482036000860152611f0a8282611dfb565b91505060208301518482036020860152611f248282611dfb565b9150506040830151611f396040860182611e3e565b506060830151611f4c6060860182611eb5565b506080830151611f5f6080860182611ece565b5060a0830151611f7260a0860182611ece565b5060c0830151611f8560c0860182611e3e565b5060e0830151611f9860e0860182611e3e565b50610100830151611fad610100860182611edd565b50610120830151611fc2610120860182611e3e565b508091505092915050565b60006020820190508181036000830152611fe78184611eec565b905092915050565b60008115159050919050565b61200481611fef565b82525050565b600060208201905061201f6000830184611ffb565b92915050565b600081519050919050565b600082825260208201905092915050565b6000819050602082019050919050565b600061014083016000830151848203600086015261206f8282611dfb565b915050602083015184820360208601526120898282611dfb565b915050604083015161209e6040860182611e3e565b5060608301516120b16060860182611eb5565b5060808301516120c46080860182611ece565b5060a08301516120d760a0860182611ece565b5060c08301516120ea60c0860182611e3e565b5060e08301516120fd60e0860182611e3e565b50610100830151612112610100860182611edd565b50610120830151612127610120860182611e3e565b508091505092915050565b600061213e8383612051565b905092915050565b6000602082019050919050565b600061215e82612025565b6121688185612030565b93508360208202850161217a85612041565b8060005b858110156121b657848403895281516121978582612132565b94506121a283612146565b925060208a0199505060018101905061217e565b50829750879550505050505092915050565b600060208201905081810360008301526121e28184612153565b905092915050565b6121f381611bbb565b82525050565b600060208201905061220e60008301846121ea565b92915050565b61221d81611e34565b82525050565b60006020820190506122386000830184612214565b92915050565b61224781611ea3565b82525050565b6000602082019050612262600083018461223e565b92915050565b61227181611e34565b811461227c57600080fd5b50565b60008135905061228e81612268565b92915050565b600381106122a157600080fd5b50565b6000813590506122b381612294565b92915050565b6122c281611ec4565b81146122cd57600080fd5b50565b6000813590506122df816122b9565b92915050565b600080600080600080600080610100898b03121561230657612305611b91565b5b600089013567ffffffffffffffff81111561232457612323611b96565b5b6123308b828c01611d3e565b985050602089013567ffffffffffffffff81111561235157612350611b96565b5b61235d8b828c01611d3e565b975050604061236e8b828c0161227f565b965050606061237f8b828c016122a4565b95505060806123908b828c016122d0565b94505060a06123a18b828c016122d0565b93505060c06123b28b828c0161227f565b92505060e06123c38b828c0161227f565b9150509295985092959890939650565b600080604083850312156123ea576123e9611b91565b5b600083013567ffffffffffffffff81111561240857612407611b96565b5b61241485828601611d3e565b92505060206124258582860161227f565b9150509250929050565b600082825260208201905092915050565b600061244b82611db5565b612455818561242f565b9350612465818560208601611dd1565b61246e81611c30565b840191505092915050565b61248281611ec4565b82525050565b60006101408201905081810360008301526124a3818d612440565b905081810360208301526124b7818c612440565b90506124c6604083018b612214565b6124d3606083018a61223e565b6124e06080830189612479565b6124ed60a0830188612479565b6124fa60c0830187612214565b61250760e0830186612214565b6125156101008301856121ea565b612523610120830184612214565b9b9a5050505050505050505050565b7f4e6f74206f776e65720000000000000000000000000000000000000000000000600082015250565b600061256860098361242f565b915061257382612532565b602082019050919050565b600060208201905081810360008301526125978161255b565b9050919050565b600081905092915050565b60006125b482611db5565b6125be818561259e565b93506125ce818560208601611dd1565b80840191505092915050565b60006125e682846125a9565b915081905092915050565b7f4e487b7100000000000000000000000000000000000000000000000000000000600052602260045260246000fd5b6000600282049050600182168061263857607f821691505b60208210810361264b5761264a6125f1565b5b50919050565b7f4e6f206461746100000000000000000000000000000000000000000000000000600082015250565b600061268760078361242f565b915061269282612651565b602082019050919050565b600060208201905081810360008301526126b68161267a565b9050919050565b7f496e76616c696420696e64657800000000000000000000000000000000000000600082015250565b60006126f3600d8361242f565b91506126fe826126bd565b602082019050919050565b60006020820190508181036000830152612722816126e6565b9050919050565b7f4e487b7100000000000000000000000000000000000000000000000000000000600052603260045260246000fd5b7f496e76616c696420616464726573730000000000000000000000000000000000600082015250565b600061278e600f8361242f565b915061279982612758565b602082019050919050565b600060208201905081810360008301526127bd81612781565b9050919050565b7f4e6f742061646d696e0000000000000000000000000000000000000000000000600082015250565b60006127fa60098361242f565b9150612805826127c4565b602082019050919050565b60006020820190508181036000830152612829816127ed565b9050919050565b7f4e487b7100000000000000000000000000000000000000000000000000000000600052601160045260246000fd5b600061286a82611e34565b915061287583611e34565b925082820390508181111561288d5761288c612830565b5b92915050565b7f4e6f7420617574686f72697a6564000000000000000000000000000000000000600082015250565b60006128c9600e8361242f565b91506128d482612893565b602082019050919050565b600060208201905081810360008301526128f8816128bc565b9050919050565b7f426f6f6b696e6720726566207265717569726564000000000000000000000000600082015250565b600061293560148361242f565b9150612940826128ff565b602082019050919050565b6000602082019050818103600083015261296481612928565b9050919050565b7f4c6f636174696f6e207265717569726564000000000000000000000000000000600082015250565b60006129a160118361242f565b91506129ac8261296b565b602082019050919050565b600060208201905081810360008301526129d081612994565b9050919050565b7f496e76616c69642073657175656e636500000000000000000000000000000000600082015250565b6000612a0d60108361242f565b9150612a18826129d7565b602082019050919050565b60006020820190508181036000830152612a3c81612a00565b9050919050565b7f496e76616c6964206c6174697475646500000000000000000000000000000000600082015250565b6000612a7960108361242f565b9150612a8482612a43565b602082019050919050565b60006020820190508181036000830152612aa881612a6c565b9050919050565b7f496e76616c6964206c6f6e676974756465000000000000000000000000000000600082015250565b6000612ae560118361242f565b9150612af082612aaf565b602082019050919050565b60006020820190508181036000830152612b1481612ad8565b9050919050565b7f4e6f7420626f6f6b696e67206f776e6572000000000000000000000000000000600082015250565b6000612b5160118361242f565b9150612b5c82612b1b565b602082019050919050565b60006020820190508181036000830152612b8081612b44565b9050919050565b6000612b9282611e34565b9150612b9d83611e34565b9250828201905080821115612bb557612bb4612830565b5b92915050565b7f496e76616c69642073657175656e6365206f7264657200000000000000000000600082015250565b6000612bf160168361242f565b9150612bfc82612bbb565b602082019050919050565b60006020820190508181036000830152612c2081612be4565b9050919050565b60008190508160005260206000209050919050565b60006020601f8301049050919050565b600082821b905092915050565b600060088302612c897fffffffffffffffffffffffffffffffffffffffffffffffffffffffffffffffff82612c4c565b612c938683612c4c565b95508019841693508086168417925050509392505050565b6000819050919050565b6000612cd0612ccb612cc684611e34565b612cab565b611e34565b9050919050565b6000819050919050565b612cea83612cb5565b612cfe612cf682612cd7565b848454612c59565b825550505050565b600090565b612d13612d06565b612d1e818484612ce1565b505050565b5b81811015612d4257612d37600082612d0b565b600181019050612d24565b5050565b601f821115612d8757612d5881612c27565b612d6184612c3c565b81016020851015612d70578190505b612d84612d7c85612c3c565b830182612d23565b50505b505050565b600082821c905092915050565b6000612daa60001984600802612d8c565b1980831691505092915050565b6000612dc38383612d99565b9150826002028217905092915050565b612ddc82611db5565b67ffffffffffffffff811115612df557612df4611c41565b5b612dff8254612620565b612e0a828285612d46565b600060209050601f831160018114612e3d5760008415612e2b578287015190505b612e358582612db7565b865550612e9d565b601f198416612e4b86612c27565b60005b82811015612e7357848901518255600182019150602085019450602081019050612e4e565b86831015612e905784890151612e8c601f891682612d99565b8355505b6001600288020188555050505b505050505050565b600060c0820190508181036000830152612ebf8189612440565b90508181036020830152612ed38188612440565b9050612ee26040830187612214565b612eef606083018661223e565b612efc60808301856121ea565b612f0960a0830184612214565b97965050505050505056fea26469706673582212208f3c429bc489ab14a9c5a773904b8e6ad9f3886e71bf9d71834071241c2de64164736f6c63430008140033",
  "linkReferences": {},
  "deployedLinkReferences": {}
}