{
	"Payment.sol": {
		"Payment": {
			"abi": [
				{
					"inputs": [],
					"stateMutability": "nonpayable",
					"type": "constructor"
				},
				{
					"inputs": [
						{
							"internalType": "address",
							"name": "owner",
							"type": "address"
						}
					],
					"name": "OwnableInvalidOwner",
					"type": "error"
				},
				{
					"inputs": [
						{
							"internalType": "address",
							"name": "account",
							"type": "address"
						}
					],
					"name": "OwnableUnauthorizedAccount",
					"type": "error"
				},
				{
					"anonymous": false,
					"inputs": [
						{
							"indexed": true,
							"internalType": "string",
							"name": "transaction_id",
							"type": "string"
						}
					],
					"name": "EmailMarkedSent",
					"type": "event"
				},
				{
					"anonymous": false,
					"inputs": [
						{
							"indexed": true,
							"internalType": "address",
							"name": "previousOwner",
							"type": "address"
						},
						{
							"indexed": true,
							"internalType": "address",
							"name": "newOwner",
							"type": "address"
						}
					],
					"name": "OwnershipTransferred",
					"type": "event"
				},
				{
					"anonymous": false,
					"inputs": [
						{
							"indexed": true,
							"internalType": "string",
							"name": "transaction_id",
							"type": "string"
						},
						{
							"indexed": false,
							"internalType": "uint256",
							"name": "amount",
							"type": "uint256"
						},
						{
							"indexed": false,
							"internalType": "string",
							"name": "status",
							"type": "string"
						}
					],
					"name": "PaymentCreated",
					"type": "event"
				},
				{
					"inputs": [
						{
							"components": [
								{
									"internalType": "string",
									"name": "quote_request_id",
									"type": "string"
								},
								{
									"internalType": "string",
									"name": "transaction_id",
									"type": "string"
								},
								{
									"internalType": "string",
									"name": "payment_type",
									"type": "string"
								},
								{
									"internalType": "uint256",
									"name": "amount",
									"type": "uint256"
								},
								{
									"internalType": "string",
									"name": "amount_purpose",
									"type": "string"
								},
								{
									"internalType": "uint256",
									"name": "blockchain_gas_amount",
									"type": "uint256"
								},
								{
									"internalType": "string",
									"name": "source_wallet",
									"type": "string"
								},
								{
									"internalType": "string",
									"name": "status",
									"type": "string"
								},
								{
									"internalType": "uint256",
									"name": "created_at",
									"type": "uint256"
								},
								{
									"internalType": "string",
									"name": "created_by",
									"type": "string"
								},
								{
									"internalType": "bool",
									"name": "payment_email_sent",
									"type": "bool"
								},
								{
									"internalType": "string",
									"name": "user_id",
									"type": "string"
								},
								{
									"internalType": "string",
									"name": "transaction_hash",
									"type": "string"
								},
								{
									"internalType": "uint256",
									"name": "confirmed_at",
									"type": "uint256"
								}
							],
							"internalType": "struct Payment.PaymentRecord",
							"name": "_payment",
							"type": "tuple"
						}
					],
					"name": "createPayment",
					"outputs": [],
					"stateMutability": "nonpayable",
					"type": "function"
				},
				{
					"inputs": [
						{
							"internalType": "string",
							"name": "_transaction_id",
							"type": "string"
						}
					],
					"name": "getPayment",
					"outputs": [
						{
							"components": [
								{
									"internalType": "string",
									"name": "quote_request_id",
									"type": "string"
								},
								{
									"internalType": "string",
									"name": "transaction_id",
									"type": "string"
								},
								{
									"internalType": "string",
									"name": "payment_type",
									"type": "string"
								},
								{
									"internalType": "uint256",
									"name": "amount",
									"type": "uint256"
								},
								{
									"internalType": "string",
									"name": "amount_purpose",
									"type": "string"
								},
								{
									"internalType": "uint256",
									"name": "blockchain_gas_amount",
									"type": "uint256"
								},
								{
									"internalType": "string",
									"name": "source_wallet",
									"type": "string"
								},
								{
									"internalType": "string",
									"name": "status",
									"type": "string"
								},
								{
									"internalType": "uint256",
									"name": "created_at",
									"type": "uint256"
								},
								{
									"internalType": "string",
									"name": "created_by",
									"type": "string"
								},
								{
									"internalType": "bool",
									"name": "payment_email_sent",
									"type": "bool"
								},
								{
									"internalType": "string",
									"name": "user_id",
									"type": "string"
								},
								{
									"internalType": "string",
									"name": "transaction_hash",
									"type": "string"
								},
								{
									"internalType": "uint256",
									"name": "confirmed_at",
									"type": "uint256"
								}
							],
							"internalType": "struct Payment.PaymentRecord",
							"name": "",
							"type": "tuple"
						}
					],
					"stateMutability": "view",
					"type": "function"
				},
				{
					"inputs": [
						{
							"internalType": "string",
							"name": "_transaction_id",
							"type": "string"
						}
					],
					"name": "markEmailSent",
					"outputs": [],
					"stateMutability": "nonpayable",
					"type": "function"
				},
				{
					"inputs": [],
					"name": "owner",
					"outputs": [
						{
							"internalType": "address",
							"name": "",
							"type": "address"
						}
					],
					"stateMutability": "view",
					"type": "function"
				},
				{
					"inputs": [
						{
							"internalType": "string",
							"name": "_transaction_id",
							"type": "string"
						}
					],
					"name": "paymentExists",
					"outputs": [
						{
							"internalType": "bool",
							"name": "",
							"type": "bool"
						}
					],
					"stateMutability": "view",
					"type": "function"
				},
				{
					"inputs": [],
					"name": "renounceOwnership",
					"outputs": [],
					"stateMutability": "nonpayable",
					"type": "function"
				},
				{
					"inputs": [
						{
							"internalType": "address",
							"name": "newOwner",
							"type": "address"
						}
					],
					"name": "transferOwnership",
					"outputs": [],
					"stateMutability": "nonpayable",
					"type": "function"
				}
			],
			"devdoc": {
				"errors": {
					"OwnableInvalidOwner(address)": [
						{
							"details": "The owner is not a valid owner account. (eg. `address(0)`)"
						}
					],
					"OwnableUnauthorizedAccount(address)": [
						{
							"details": "The caller account is not authorized to perform an operation."
						}
					]
				},
				"kind": "dev",
				"methods": {
					"createPayment((string,string,string,uint256,string,uint256,string,string,uint256,string,bool,string,string,uint256))": {
						"details": "Only callable by the contract owner",
						"params": {
							"_payment": "The PaymentRecord object containing payment details"
						}
					},
					"getPayment(string)": {
						"details": "Reverts if payment does not exist",
						"params": {
							"_transaction_id": "Unique transaction ID of the payment"
						},
						"returns": {
							"_0": "PaymentRecord associated with the transaction_id"
						}
					},
					"markEmailSent(string)": {
						"details": "Only callable by the contract owner",
						"params": {
							"_transaction_id": "Unique transaction ID of the payment"
						}
					},
					"owner()": {
						"details": "Returns the address of the current owner."
					},
					"paymentExists(string)": {
						"params": {
							"_transaction_id": "Unique transaction ID"
						},
						"returns": {
							"_0": "True if payment exists, false otherwise"
						}
					},
					"renounceOwnership()": {
						"details": "Leaves the contract without owner. It will not be possible to call `onlyOwner` functions. Can only be called by the current owner. NOTE: Renouncing ownership will leave the contract without an owner, thereby disabling any functionality that is only available to the owner."
					},
					"transferOwnership(address)": {
						"details": "Transfers ownership of the contract to a new account (`newOwner`). Can only be called by the current owner."
					}
				},
				"title": "Payment Contract",
				"version": 1
			},
			"evm": {
				"assembly": "    /* \"Payment.sol\":215:4840  contract Payment is Ownable {... */\n  mstore(0x40, 0x80)\n    /* \"Payment.sol\":321:357  constructor() Ownable(msg.sender) {} */\n  callvalue\n  dup1\n  iszero\n  tag_1\n  jumpi\n  revert(0x00, 0x00)\ntag_1:\n  pop\n    /* \"Payment.sol\":343:353  msg.sender */\n  caller\n    /* \"@openzeppelin/contracts/access/Ownable.sol\":1297:1298  0 */\n  0x00\n    /* \"@openzeppelin/contracts/access/Ownable.sol\":1273:1299  initialOwner == address(0) */\n  0xffffffffffffffffffffffffffffffffffffffff\n  and\n    /* \"@openzeppelin/contracts/access/Ownable.sol\":1273:1285  initialOwner */\n  dup2\n    /* \"@openzeppelin/contracts/access/Ownable.sol\":1273:1299  initialOwner == address(0) */\n  0xffffffffffffffffffffffffffffffffffffffff\n  and\n  sub\n    /* \"@openzeppelin/contracts/access/Ownable.sol\":1269:1364  if (initialOwner == address(0)) {... */\n  tag_5\n  jumpi\n    /* \"@openzeppelin/contracts/access/Ownable.sol\":1350:1351  0 */\n  0x00\n    /* \"@openzeppelin/contracts/access/Ownable.sol\":1322:1353  OwnableInvalidOwner(address(0)) */\n  mload(0x40)\n  0x1e4fbdf700000000000000000000000000000000000000000000000000000000\n  dup2\n  mstore\n  0x04\n  add\n  tag_6\n  swap2\n  swap1\n  tag_7\n  jump\t// in\ntag_6:\n  mload(0x40)\n  dup1\n  swap2\n  sub\n  swap1\n  revert\n    /* \"@openzeppelin/contracts/access/Ownable.sol\":1269:1364  if (initialOwner == address(0)) {... */\ntag_5:\n    /* \"@openzeppelin/contracts/access/Ownable.sol\":1373:1405  _transferOwnership(initialOwner) */\n  tag_8\n    /* \"@openzeppelin/contracts/access/Ownable.sol\":1392:1404  initialOwner */\n  dup2\n    /* \"@openzeppelin/contracts/access/Ownable.sol\":1373:1391  _transferOwnership */\n  shl(0x20, tag_9)\n    /* \"@openzeppelin/contracts/access/Ownable.sol\":1373:1405  _transferOwnership(initialOwner) */\n  0x20\n  shr\n  jump\t// in\ntag_8:\n    /* \"@openzeppelin/contracts/access/Ownable.sol\":1225:1412  constructor(address initialOwner) {... */\n  pop\n    /* \"Payment.sol\":215:4840  contract Payment is Ownable {... */\n  jump(tag_11)\n    /* \"@openzeppelin/contracts/access/Ownable.sol\":2912:3099  function _transferOwnership(address newOwner) internal virtual {... */\ntag_9:\n    /* \"@openzeppelin/contracts/access/Ownable.sol\":2985:3001  address oldOwner */\n  0x00\n    /* \"@openzeppelin/contracts/access/Ownable.sol\":3004:3010  _owner */\n  0x00\n  0x00\n  swap1\n  sload\n  swap1\n  0x0100\n  exp\n  swap1\n  div\n  0xffffffffffffffffffffffffffffffffffffffff\n  and\n    /* \"@openzeppelin/contracts/access/Ownable.sol\":2985:3010  address oldOwner = _owner */\n  swap1\n  pop\n    /* \"@openzeppelin/contracts/access/Ownable.sol\":3029:3037  newOwner */\n  dup2\n    /* \"@openzeppelin/contracts/access/Ownable.sol\":3020:3026  _owner */\n  0x00\n  0x00\n    /* \"@openzeppelin/contracts/access/Ownable.sol\":3020:3037  _owner = newOwner */\n  0x0100\n  exp\n  dup2\n  sload\n  dup2\n  0xffffffffffffffffffffffffffffffffffffffff\n  mul\n  not\n  and\n  swap1\n  dup4\n  0xffffffffffffffffffffffffffffffffffffffff\n  and\n  mul\n  or\n  swap1\n  sstore\n  pop\n    /* \"@openzeppelin/contracts/access/Ownable.sol\":3083:3091  newOwner */\n  dup2\n    /* \"@openzeppelin/contracts/access/Ownable.sol\":3052:3092  OwnershipTransferred(oldOwner, newOwner) */\n  0xffffffffffffffffffffffffffffffffffffffff\n  and\n    /* \"@openzeppelin/contracts/access/Ownable.sol\":3073:3081  oldOwner */\n  dup2\n    /* \"@openzeppelin/contracts/access/Ownable.sol\":3052:3092  OwnershipTransferred(oldOwner, newOwner) */\n  0xffffffffffffffffffffffffffffffffffffffff\n  and\n  0x8be0079c531659141344cd1fd0a4f28419497f9722a3daafe3b4186f6b6457e0\n  mload(0x40)\n  mload(0x40)\n  dup1\n  swap2\n  sub\n  swap1\n  log3\n    /* \"@openzeppelin/contracts/access/Ownable.sol\":2975:3099  {... */\n  pop\n    /* \"@openzeppelin/contracts/access/Ownable.sol\":2912:3099  function _transferOwnership(address newOwner) internal virtual {... */\n  pop\n  jump\t// out\n    /* \"#utility.yul\":7:133   */\ntag_13:\n    /* \"#utility.yul\":44:51   */\n  0x00\n    /* \"#utility.yul\":84:126   */\n  0xffffffffffffffffffffffffffffffffffffffff\n    /* \"#utility.yul\":77:82   */\n  dup3\n    /* \"#utility.yul\":73:127   */\n  and\n    /* \"#utility.yul\":62:127   */\n  swap1\n  pop\n    /* \"#utility.yul\":7:133   */\n  swap2\n  swap1\n  pop\n  jump\t// out\n    /* \"#utility.yul\":139:235   */\ntag_14:\n    /* \"#utility.yul\":176:183   */\n  0x00\n    /* \"#utility.yul\":205:229   */\n  tag_19\n    /* \"#utility.yul\":223:228   */\n  dup3\n    /* \"#utility.yul\":205:229   */\n  tag_13\n  jump\t// in\ntag_19:\n    /* \"#utility.yul\":194:229   */\n  swap1\n  pop\n    /* \"#utility.yul\":139:235   */\n  swap2\n  swap1\n  pop\n  jump\t// out\n    /* \"#utility.yul\":241:359   */\ntag_15:\n    /* \"#utility.yul\":328:352   */\n  tag_21\n    /* \"#utility.yul\":346:351   */\n  dup2\n    /* \"#utility.yul\":328:352   */\n  tag_14\n  jump\t// in\ntag_21:\n    /* \"#utility.yul\":323:326   */\n  dup3\n    /* \"#utility.yul\":316:353   */\n  mstore\n    /* \"#utility.yul\":241:359   */\n  pop\n  pop\n  jump\t// out\n    /* \"#utility.yul\":365:587   */\ntag_7:\n    /* \"#utility.yul\":458:462   */\n  0x00\n    /* \"#utility.yul\":496:498   */\n  0x20\n    /* \"#utility.yul\":485:494   */\n  dup3\n    /* \"#utility.yul\":481:499   */\n  add\n    /* \"#utility.yul\":473:499   */\n  swap1\n  pop\n    /* \"#utility.yul\":509:580   */\n  tag_23\n    /* \"#utility.yul\":577:578   */\n  0x00\n    /* \"#utility.yul\":566:575   */\n  dup4\n    /* \"#utility.yul\":562:579   */\n  add\n    /* \"#utility.yul\":553:559   */\n  dup5\n    /* \"#utility.yul\":509:580   */\n  tag_15\n  jump\t// in\ntag_23:\n    /* \"#utility.yul\":365:587   */\n  swap3\n  swap2\n  pop\n  pop\n  jump\t// out\n    /* \"Payment.sol\":215:4840  contract Payment is Ownable {... */\ntag_11:\n  dataSize(sub_0)\n  dup1\n  dataOffset(sub_0)\n  0x00\n  codecopy\n  0x00\n  return\nstop\n\nsub_0: assembly {\n        /* \"Payment.sol\":215:4840  contract Payment is Ownable {... */\n      mstore(0x40, 0x80)\n      callvalue\n      dup1\n      iszero\n      tag_1\n      jumpi\n      revert(0x00, 0x00)\n    tag_1:\n      pop\n      jumpi(tag_2, lt(calldatasize, 0x04))\n      shr(0xe0, calldataload(0x00))\n      dup1\n      0x715018a6\n      gt\n      tag_10\n      jumpi\n      dup1\n      0x715018a6\n      eq\n      tag_6\n      jumpi\n      dup1\n      0x8da5cb5b\n      eq\n      tag_7\n      jumpi\n      dup1\n      0xc69207a3\n      eq\n      tag_8\n      jumpi\n      dup1\n      0xf2fde38b\n      eq\n      tag_9\n      jumpi\n      jump(tag_2)\n    tag_10:\n      dup1\n      0x18c7d16b\n      eq\n      tag_3\n      jumpi\n      dup1\n      0x1d64ad5e\n      eq\n      tag_4\n      jumpi\n      dup1\n      0x4cc232d0\n      eq\n      tag_5\n      jumpi\n    tag_2:\n      revert(0x00, 0x00)\n        /* \"Payment.sol\":4670:4837  function paymentExists(string memory _transaction_id) external view returns (bool) {... */\n    tag_3:\n      tag_11\n      0x04\n      dup1\n      calldatasize\n      sub\n      dup2\n      add\n      swap1\n      tag_12\n      swap2\n      swap1\n      tag_13\n      jump\t// in\n    tag_12:\n      tag_14\n      jump\t// in\n    tag_11:\n      mload(0x40)\n      tag_15\n      swap2\n      swap1\n      tag_16\n      jump\t// in\n    tag_15:\n      mload(0x40)\n      dup1\n      swap2\n      sub\n      swap1\n      return\n        /* \"Payment.sol\":2206:3457  function createPayment(PaymentRecord memory _payment) external onlyOwner {... */\n    tag_4:\n      tag_17\n      0x04\n      dup1\n      calldatasize\n      sub\n      dup2\n      add\n      swap1\n      tag_18\n      swap2\n      swap1\n      tag_19\n      jump\t// in\n    tag_18:\n      tag_20\n      jump\t// in\n    tag_17:\n      stop\n        /* \"Payment.sol\":4170:4481  function markEmailSent(string memory _transaction_id) external onlyOwner {... */\n    tag_5:\n      tag_21\n      0x04\n      dup1\n      calldatasize\n      sub\n      dup2\n      add\n      swap1\n      tag_22\n      swap2\n      swap1\n      tag_13\n      jump\t// in\n    tag_22:\n      tag_23\n      jump\t// in\n    tag_21:\n      stop\n        /* \"@openzeppelin/contracts/access/Ownable.sol\":2293:2394  function renounceOwnership() public virtual onlyOwner {... */\n    tag_6:\n      tag_24\n      tag_25\n      jump\t// in\n    tag_24:\n      stop\n        /* \"@openzeppelin/contracts/access/Ownable.sol\":1638:1723  function owner() public view virtual returns (address) {... */\n    tag_7:\n      tag_26\n      tag_27\n      jump\t// in\n    tag_26:\n      mload(0x40)\n      tag_28\n      swap2\n      swap1\n      tag_29\n      jump\t// in\n    tag_28:\n      mload(0x40)\n      dup1\n      swap2\n      sub\n      swap1\n      return\n        /* \"Payment.sol\":3709:3973  function getPayment(string memory _transaction_id) external view returns (PaymentRecord memory) {... */\n    tag_8:\n      tag_30\n      0x04\n      dup1\n      calldatasize\n      sub\n      dup2\n      add\n      swap1\n      tag_31\n      swap2\n      swap1\n      tag_13\n      jump\t// in\n    tag_31:\n      tag_32\n      jump\t// in\n    tag_30:\n      mload(0x40)\n      tag_33\n      swap2\n      swap1\n      tag_34\n      jump\t// in\n    tag_33:\n      mload(0x40)\n      dup1\n      swap2\n      sub\n      swap1\n      return\n        /* \"@openzeppelin/contracts/access/Ownable.sol\":2543:2758  function transferOwnership(address newOwner) public virtual onlyOwner {... */\n    tag_9:\n      tag_35\n      0x04\n      dup1\n      calldatasize\n      sub\n      dup2\n      add\n      swap1\n      tag_36\n      swap2\n      swap1\n      tag_37\n      jump\t// in\n    tag_36:\n      tag_38\n      jump\t// in\n    tag_35:\n      stop\n        /* \"Payment.sol\":4670:4837  function paymentExists(string memory _transaction_id) external view returns (bool) {... */\n    tag_14:\n        /* \"Payment.sol\":4747:4751  bool */\n      0x00\n        /* \"Payment.sol\":4828:4829  0 */\n      0x00\n        /* \"Payment.sol\":4777:4785  payments */\n      0x01\n        /* \"Payment.sol\":4786:4801  _transaction_id */\n      dup4\n        /* \"Payment.sol\":4777:4802  payments[_transaction_id] */\n      mload(0x40)\n      tag_40\n      swap2\n      swap1\n      tag_41\n      jump\t// in\n    tag_40:\n      swap1\n      dup2\n      mstore\n      0x20\n      add\n      mload(0x40)\n      dup1\n      swap2\n      sub\n      swap1\n      keccak256\n        /* \"Payment.sol\":4777:4817  payments[_transaction_id].transaction_id */\n      0x01\n      add\n        /* \"Payment.sol\":4771:4825  bytes(payments[_transaction_id].transaction_id).length */\n      dup1\n      sload\n      tag_42\n      swap1\n      tag_43\n      jump\t// in\n    tag_42:\n      swap1\n      pop\n        /* \"Payment.sol\":4771:4829  bytes(payments[_transaction_id].transaction_id).length > 0 */\n      gt\n        /* \"Payment.sol\":4764:4829  return bytes(payments[_transaction_id].transaction_id).length > 0 */\n      swap1\n      pop\n        /* \"Payment.sol\":4670:4837  function paymentExists(string memory _transaction_id) external view returns (bool) {... */\n      swap2\n      swap1\n      pop\n      jump\t// out\n        /* \"Payment.sol\":2206:3457  function createPayment(PaymentRecord memory _payment) external onlyOwner {... */\n    tag_20:\n        /* \"@openzeppelin/contracts/access/Ownable.sol\":1531:1544  _checkOwner() */\n      tag_45\n        /* \"@openzeppelin/contracts/access/Ownable.sol\":1531:1542  _checkOwner */\n      tag_46\n        /* \"@openzeppelin/contracts/access/Ownable.sol\":1531:1544  _checkOwner() */\n      jump\t// in\n    tag_45:\n        /* \"Payment.sol\":2338:2339  0 */\n      0x00\n        /* \"Payment.sol\":2304:2312  _payment */\n      dup2\n        /* \"Payment.sol\":2304:2327  _payment.transaction_id */\n      0x20\n      add\n      mload\n        /* \"Payment.sol\":2298:2335  bytes(_payment.transaction_id).length */\n      mload\n        /* \"Payment.sol\":2298:2339  bytes(_payment.transaction_id).length > 0 */\n      gt\n        /* \"Payment.sol\":2290:2367  require(bytes(_payment.transaction_id).length > 0, \"Transaction ID required\") */\n      tag_48\n      jumpi\n      mload(0x40)\n      0x08c379a000000000000000000000000000000000000000000000000000000000\n      dup2\n      mstore\n      0x04\n      add\n      tag_49\n      swap1\n      tag_50\n      jump\t// in\n    tag_49:\n      mload(0x40)\n      dup1\n      swap2\n      sub\n      swap1\n      revert\n    tag_48:\n        /* \"Payment.sol\":2404:2405  0 */\n      0x00\n        /* \"Payment.sol\":2386:2394  _payment */\n      dup2\n        /* \"Payment.sol\":2386:2401  _payment.amount */\n      0x60\n      add\n      mload\n        /* \"Payment.sol\":2386:2405  _payment.amount > 0 */\n      gt\n        /* \"Payment.sol\":2378:2442  require(_payment.amount > 0, \"Amount must be greater than zero\") */\n      tag_51\n      jumpi\n      mload(0x40)\n      0x08c379a000000000000000000000000000000000000000000000000000000000\n      dup2\n      mstore\n      0x04\n      add\n      tag_52\n      swap1\n      tag_53\n      jump\t// in\n    tag_52:\n      mload(0x40)\n      dup1\n      swap2\n      sub\n      swap1\n      revert\n    tag_51:\n        /* \"Payment.sol\":2499:2500  0 */\n      0x00\n        /* \"Payment.sol\":2467:2475  _payment */\n      dup2\n        /* \"Payment.sol\":2467:2488  _payment.payment_type */\n      0x40\n      add\n      mload\n        /* \"Payment.sol\":2461:2496  bytes(_payment.payment_type).length */\n      mload\n        /* \"Payment.sol\":2461:2500  bytes(_payment.payment_type).length > 0 */\n      gt\n        /* \"Payment.sol\":2453:2526  require(bytes(_payment.payment_type).length > 0, \"Payment type required\") */\n      tag_54\n      jumpi\n      mload(0x40)\n      0x08c379a000000000000000000000000000000000000000000000000000000000\n      dup2\n      mstore\n      0x04\n      add\n      tag_55\n      swap1\n      tag_56\n      jump\t// in\n    tag_55:\n      mload(0x40)\n      dup1\n      swap2\n      sub\n      swap1\n      revert\n    tag_54:\n        /* \"Payment.sol\":2539:2562  PaymentRecord storage p */\n      0x00\n        /* \"Payment.sol\":2565:2573  payments */\n      0x01\n        /* \"Payment.sol\":2574:2582  _payment */\n      dup3\n        /* \"Payment.sol\":2574:2597  _payment.transaction_id */\n      0x20\n      add\n      mload\n        /* \"Payment.sol\":2565:2598  payments[_payment.transaction_id] */\n      mload(0x40)\n      tag_57\n      swap2\n      swap1\n      tag_41\n      jump\t// in\n    tag_57:\n      swap1\n      dup2\n      mstore\n      0x20\n      add\n      mload(0x40)\n      dup1\n      swap2\n      sub\n      swap1\n      keccak256\n        /* \"Payment.sol\":2539:2598  PaymentRecord storage p = payments[_payment.transaction_id] */\n      swap1\n      pop\n        /* \"Payment.sol\":2681:2689  _payment */\n      dup2\n        /* \"Payment.sol\":2681:2706  _payment.quote_request_id */\n      0x00\n      add\n      mload\n        /* \"Payment.sol\":2660:2661  p */\n      dup2\n        /* \"Payment.sol\":2660:2678  p.quote_request_id */\n      0x00\n      add\n        /* \"Payment.sol\":2660:2706  p.quote_request_id = _payment.quote_request_id */\n      swap1\n      dup2\n      tag_58\n      swap2\n      swap1\n      tag_59\n      jump\t// in\n    tag_58:\n      pop\n        /* \"Payment.sol\":2736:2744  _payment */\n      dup2\n        /* \"Payment.sol\":2736:2759  _payment.transaction_id */\n      0x20\n      add\n      mload\n        /* \"Payment.sol\":2717:2718  p */\n      dup2\n        /* \"Payment.sol\":2717:2733  p.transaction_id */\n      0x01\n      add\n        /* \"Payment.sol\":2717:2759  p.transaction_id = _payment.transaction_id */\n      swap1\n      dup2\n      tag_60\n      swap2\n      swap1\n      tag_59\n      jump\t// in\n    tag_60:\n      pop\n        /* \"Payment.sol\":2787:2795  _payment */\n      dup2\n        /* \"Payment.sol\":2787:2808  _payment.payment_type */\n      0x40\n      add\n      mload\n        /* \"Payment.sol\":2770:2771  p */\n      dup2\n        /* \"Payment.sol\":2770:2784  p.payment_type */\n      0x02\n      add\n        /* \"Payment.sol\":2770:2808  p.payment_type = _payment.payment_type */\n      swap1\n      dup2\n      tag_61\n      swap2\n      swap1\n      tag_59\n      jump\t// in\n    tag_61:\n      pop\n        /* \"Payment.sol\":2830:2838  _payment */\n      dup2\n        /* \"Payment.sol\":2830:2845  _payment.amount */\n      0x60\n      add\n      mload\n        /* \"Payment.sol\":2819:2820  p */\n      dup2\n        /* \"Payment.sol\":2819:2827  p.amount */\n      0x03\n      add\n        /* \"Payment.sol\":2819:2845  p.amount = _payment.amount */\n      dup2\n      swap1\n      sstore\n      pop\n        /* \"Payment.sol\":2875:2883  _payment */\n      dup2\n        /* \"Payment.sol\":2875:2898  _payment.amount_purpose */\n      0x80\n      add\n      mload\n        /* \"Payment.sol\":2856:2857  p */\n      dup2\n        /* \"Payment.sol\":2856:2872  p.amount_purpose */\n      0x04\n      add\n        /* \"Payment.sol\":2856:2898  p.amount_purpose = _payment.amount_purpose */\n      swap1\n      dup2\n      tag_62\n      swap2\n      swap1\n      tag_59\n      jump\t// in\n    tag_62:\n      pop\n        /* \"Payment.sol\":2935:2943  _payment */\n      dup2\n        /* \"Payment.sol\":2935:2965  _payment.blockchain_gas_amount */\n      0xa0\n      add\n      mload\n        /* \"Payment.sol\":2909:2910  p */\n      dup2\n        /* \"Payment.sol\":2909:2932  p.blockchain_gas_amount */\n      0x05\n      add\n        /* \"Payment.sol\":2909:2965  p.blockchain_gas_amount = _payment.blockchain_gas_amount */\n      dup2\n      swap1\n      sstore\n      pop\n        /* \"Payment.sol\":2994:3002  _payment */\n      dup2\n        /* \"Payment.sol\":2994:3016  _payment.source_wallet */\n      0xc0\n      add\n      mload\n        /* \"Payment.sol\":2976:2977  p */\n      dup2\n        /* \"Payment.sol\":2976:2991  p.source_wallet */\n      0x06\n      add\n        /* \"Payment.sol\":2976:3016  p.source_wallet = _payment.source_wallet */\n      swap1\n      dup2\n      tag_63\n      swap2\n      swap1\n      tag_59\n      jump\t// in\n    tag_63:\n      pop\n        /* \"Payment.sol\":3038:3046  _payment */\n      dup2\n        /* \"Payment.sol\":3038:3053  _payment.status */\n      0xe0\n      add\n      mload\n        /* \"Payment.sol\":3027:3028  p */\n      dup2\n        /* \"Payment.sol\":3027:3035  p.status */\n      0x07\n      add\n        /* \"Payment.sol\":3027:3053  p.status = _payment.status */\n      swap1\n      dup2\n      tag_64\n      swap2\n      swap1\n      tag_59\n      jump\t// in\n    tag_64:\n      pop\n        /* \"Payment.sol\":3079:3094  block.timestamp */\n      timestamp\n        /* \"Payment.sol\":3064:3065  p */\n      dup2\n        /* \"Payment.sol\":3064:3076  p.created_at */\n      0x08\n      add\n        /* \"Payment.sol\":3064:3094  p.created_at = block.timestamp */\n      dup2\n      swap1\n      sstore\n      pop\n        /* \"Payment.sol\":3120:3128  _payment */\n      dup2\n        /* \"Payment.sol\":3120:3139  _payment.created_by */\n      0x0120\n      add\n      mload\n        /* \"Payment.sol\":3105:3106  p */\n      dup2\n        /* \"Payment.sol\":3105:3117  p.created_by */\n      0x09\n      add\n        /* \"Payment.sol\":3105:3139  p.created_by = _payment.created_by */\n      swap1\n      dup2\n      tag_65\n      swap2\n      swap1\n      tag_59\n      jump\t// in\n    tag_65:\n      pop\n        /* \"Payment.sol\":3173:3178  false */\n      0x00\n        /* \"Payment.sol\":3150:3151  p */\n      dup2\n        /* \"Payment.sol\":3150:3170  p.payment_email_sent */\n      0x0a\n      add\n      0x00\n        /* \"Payment.sol\":3150:3178  p.payment_email_sent = false */\n      0x0100\n      exp\n      dup2\n      sload\n      dup2\n      0xff\n      mul\n      not\n      and\n      swap1\n      dup4\n      iszero\n      iszero\n      mul\n      or\n      swap1\n      sstore\n      pop\n        /* \"Payment.sol\":3236:3244  _payment */\n      dup2\n        /* \"Payment.sol\":3236:3252  _payment.user_id */\n      0x0160\n      add\n      mload\n        /* \"Payment.sol\":3224:3225  p */\n      dup2\n        /* \"Payment.sol\":3224:3233  p.user_id */\n      0x0b\n      add\n        /* \"Payment.sol\":3224:3252  p.user_id = _payment.user_id */\n      swap1\n      dup2\n      tag_66\n      swap2\n      swap1\n      tag_59\n      jump\t// in\n    tag_66:\n      pop\n        /* \"Payment.sol\":3284:3292  _payment */\n      dup2\n        /* \"Payment.sol\":3284:3309  _payment.transaction_hash */\n      0x0180\n      add\n      mload\n        /* \"Payment.sol\":3263:3264  p */\n      dup2\n        /* \"Payment.sol\":3263:3281  p.transaction_hash */\n      0x0c\n      add\n        /* \"Payment.sol\":3263:3309  p.transaction_hash = _payment.transaction_hash */\n      swap1\n      dup2\n      tag_67\n      swap2\n      swap1\n      tag_59\n      jump\t// in\n    tag_67:\n      pop\n        /* \"Payment.sol\":3337:3345  _payment */\n      dup2\n        /* \"Payment.sol\":3337:3358  _payment.confirmed_at */\n      0x01a0\n      add\n      mload\n        /* \"Payment.sol\":3320:3321  p */\n      dup2\n        /* \"Payment.sol\":3320:3334  p.confirmed_at */\n      0x0d\n      add\n        /* \"Payment.sol\":3320:3358  p.confirmed_at = _payment.confirmed_at */\n      dup2\n      swap1\n      sstore\n      pop\n        /* \"Payment.sol\":3391:3399  _payment */\n      dup2\n        /* \"Payment.sol\":3391:3414  _payment.transaction_id */\n      0x20\n      add\n      mload\n        /* \"Payment.sol\":3376:3449  PaymentCreated(_payment.transaction_id, _payment.amount, _payment.status) */\n      mload(0x40)\n      tag_68\n      swap2\n      swap1\n      tag_41\n      jump\t// in\n    tag_68:\n      mload(0x40)\n      dup1\n      swap2\n      sub\n      swap1\n      keccak256\n      0xc961b12288acbf4eb41fb8eda6b6fdda3523af3060c8cf53123a0bb0723cf8ba\n        /* \"Payment.sol\":3416:3424  _payment */\n      dup4\n        /* \"Payment.sol\":3416:3431  _payment.amount */\n      0x60\n      add\n      mload\n        /* \"Payment.sol\":3433:3441  _payment */\n      dup5\n        /* \"Payment.sol\":3433:3448  _payment.status */\n      0xe0\n      add\n      mload\n        /* \"Payment.sol\":3376:3449  PaymentCreated(_payment.transaction_id, _payment.amount, _payment.status) */\n      mload(0x40)\n      tag_69\n      swap3\n      swap2\n      swap1\n      tag_70\n      jump\t// in\n    tag_69:\n      mload(0x40)\n      dup1\n      swap2\n      sub\n      swap1\n      log2\n        /* \"Payment.sol\":2279:3457  {... */\n      pop\n        /* \"Payment.sol\":2206:3457  function createPayment(PaymentRecord memory _payment) external onlyOwner {... */\n      pop\n      jump\t// out\n        /* \"Payment.sol\":4170:4481  function markEmailSent(string memory _transaction_id) external onlyOwner {... */\n    tag_23:\n        /* \"@openzeppelin/contracts/access/Ownable.sol\":1531:1544  _checkOwner() */\n      tag_72\n        /* \"@openzeppelin/contracts/access/Ownable.sol\":1531:1542  _checkOwner */\n      tag_46\n        /* \"@openzeppelin/contracts/access/Ownable.sol\":1531:1544  _checkOwner() */\n      jump\t// in\n    tag_72:\n        /* \"Payment.sol\":4254:4277  PaymentRecord storage p */\n      0x00\n        /* \"Payment.sol\":4280:4288  payments */\n      0x01\n        /* \"Payment.sol\":4289:4304  _transaction_id */\n      dup3\n        /* \"Payment.sol\":4280:4305  payments[_transaction_id] */\n      mload(0x40)\n      tag_74\n      swap2\n      swap1\n      tag_41\n      jump\t// in\n    tag_74:\n      swap1\n      dup2\n      mstore\n      0x20\n      add\n      mload(0x40)\n      dup1\n      swap2\n      sub\n      swap1\n      keccak256\n        /* \"Payment.sol\":4254:4305  PaymentRecord storage p = payments[_transaction_id] */\n      swap1\n      pop\n        /* \"Payment.sol\":4357:4358  0 */\n      0x00\n        /* \"Payment.sol\":4330:4331  p */\n      dup2\n        /* \"Payment.sol\":4330:4346  p.transaction_id */\n      0x01\n      add\n        /* \"Payment.sol\":4324:4354  bytes(p.transaction_id).length */\n      dup1\n      sload\n      tag_75\n      swap1\n      tag_43\n      jump\t// in\n    tag_75:\n      swap1\n      pop\n        /* \"Payment.sol\":4324:4358  bytes(p.transaction_id).length > 0 */\n      gt\n        /* \"Payment.sol\":4316:4385  require(bytes(p.transaction_id).length > 0, \"Payment does not exist\") */\n      tag_76\n      jumpi\n      mload(0x40)\n      0x08c379a000000000000000000000000000000000000000000000000000000000\n      dup2\n      mstore\n      0x04\n      add\n      tag_77\n      swap1\n      tag_78\n      jump\t// in\n    tag_77:\n      mload(0x40)\n      dup1\n      swap2\n      sub\n      swap1\n      revert\n    tag_76:\n        /* \"Payment.sol\":4419:4423  true */\n      0x01\n        /* \"Payment.sol\":4396:4397  p */\n      dup2\n        /* \"Payment.sol\":4396:4416  p.payment_email_sent */\n      0x0a\n      add\n      0x00\n        /* \"Payment.sol\":4396:4423  p.payment_email_sent = true */\n      0x0100\n      exp\n      dup2\n      sload\n      dup2\n      0xff\n      mul\n      not\n      and\n      swap1\n      dup4\n      iszero\n      iszero\n      mul\n      or\n      swap1\n      sstore\n      pop\n        /* \"Payment.sol\":4457:4472  _transaction_id */\n      dup2\n        /* \"Payment.sol\":4441:4473  EmailMarkedSent(_transaction_id) */\n      mload(0x40)\n      tag_79\n      swap2\n      swap1\n      tag_41\n      jump\t// in\n    tag_79:\n      mload(0x40)\n      dup1\n      swap2\n      sub\n      swap1\n      keccak256\n      0xf8a0e437deaab453be503dfae13b305a2dc99a6b6a650f58a9b116bcaf48dafb\n      mload(0x40)\n      mload(0x40)\n      dup1\n      swap2\n      sub\n      swap1\n      log2\n        /* \"Payment.sol\":4243:4481  {... */\n      pop\n        /* \"Payment.sol\":4170:4481  function markEmailSent(string memory _transaction_id) external onlyOwner {... */\n      pop\n      jump\t// out\n        /* \"@openzeppelin/contracts/access/Ownable.sol\":2293:2394  function renounceOwnership() public virtual onlyOwner {... */\n    tag_25:\n        /* \"@openzeppelin/contracts/access/Ownable.sol\":1531:1544  _checkOwner() */\n      tag_81\n        /* \"@openzeppelin/contracts/access/Ownable.sol\":1531:1542  _checkOwner */\n      tag_46\n        /* \"@openzeppelin/contracts/access/Ownable.sol\":1531:1544  _checkOwner() */\n      jump\t// in\n    tag_81:\n        /* \"@openzeppelin/contracts/access/Ownable.sol\":2357:2387  _transferOwnership(address(0)) */\n      tag_83\n        /* \"@openzeppelin/contracts/access/Ownable.sol\":2384:2385  0 */\n      0x00\n        /* \"@openzeppelin/contracts/access/Ownable.sol\":2357:2375  _transferOwnership */\n      tag_84\n        /* \"@openzeppelin/contracts/access/Ownable.sol\":2357:2387  _transferOwnership(address(0)) */\n      jump\t// in\n    tag_83:\n        /* \"@openzeppelin/contracts/access/Ownable.sol\":2293:2394  function renounceOwnership() public virtual onlyOwner {... */\n      jump\t// out\n        /* \"@openzeppelin/contracts/access/Ownable.sol\":1638:1723  function owner() public view virtual returns (address) {... */\n    tag_27:\n        /* \"@openzeppelin/contracts/access/Ownable.sol\":1684:1691  address */\n      0x00\n        /* \"@openzeppelin/contracts/access/Ownable.sol\":1710:1716  _owner */\n      0x00\n      0x00\n      swap1\n      sload\n      swap1\n      0x0100\n      exp\n      swap1\n      div\n      0xffffffffffffffffffffffffffffffffffffffff\n      and\n        /* \"@openzeppelin/contracts/access/Ownable.sol\":1703:1716  return _owner */\n      swap1\n      pop\n        /* \"@openzeppelin/contracts/access/Ownable.sol\":1638:1723  function owner() public view virtual returns (address) {... */\n      swap1\n      jump\t// out\n        /* \"Payment.sol\":3709:3973  function getPayment(string memory _transaction_id) external view returns (PaymentRecord memory) {... */\n    tag_32:\n        /* \"Payment.sol\":3783:3803  PaymentRecord memory */\n      tag_86\n      tag_87\n      jump\t// in\n    tag_86:\n        /* \"Payment.sol\":3816:3838  PaymentRecord memory p */\n      0x00\n        /* \"Payment.sol\":3841:3849  payments */\n      0x01\n        /* \"Payment.sol\":3850:3865  _transaction_id */\n      dup4\n        /* \"Payment.sol\":3841:3866  payments[_transaction_id] */\n      mload(0x40)\n      tag_89\n      swap2\n      swap1\n      tag_41\n      jump\t// in\n    tag_89:\n      swap1\n      dup2\n      mstore\n      0x20\n      add\n      mload(0x40)\n      dup1\n      swap2\n      sub\n      swap1\n      keccak256\n        /* \"Payment.sol\":3816:3866  PaymentRecord memory p = payments[_transaction_id] */\n      mload(0x40)\n      dup1\n      0x01c0\n      add\n      0x40\n      mstore\n      swap1\n      dup2\n      0x00\n      dup3\n      add\n      dup1\n      sload\n      tag_90\n      swap1\n      tag_43\n      jump\t// in\n    tag_90:\n      dup1\n      0x1f\n      add\n      0x20\n      dup1\n      swap2\n      div\n      mul\n      0x20\n      add\n      mload(0x40)\n      swap1\n      dup2\n      add\n      0x40\n      mstore\n      dup1\n      swap3\n      swap2\n      swap1\n      dup2\n      dup2\n      mstore\n      0x20\n      add\n      dup3\n      dup1\n      sload\n      tag_91\n      swap1\n      tag_43\n      jump\t// in\n    tag_91:\n      dup1\n      iszero\n      tag_92\n      jumpi\n      dup1\n      0x1f\n      lt\n      tag_93\n      jumpi\n      0x0100\n      dup1\n      dup4\n      sload\n      div\n      mul\n      dup4\n      mstore\n      swap2\n      0x20\n      add\n      swap2\n      jump(tag_92)\n    tag_93:\n      dup3\n      add\n      swap2\n      swap1\n      0x00\n      mstore\n      keccak256(0x00, 0x20)\n      swap1\n    tag_94:\n      dup2\n      sload\n      dup2\n      mstore\n      swap1\n      0x01\n      add\n      swap1\n      0x20\n      add\n      dup1\n      dup4\n      gt\n      tag_94\n      jumpi\n      dup3\n      swap1\n      sub\n      0x1f\n      and\n      dup3\n      add\n      swap2\n    tag_92:\n      pop\n      pop\n      pop\n      pop\n      pop\n      dup2\n      mstore\n      0x20\n      add\n      0x01\n      dup3\n      add\n      dup1\n      sload\n      tag_95\n      swap1\n      tag_43\n      jump\t// in\n    tag_95:\n      dup1\n      0x1f\n      add\n      0x20\n      dup1\n      swap2\n      div\n      mul\n      0x20\n      add\n      mload(0x40)\n      swap1\n      dup2\n      add\n      0x40\n      mstore\n      dup1\n      swap3\n      swap2\n      swap1\n      dup2\n      dup2\n      mstore\n      0x20\n      add\n      dup3\n      dup1\n      sload\n      tag_96\n      swap1\n      tag_43\n      jump\t// in\n    tag_96:\n      dup1\n      iszero\n      tag_97\n      jumpi\n      dup1\n      0x1f\n      lt\n      tag_98\n      jumpi\n      0x0100\n      dup1\n      dup4\n      sload\n      div\n      mul\n      dup4\n      mstore\n      swap2\n      0x20\n      add\n      swap2\n      jump(tag_97)\n    tag_98:\n      dup3\n      add\n      swap2\n      swap1\n      0x00\n      mstore\n      keccak256(0x00, 0x20)\n      swap1\n    tag_99:\n      dup2\n      sload\n      dup2\n      mstore\n      swap1\n      0x01\n      add\n      swap1\n      0x20\n      add\n      dup1\n      dup4\n      gt\n      tag_99\n      jumpi\n      dup3\n      swap1\n      sub\n      0x1f\n      and\n      dup3\n      add\n      swap2\n    tag_97:\n      pop\n      pop\n      pop\n      pop\n      pop\n      dup2\n      mstore\n      0x20\n      add\n      0x02\n      dup3\n      add\n      dup1\n      sload\n      tag_100\n      swap1\n      tag_43\n      jump\t// in\n    tag_100:\n      dup1\n      0x1f\n      add\n      0x20\n      dup1\n      swap2\n      div\n      mul\n      0x20\n      add\n      mload(0x40)\n      swap1\n      dup2\n      add\n      0x40\n      mstore\n      dup1\n      swap3\n      swap2\n      swap1\n      dup2\n      dup2\n      mstore\n      0x20\n      add\n      dup3\n      dup1\n      sload\n      tag_101\n      swap1\n      tag_43\n      jump\t// in\n    tag_101:\n      dup1\n      iszero\n      tag_102\n      jumpi\n      dup1\n      0x1f\n      lt\n      tag_103\n      jumpi\n      0x0100\n      dup1\n      dup4\n      sload\n      div\n      mul\n      dup4\n      mstore\n      swap2\n      0x20\n      add\n      swap2\n      jump(tag_102)\n    tag_103:\n      dup3\n      add\n      swap2\n      swap1\n      0x00\n      mstore\n      keccak256(0x00, 0x20)\n      swap1\n    tag_104:\n      dup2\n      sload\n      dup2\n      mstore\n      swap1\n      0x01\n      add\n      swap1\n      0x20\n      add\n      dup1\n      dup4\n      gt\n      tag_104\n      jumpi\n      dup3\n      swap1\n      sub\n      0x1f\n      and\n      dup3\n      add\n      swap2\n    tag_102:\n      pop\n      pop\n      pop\n      pop\n      pop\n      dup2\n      mstore\n      0x20\n      add\n      0x03\n      dup3\n      add\n      sload\n      dup2\n      mstore\n      0x20\n      add\n      0x04\n      dup3\n      add\n      dup1\n      sload\n      tag_105\n      swap1\n      tag_43\n      jump\t// in\n    tag_105:\n      dup1\n      0x1f\n      add\n      0x20\n      dup1\n      swap2\n      div\n      mul\n      0x20\n      add\n      mload(0x40)\n      swap1\n      dup2\n      add\n      0x40\n      mstore\n      dup1\n      swap3\n      swap2\n      swap1\n      dup2\n      dup2\n      mstore\n      0x20\n      add\n      dup3\n      dup1\n      sload\n      tag_106\n      swap1\n      tag_43\n      jump\t// in\n    tag_106:\n      dup1\n      iszero\n      tag_107\n      jumpi\n      dup1\n      0x1f\n      lt\n      tag_108\n      jumpi\n      0x0100\n      dup1\n      dup4\n      sload\n      div\n      mul\n      dup4\n      mstore\n      swap2\n      0x20\n      add\n      swap2\n      jump(tag_107)\n    tag_108:\n      dup3\n      add\n      swap2\n      swap1\n      0x00\n      mstore\n      keccak256(0x00, 0x20)\n      swap1\n    tag_109:\n      dup2\n      sload\n      dup2\n      mstore\n      swap1\n      0x01\n      add\n      swap1\n      0x20\n      add\n      dup1\n      dup4\n      gt\n      tag_109\n      jumpi\n      dup3\n      swap1\n      sub\n      0x1f\n      and\n      dup3\n      add\n      swap2\n    tag_107:\n      pop\n      pop\n      pop\n      pop\n      pop\n      dup2\n      mstore\n      0x20\n      add\n      0x05\n      dup3\n      add\n      sload\n      dup2\n      mstore\n      0x20\n      add\n      0x06\n      dup3\n      add\n      dup1\n      sload\n      tag_110\n      swap1\n      tag_43\n      jump\t// in\n    tag_110:\n      dup1\n      0x1f\n      add\n      0x20\n      dup1\n      swap2\n      div\n      mul\n      0x20\n      add\n      mload(0x40)\n      swap1\n      dup2\n      add\n      0x40\n      mstore\n      dup1\n      swap3\n      swap2\n      swap1\n      dup2\n      dup2\n      mstore\n      0x20\n      add\n      dup3\n      dup1\n      sload\n      tag_111\n      swap1\n      tag_43\n      jump\t// in\n    tag_111:\n      dup1\n      iszero\n      tag_112\n      jumpi\n      dup1\n      0x1f\n      lt\n      tag_113\n      jumpi\n      0x0100\n      dup1\n      dup4\n      sload\n      div\n      mul\n      dup4\n      mstore\n      swap2\n      0x20\n      add\n      swap2\n      jump(tag_112)\n    tag_113:\n      dup3\n      add\n      swap2\n      swap1\n      0x00\n      mstore\n      keccak256(0x00, 0x20)\n      swap1\n    tag_114:\n      dup2\n      sload\n      dup2\n      mstore\n      swap1\n      0x01\n      add\n      swap1\n      0x20\n      add\n      dup1\n      dup4\n      gt\n      tag_114\n      jumpi\n      dup3\n      swap1\n      sub\n      0x1f\n      and\n      dup3\n      add\n      swap2\n    tag_112:\n      pop\n      pop\n      pop\n      pop\n      pop\n      dup2\n      mstore\n      0x20\n      add\n      0x07\n      dup3\n      add\n      dup1\n      sload\n      tag_115\n      swap1\n      tag_43\n      jump\t// in\n    tag_115:\n      dup1\n      0x1f\n      add\n      0x20\n      dup1\n      swap2\n      div\n      mul\n      0x20\n      add\n      mload(0x40)\n      swap1\n      dup2\n      add\n      0x40\n      mstore\n      dup1\n      swap3\n      swap2\n      swap1\n      dup2\n      dup2\n      mstore\n      0x20\n      add\n      dup3\n      dup1\n      sload\n      tag_116\n      swap1\n      tag_43\n      jump\t// in\n    tag_116:\n      dup1\n      iszero\n      tag_117\n      jumpi\n      dup1\n      0x1f\n      lt\n      tag_118\n      jumpi\n      0x0100\n      dup1\n      dup4\n      sload\n      div\n      mul\n      dup4\n      mstore\n      swap2\n      0x20\n      add\n      swap2\n      jump(tag_117)\n    tag_118:\n      dup3\n      add\n      swap2\n      swap1\n      0x00\n      mstore\n      keccak256(0x00, 0x20)\n      swap1\n    tag_119:\n      dup2\n      sload\n      dup2\n      mstore\n      swap1\n      0x01\n      add\n      swap1\n      0x20\n      add\n      dup1\n      dup4\n      gt\n      tag_119\n      jumpi\n      dup3\n      swap1\n      sub\n      0x1f\n      and\n      dup3\n      add\n      swap2\n    tag_117:\n      pop\n      pop\n      pop\n      pop\n      pop\n      dup2\n      mstore\n      0x20\n      add\n      0x08\n      dup3\n      add\n      sload\n      dup2\n      mstore\n      0x20\n      add\n      0x09\n      dup3\n      add\n      dup1\n      sload\n      tag_120\n      swap1\n      tag_43\n      jump\t// in\n    tag_120:\n      dup1\n      0x1f\n      add\n      0x20\n      dup1\n      swap2\n      div\n      mul\n      0x20\n      add\n      mload(0x40)\n      swap1\n      dup2\n      add\n      0x40\n      mstore\n      dup1\n      swap3\n      swap2\n      swap1\n      dup2\n      dup2\n      mstore\n      0x20\n      add\n      dup3\n      dup1\n      sload\n      tag_121\n      swap1\n      tag_43\n      jump\t// in\n    tag_121:\n      dup1\n      iszero\n      tag_122\n      jumpi\n      dup1\n      0x1f\n      lt\n      tag_123\n      jumpi\n      0x0100\n      dup1\n      dup4\n      sload\n      div\n      mul\n      dup4\n      mstore\n      swap2\n      0x20\n      add\n      swap2\n      jump(tag_122)\n    tag_123:\n      dup3\n      add\n      swap2\n      swap1\n      0x00\n      mstore\n      keccak256(0x00, 0x20)\n      swap1\n    tag_124:\n      dup2\n      sload\n      dup2\n      mstore\n      swap1\n      0x01\n      add\n      swap1\n      0x20\n      add\n      dup1\n      dup4\n      gt\n      tag_124\n      jumpi\n      dup3\n      swap1\n      sub\n      0x1f\n      and\n      dup3\n      add\n      swap2\n    tag_122:\n      pop\n      pop\n      pop\n      pop\n      pop\n      dup2\n      mstore\n      0x20\n      add\n      0x0a\n      dup3\n      add\n      0x00\n      swap1\n      sload\n      swap1\n      0x0100\n      exp\n      swap1\n      div\n      0xff\n      and\n      iszero\n      iszero\n      iszero\n      iszero\n      dup2\n      mstore\n      0x20\n      add\n      0x0b\n      dup3\n      add\n      dup1\n      sload\n      tag_125\n      swap1\n      tag_43\n      jump\t// in\n    tag_125:\n      dup1\n      0x1f\n      add\n      0x20\n      dup1\n      swap2\n      div\n      mul\n      0x20\n      add\n      mload(0x40)\n      swap1\n      dup2\n      add\n      0x40\n      mstore\n      dup1\n      swap3\n      swap2\n      swap1\n      dup2\n      dup2\n      mstore\n      0x20\n      add\n      dup3\n      dup1\n      sload\n      tag_126\n      swap1\n      tag_43\n      jump\t// in\n    tag_126:\n      dup1\n      iszero\n      tag_127\n      jumpi\n      dup1\n      0x1f\n      lt\n      tag_128\n      jumpi\n      0x0100\n      dup1\n      dup4\n      sload\n      div\n      mul\n      dup4\n      mstore\n      swap2\n      0x20\n      add\n      swap2\n      jump(tag_127)\n    tag_128:\n      dup3\n      add\n      swap2\n      swap1\n      0x00\n      mstore\n      keccak256(0x00, 0x20)\n      swap1\n    tag_129:\n      dup2\n      sload\n      dup2\n      mstore\n      swap1\n      0x01\n      add\n      swap1\n      0x20\n      add\n      dup1\n      dup4\n      gt\n      tag_129\n      jumpi\n      dup3\n      swap1\n      sub\n      0x1f\n      and\n      dup3\n      add\n      swap2\n    tag_127:\n      pop\n      pop\n      pop\n      pop\n      pop\n      dup2\n      mstore\n      0x20\n      add\n      0x0c\n      dup3\n      add\n      dup1\n      sload\n      tag_130\n      swap1\n      tag_43\n      jump\t// in\n    tag_130:\n      dup1\n      0x1f\n      add\n      0x20\n      dup1\n      swap2\n      div\n      mul\n      0x20\n      add\n      mload(0x40)\n      swap1\n      dup2\n      add\n      0x40\n      mstore\n      dup1\n      swap3\n      swap2\n      swap1\n      dup2\n      dup2\n      mstore\n      0x20\n      add\n      dup3\n      dup1\n      sload\n      tag_131\n      swap1\n      tag_43\n      jump\t// in\n    tag_131:\n      dup1\n      iszero\n      tag_132\n      jumpi\n      dup1\n      0x1f\n      lt\n      tag_133\n      jumpi\n      0x0100\n      dup1\n      dup4\n      sload\n      div\n      mul\n      dup4\n      mstore\n      swap2\n      0x20\n      add\n      swap2\n      jump(tag_132)\n    tag_133:\n      dup3\n      add\n      swap2\n      swap1\n      0x00\n      mstore\n      keccak256(0x00, 0x20)\n      swap1\n    tag_134:\n      dup2\n      sload\n      dup2\n      mstore\n      swap1\n      0x01\n      add\n      swap1\n      0x20\n      add\n      dup1\n      dup4\n      gt\n      tag_134\n      jumpi\n      dup3\n      swap1\n      sub\n      0x1f\n      and\n      dup3\n      add\n      swap2\n    tag_132:\n      pop\n      pop\n      pop\n      pop\n      pop\n      dup2\n      mstore\n      0x20\n      add\n      0x0d\n      dup3\n      add\n      sload\n      dup2\n      mstore\n      pop\n      pop\n      swap1\n      pop\n        /* \"Payment.sol\":3918:3919  0 */\n      0x00\n        /* \"Payment.sol\":3891:3892  p */\n      dup2\n        /* \"Payment.sol\":3891:3907  p.transaction_id */\n      0x20\n      add\n      mload\n        /* \"Payment.sol\":3885:3915  bytes(p.transaction_id).length */\n      mload\n        /* \"Payment.sol\":3885:3919  bytes(p.transaction_id).length > 0 */\n      gt\n        /* \"Payment.sol\":3877:3946  require(bytes(p.transaction_id).length > 0, \"Payment does not exist\") */\n      tag_135\n      jumpi\n      mload(0x40)\n      0x08c379a000000000000000000000000000000000000000000000000000000000\n      dup2\n      mstore\n      0x04\n      add\n      tag_136\n      swap1\n      tag_78\n      jump\t// in\n    tag_136:\n      mload(0x40)\n      dup1\n      swap2\n      sub\n      swap1\n      revert\n    tag_135:\n        /* \"Payment.sol\":3964:3965  p */\n      dup1\n        /* \"Payment.sol\":3957:3965  return p */\n      swap2\n      pop\n      pop\n        /* \"Payment.sol\":3709:3973  function getPayment(string memory _transaction_id) external view returns (PaymentRecord memory) {... */\n      swap2\n      swap1\n      pop\n      jump\t// out\n        /* \"@openzeppelin/contracts/access/Ownable.sol\":2543:2758  function transferOwnership(address newOwner) public virtual onlyOwner {... */\n    tag_38:\n        /* \"@openzeppelin/contracts/access/Ownable.sol\":1531:1544  _checkOwner() */\n      tag_138\n        /* \"@openzeppelin/contracts/access/Ownable.sol\":1531:1542  _checkOwner */\n      tag_46\n        /* \"@openzeppelin/contracts/access/Ownable.sol\":1531:1544  _checkOwner() */\n      jump\t// in\n    tag_138:\n        /* \"@openzeppelin/contracts/access/Ownable.sol\":2647:2648  0 */\n      0x00\n        /* \"@openzeppelin/contracts/access/Ownable.sol\":2627:2649  newOwner == address(0) */\n      0xffffffffffffffffffffffffffffffffffffffff\n      and\n        /* \"@openzeppelin/contracts/access/Ownable.sol\":2627:2635  newOwner */\n      dup2\n        /* \"@openzeppelin/contracts/access/Ownable.sol\":2627:2649  newOwner == address(0) */\n      0xffffffffffffffffffffffffffffffffffffffff\n      and\n      sub\n        /* \"@openzeppelin/contracts/access/Ownable.sol\":2623:2714  if (newOwner == address(0)) {... */\n      tag_140\n      jumpi\n        /* \"@openzeppelin/contracts/access/Ownable.sol\":2700:2701  0 */\n      0x00\n        /* \"@openzeppelin/contracts/access/Ownable.sol\":2672:2703  OwnableInvalidOwner(address(0)) */\n      mload(0x40)\n      0x1e4fbdf700000000000000000000000000000000000000000000000000000000\n      dup2\n      mstore\n      0x04\n      add\n      tag_141\n      swap2\n      swap1\n      tag_29\n      jump\t// in\n    tag_141:\n      mload(0x40)\n      dup1\n      swap2\n      sub\n      swap1\n      revert\n        /* \"@openzeppelin/contracts/access/Ownable.sol\":2623:2714  if (newOwner == address(0)) {... */\n    tag_140:\n        /* \"@openzeppelin/contracts/access/Ownable.sol\":2723:2751  _transferOwnership(newOwner) */\n      tag_142\n        /* \"@openzeppelin/contracts/access/Ownable.sol\":2742:2750  newOwner */\n      dup2\n        /* \"@openzeppelin/contracts/access/Ownable.sol\":2723:2741  _transferOwnership */\n      tag_84\n        /* \"@openzeppelin/contracts/access/Ownable.sol\":2723:2751  _transferOwnership(newOwner) */\n      jump\t// in\n    tag_142:\n        /* \"@openzeppelin/contracts/access/Ownable.sol\":2543:2758  function transferOwnership(address newOwner) public virtual onlyOwner {... */\n      pop\n      jump\t// out\n        /* \"@openzeppelin/contracts/access/Ownable.sol\":1796:1958  function _checkOwner() internal view virtual {... */\n    tag_46:\n        /* \"@openzeppelin/contracts/access/Ownable.sol\":1866:1878  _msgSender() */\n      tag_144\n        /* \"@openzeppelin/contracts/access/Ownable.sol\":1866:1876  _msgSender */\n      tag_145\n        /* \"@openzeppelin/contracts/access/Ownable.sol\":1866:1878  _msgSender() */\n      jump\t// in\n    tag_144:\n        /* \"@openzeppelin/contracts/access/Ownable.sol\":1855:1878  owner() != _msgSender() */\n      0xffffffffffffffffffffffffffffffffffffffff\n      and\n        /* \"@openzeppelin/contracts/access/Ownable.sol\":1855:1862  owner() */\n      tag_146\n        /* \"@openzeppelin/contracts/access/Ownable.sol\":1855:1860  owner */\n      tag_27\n        /* \"@openzeppelin/contracts/access/Ownable.sol\":1855:1862  owner() */\n      jump\t// in\n    tag_146:\n        /* \"@openzeppelin/contracts/access/Ownable.sol\":1855:1878  owner() != _msgSender() */\n      0xffffffffffffffffffffffffffffffffffffffff\n      and\n      eq\n        /* \"@openzeppelin/contracts/access/Ownable.sol\":1851:1952  if (owner() != _msgSender()) {... */\n      tag_147\n      jumpi\n        /* \"@openzeppelin/contracts/access/Ownable.sol\":1928:1940  _msgSender() */\n      tag_148\n        /* \"@openzeppelin/contracts/access/Ownable.sol\":1928:1938  _msgSender */\n      tag_145\n        /* \"@openzeppelin/contracts/access/Ownable.sol\":1928:1940  _msgSender() */\n      jump\t// in\n    tag_148:\n        /* \"@openzeppelin/contracts/access/Ownable.sol\":1901:1941  OwnableUnauthorizedAccount(_msgSender()) */\n      mload(0x40)\n      0x118cdaa700000000000000000000000000000000000000000000000000000000\n      dup2\n      mstore\n      0x04\n      add\n      tag_149\n      swap2\n      swap1\n      tag_29\n      jump\t// in\n    tag_149:\n      mload(0x40)\n      dup1\n      swap2\n      sub\n      swap1\n      revert\n        /* \"@openzeppelin/contracts/access/Ownable.sol\":1851:1952  if (owner() != _msgSender()) {... */\n    tag_147:\n        /* \"@openzeppelin/contracts/access/Ownable.sol\":1796:1958  function _checkOwner() internal view virtual {... */\n      jump\t// out\n        /* \"@openzeppelin/contracts/access/Ownable.sol\":2912:3099  function _transferOwnership(address newOwner) internal virtual {... */\n    tag_84:\n        /* \"@openzeppelin/contracts/access/Ownable.sol\":2985:3001  address oldOwner */\n      0x00\n        /* \"@openzeppelin/contracts/access/Ownable.sol\":3004:3010  _owner */\n      0x00\n      0x00\n      swap1\n      sload\n      swap1\n      0x0100\n      exp\n      swap1\n      div\n      0xffffffffffffffffffffffffffffffffffffffff\n      and\n        /* \"@openzeppelin/contracts/access/Ownable.sol\":2985:3010  address oldOwner = _owner */\n      swap1\n      pop\n        /* \"@openzeppelin/contracts/access/Ownable.sol\":3029:3037  newOwner */\n      dup2\n        /* \"@openzeppelin/contracts/access/Ownable.sol\":3020:3026  _owner */\n      0x00\n      0x00\n        /* \"@openzeppelin/contracts/access/Ownable.sol\":3020:3037  _owner = newOwner */\n      0x0100\n      exp\n      dup2\n      sload\n      dup2\n      0xffffffffffffffffffffffffffffffffffffffff\n      mul\n      not\n      and\n      swap1\n      dup4\n      0xffffffffffffffffffffffffffffffffffffffff\n      and\n      mul\n      or\n      swap1\n      sstore\n      pop\n        /* \"@openzeppelin/contracts/access/Ownable.sol\":3083:3091  newOwner */\n      dup2\n        /* \"@openzeppelin/contracts/access/Ownable.sol\":3052:3092  OwnershipTransferred(oldOwner, newOwner) */\n      0xffffffffffffffffffffffffffffffffffffffff\n      and\n        /* \"@openzeppelin/contracts/access/Ownable.sol\":3073:3081  oldOwner */\n      dup2\n        /* \"@openzeppelin/contracts/access/Ownable.sol\":3052:3092  OwnershipTransferred(oldOwner, newOwner) */\n      0xffffffffffffffffffffffffffffffffffffffff\n      and\n      0x8be0079c531659141344cd1fd0a4f28419497f9722a3daafe3b4186f6b6457e0\n      mload(0x40)\n      mload(0x40)\n      dup1\n      swap2\n      sub\n      swap1\n      log3\n        /* \"@openzeppelin/contracts/access/Ownable.sol\":2975:3099  {... */\n      pop\n        /* \"@openzeppelin/contracts/access/Ownable.sol\":2912:3099  function _transferOwnership(address newOwner) internal virtual {... */\n      pop\n      jump\t// out\n        /* \"@openzeppelin/contracts/utils/Context.sol\":656:752  function _msgSender() internal view virtual returns (address) {... */\n    tag_145:\n        /* \"@openzeppelin/contracts/utils/Context.sol\":709:716  address */\n      0x00\n        /* \"@openzeppelin/contracts/utils/Context.sol\":735:745  msg.sender */\n      caller\n        /* \"@openzeppelin/contracts/utils/Context.sol\":728:745  return msg.sender */\n      swap1\n      pop\n        /* \"@openzeppelin/contracts/utils/Context.sol\":656:752  function _msgSender() internal view virtual returns (address) {... */\n      swap1\n      jump\t// out\n    tag_87:\n      mload(0x40)\n      dup1\n      0x01c0\n      add\n      0x40\n      mstore\n      dup1\n      0x60\n      dup2\n      mstore\n      0x20\n      add\n      0x60\n      dup2\n      mstore\n      0x20\n      add\n      0x60\n      dup2\n      mstore\n      0x20\n      add\n      0x00\n      dup2\n      mstore\n      0x20\n      add\n      0x60\n      dup2\n      mstore\n      0x20\n      add\n      0x00\n      dup2\n      mstore\n      0x20\n      add\n      0x60\n      dup2\n      mstore\n      0x20\n      add\n      0x60\n      dup2\n      mstore\n      0x20\n      add\n      0x00\n      dup2\n      mstore\n      0x20\n      add\n      0x60\n      dup2\n      mstore\n      0x20\n      add\n      iszero(iszero(0x00))\n      dup2\n      mstore\n      0x20\n      add\n      0x60\n      dup2\n      mstore\n      0x20\n      add\n      0x60\n      dup2\n      mstore\n      0x20\n      add\n      0x00\n      dup2\n      mstore\n      pop\n      swap1\n      jump\t// out\n        /* \"#utility.yul\":7:82   */\n    tag_152:\n        /* \"#utility.yul\":40:46   */\n      0x00\n        /* \"#utility.yul\":73:75   */\n      0x40\n        /* \"#utility.yul\":67:76   */\n      mload\n        /* \"#utility.yul\":57:76   */\n      swap1\n      pop\n        /* \"#utility.yul\":7:82   */\n      swap1\n      jump\t// out\n        /* \"#utility.yul\":88:205   */\n    tag_153:\n        /* \"#utility.yul\":197:198   */\n      0x00\n        /* \"#utility.yul\":194:195   */\n      0x00\n        /* \"#utility.yul\":187:199   */\n      revert\n        /* \"#utility.yul\":211:328   */\n    tag_154:\n        /* \"#utility.yul\":320:321   */\n      0x00\n        /* \"#utility.yul\":317:318   */\n      0x00\n        /* \"#utility.yul\":310:322   */\n      revert\n        /* \"#utility.yul\":334:451   */\n    tag_155:\n        /* \"#utility.yul\":443:444   */\n      0x00\n        /* \"#utility.yul\":440:441   */\n      0x00\n        /* \"#utility.yul\":433:445   */\n      revert\n        /* \"#utility.yul\":457:574   */\n    tag_156:\n        /* \"#utility.yul\":566:567   */\n      0x00\n        /* \"#utility.yul\":563:564   */\n      0x00\n        /* \"#utility.yul\":556:568   */\n      revert\n        /* \"#utility.yul\":580:682   */\n    tag_157:\n        /* \"#utility.yul\":621:627   */\n      0x00\n        /* \"#utility.yul\":672:674   */\n      0x1f\n        /* \"#utility.yul\":668:675   */\n      not\n        /* \"#utility.yul\":663:665   */\n      0x1f\n        /* \"#utility.yul\":656:661   */\n      dup4\n        /* \"#utility.yul\":652:666   */\n      add\n        /* \"#utility.yul\":648:676   */\n      and\n        /* \"#utility.yul\":638:676   */\n      swap1\n      pop\n        /* \"#utility.yul\":580:682   */\n      swap2\n      swap1\n      pop\n      jump\t// out\n        /* \"#utility.yul\":688:868   */\n    tag_158:\n        /* \"#utility.yul\":736:813   */\n      0x4e487b7100000000000000000000000000000000000000000000000000000000\n        /* \"#utility.yul\":733:734   */\n      0x00\n        /* \"#utility.yul\":726:814   */\n      mstore\n        /* \"#utility.yul\":833:837   */\n      0x41\n        /* \"#utility.yul\":830:831   */\n      0x04\n        /* \"#utility.yul\":823:838   */\n      mstore\n        /* \"#utility.yul\":857:861   */\n      0x24\n        /* \"#utility.yul\":854:855   */\n      0x00\n        /* \"#utility.yul\":847:862   */\n      revert\n        /* \"#utility.yul\":874:1155   */\n    tag_159:\n        /* \"#utility.yul\":957:984   */\n      tag_225\n        /* \"#utility.yul\":979:983   */\n      dup3\n        /* \"#utility.yul\":957:984   */\n      tag_157\n      jump\t// in\n    tag_225:\n        /* \"#utility.yul\":949:955   */\n      dup2\n        /* \"#utility.yul\":945:985   */\n      add\n        /* \"#utility.yul\":1087:1093   */\n      dup2\n        /* \"#utility.yul\":1075:1085   */\n      dup2\n        /* \"#utility.yul\":1072:1094   */\n      lt\n        /* \"#utility.yul\":1051:1069   */\n      0xffffffffffffffff\n        /* \"#utility.yul\":1039:1049   */\n      dup3\n        /* \"#utility.yul\":1036:1070   */\n      gt\n        /* \"#utility.yul\":1033:1095   */\n      or\n        /* \"#utility.yul\":1030:1118   */\n      iszero\n      tag_226\n      jumpi\n        /* \"#utility.yul\":1098:1116   */\n      tag_227\n      tag_158\n      jump\t// in\n    tag_227:\n        /* \"#utility.yul\":1030:1118   */\n    tag_226:\n        /* \"#utility.yul\":1138:1148   */\n      dup1\n        /* \"#utility.yul\":1134:1136   */\n      0x40\n        /* \"#utility.yul\":1127:1149   */\n      mstore\n        /* \"#utility.yul\":917:1155   */\n      pop\n        /* \"#utility.yul\":874:1155   */\n      pop\n      pop\n      jump\t// out\n        /* \"#utility.yul\":1161:1290   */\n    tag_160:\n        /* \"#utility.yul\":1195:1201   */\n      0x00\n        /* \"#utility.yul\":1222:1242   */\n      tag_229\n      tag_152\n      jump\t// in\n    tag_229:\n        /* \"#utility.yul\":1212:1242   */\n      swap1\n      pop\n        /* \"#utility.yul\":1251:1284   */\n      tag_230\n        /* \"#utility.yul\":1279:1283   */\n      dup3\n        /* \"#utility.yul\":1271:1277   */\n      dup3\n        /* \"#utility.yul\":1251:1284   */\n      tag_159\n      jump\t// in\n    tag_230:\n        /* \"#utility.yul\":1161:1290   */\n      swap2\n      swap1\n      pop\n      jump\t// out\n        /* \"#utility.yul\":1296:1604   */\n    tag_161:\n        /* \"#utility.yul\":1358:1362   */\n      0x00\n        /* \"#utility.yul\":1448:1466   */\n      0xffffffffffffffff\n        /* \"#utility.yul\":1440:1446   */\n      dup3\n        /* \"#utility.yul\":1437:1467   */\n      gt\n        /* \"#utility.yul\":1434:1490   */\n      iszero\n      tag_232\n      jumpi\n        /* \"#utility.yul\":1470:1488   */\n      tag_233\n      tag_158\n      jump\t// in\n    tag_233:\n        /* \"#utility.yul\":1434:1490   */\n    tag_232:\n        /* \"#utility.yul\":1508:1537   */\n      tag_234\n        /* \"#utility.yul\":1530:1536   */\n      dup3\n        /* \"#utility.yul\":1508:1537   */\n      tag_157\n      jump\t// in\n    tag_234:\n        /* \"#utility.yul\":1500:1537   */\n      swap1\n      pop\n        /* \"#utility.yul\":1592:1596   */\n      0x20\n        /* \"#utility.yul\":1586:1590   */\n      dup2\n        /* \"#utility.yul\":1582:1597   */\n      add\n        /* \"#utility.yul\":1574:1597   */\n      swap1\n      pop\n        /* \"#utility.yul\":1296:1604   */\n      swap2\n      swap1\n      pop\n      jump\t// out\n        /* \"#utility.yul\":1610:1758   */\n    tag_162:\n        /* \"#utility.yul\":1708:1714   */\n      dup3\n        /* \"#utility.yul\":1703:1706   */\n      dup2\n        /* \"#utility.yul\":1698:1701   */\n      dup4\n        /* \"#utility.yul\":1685:1715   */\n      calldatacopy\n        /* \"#utility.yul\":1749:1750   */\n      0x00\n        /* \"#utility.yul\":1740:1746   */\n      dup4\n        /* \"#utility.yul\":1735:1738   */\n      dup4\n        /* \"#utility.yul\":1731:1747   */\n      add\n        /* \"#utility.yul\":1724:1751   */\n      mstore\n        /* \"#utility.yul\":1610:1758   */\n      pop\n      pop\n      pop\n      jump\t// out\n        /* \"#utility.yul\":1764:2189   */\n    tag_163:\n        /* \"#utility.yul\":1842:1847   */\n      0x00\n        /* \"#utility.yul\":1867:1933   */\n      tag_237\n        /* \"#utility.yul\":1883:1932   */\n      tag_238\n        /* \"#utility.yul\":1925:1931   */\n      dup5\n        /* \"#utility.yul\":1883:1932   */\n      tag_161\n      jump\t// in\n    tag_238:\n        /* \"#utility.yul\":1867:1933   */\n      tag_160\n      jump\t// in\n    tag_237:\n        /* \"#utility.yul\":1858:1933   */\n      swap1\n      pop\n        /* \"#utility.yul\":1956:1962   */\n      dup3\n        /* \"#utility.yul\":1949:1954   */\n      dup2\n        /* \"#utility.yul\":1942:1963   */\n      mstore\n        /* \"#utility.yul\":1994:1998   */\n      0x20\n        /* \"#utility.yul\":1987:1992   */\n      dup2\n        /* \"#utility.yul\":1983:1999   */\n      add\n        /* \"#utility.yul\":2032:2035   */\n      dup5\n        /* \"#utility.yul\":2023:2029   */\n      dup5\n        /* \"#utility.yul\":2018:2021   */\n      dup5\n        /* \"#utility.yul\":2014:2030   */\n      add\n        /* \"#utility.yul\":2011:2036   */\n      gt\n        /* \"#utility.yul\":2008:2120   */\n      iszero\n      tag_239\n      jumpi\n        /* \"#utility.yul\":2039:2118   */\n      tag_240\n      tag_156\n      jump\t// in\n    tag_240:\n        /* \"#utility.yul\":2008:2120   */\n    tag_239:\n        /* \"#utility.yul\":2129:2183   */\n      tag_241\n        /* \"#utility.yul\":2176:2182   */\n      dup5\n        /* \"#utility.yul\":2171:2174   */\n      dup3\n        /* \"#utility.yul\":2166:2169   */\n      dup6\n        /* \"#utility.yul\":2129:2183   */\n      tag_162\n      jump\t// in\n    tag_241:\n        /* \"#utility.yul\":1848:2189   */\n      pop\n        /* \"#utility.yul\":1764:2189   */\n      swap4\n      swap3\n      pop\n      pop\n      pop\n      jump\t// out\n        /* \"#utility.yul\":2209:2549   */\n    tag_164:\n        /* \"#utility.yul\":2265:2270   */\n      0x00\n        /* \"#utility.yul\":2314:2317   */\n      dup3\n        /* \"#utility.yul\":2307:2311   */\n      0x1f\n        /* \"#utility.yul\":2299:2305   */\n      dup4\n        /* \"#utility.yul\":2295:2312   */\n      add\n        /* \"#utility.yul\":2291:2318   */\n      slt\n        /* \"#utility.yul\":2281:2403   */\n      tag_243\n      jumpi\n        /* \"#utility.yul\":2322:2401   */\n      tag_244\n      tag_155\n      jump\t// in\n    tag_244:\n        /* \"#utility.yul\":2281:2403   */\n    tag_243:\n        /* \"#utility.yul\":2439:2445   */\n      dup2\n        /* \"#utility.yul\":2426:2446   */\n      calldataload\n        /* \"#utility.yul\":2464:2543   */\n      tag_245\n        /* \"#utility.yul\":2539:2542   */\n      dup5\n        /* \"#utility.yul\":2531:2537   */\n      dup3\n        /* \"#utility.yul\":2524:2528   */\n      0x20\n        /* \"#utility.yul\":2516:2522   */\n      dup7\n        /* \"#utility.yul\":2512:2529   */\n      add\n        /* \"#utility.yul\":2464:2543   */\n      tag_163\n      jump\t// in\n    tag_245:\n        /* \"#utility.yul\":2455:2543   */\n      swap2\n      pop\n        /* \"#utility.yul\":2271:2549   */\n      pop\n        /* \"#utility.yul\":2209:2549   */\n      swap3\n      swap2\n      pop\n      pop\n      jump\t// out\n        /* \"#utility.yul\":2555:3064   */\n    tag_13:\n        /* \"#utility.yul\":2624:2630   */\n      0x00\n        /* \"#utility.yul\":2673:2675   */\n      0x20\n        /* \"#utility.yul\":2661:2670   */\n      dup3\n        /* \"#utility.yul\":2652:2659   */\n      dup5\n        /* \"#utility.yul\":2648:2671   */\n      sub\n        /* \"#utility.yul\":2644:2676   */\n      slt\n        /* \"#utility.yul\":2641:2760   */\n      iszero\n      tag_247\n      jumpi\n        /* \"#utility.yul\":2679:2758   */\n      tag_248\n      tag_153\n      jump\t// in\n    tag_248:\n        /* \"#utility.yul\":2641:2760   */\n    tag_247:\n        /* \"#utility.yul\":2827:2828   */\n      0x00\n        /* \"#utility.yul\":2816:2825   */\n      dup3\n        /* \"#utility.yul\":2812:2829   */\n      add\n        /* \"#utility.yul\":2799:2830   */\n      calldataload\n        /* \"#utility.yul\":2857:2875   */\n      0xffffffffffffffff\n        /* \"#utility.yul\":2849:2855   */\n      dup2\n        /* \"#utility.yul\":2846:2876   */\n      gt\n        /* \"#utility.yul\":2843:2960   */\n      iszero\n      tag_249\n      jumpi\n        /* \"#utility.yul\":2879:2958   */\n      tag_250\n      tag_154\n      jump\t// in\n    tag_250:\n        /* \"#utility.yul\":2843:2960   */\n    tag_249:\n        /* \"#utility.yul\":2984:3047   */\n      tag_251\n        /* \"#utility.yul\":3039:3046   */\n      dup5\n        /* \"#utility.yul\":3030:3036   */\n      dup3\n        /* \"#utility.yul\":3019:3028   */\n      dup6\n        /* \"#utility.yul\":3015:3037   */\n      add\n        /* \"#utility.yul\":2984:3047   */\n      tag_164\n      jump\t// in\n    tag_251:\n        /* \"#utility.yul\":2974:3047   */\n      swap2\n      pop\n        /* \"#utility.yul\":2770:3057   */\n      pop\n        /* \"#utility.yul\":2555:3064   */\n      swap3\n      swap2\n      pop\n      pop\n      jump\t// out\n        /* \"#utility.yul\":3070:3160   */\n    tag_165:\n        /* \"#utility.yul\":3104:3111   */\n      0x00\n        /* \"#utility.yul\":3147:3152   */\n      dup2\n        /* \"#utility.yul\":3140:3153   */\n      iszero\n        /* \"#utility.yul\":3133:3154   */\n      iszero\n        /* \"#utility.yul\":3122:3154   */\n      swap1\n      pop\n        /* \"#utility.yul\":3070:3160   */\n      swap2\n      swap1\n      pop\n      jump\t// out\n        /* \"#utility.yul\":3166:3275   */\n    tag_166:\n        /* \"#utility.yul\":3247:3268   */\n      tag_254\n        /* \"#utility.yul\":3262:3267   */\n      dup2\n        /* \"#utility.yul\":3247:3268   */\n      tag_165\n      jump\t// in\n    tag_254:\n        /* \"#utility.yul\":3242:3245   */\n      dup3\n        /* \"#utility.yul\":3235:3269   */\n      mstore\n        /* \"#utility.yul\":3166:3275   */\n      pop\n      pop\n      jump\t// out\n        /* \"#utility.yul\":3281:3491   */\n    tag_16:\n        /* \"#utility.yul\":3368:3372   */\n      0x00\n        /* \"#utility.yul\":3406:3408   */\n      0x20\n        /* \"#utility.yul\":3395:3404   */\n      dup3\n        /* \"#utility.yul\":3391:3409   */\n      add\n        /* \"#utility.yul\":3383:3409   */\n      swap1\n      pop\n        /* \"#utility.yul\":3419:3484   */\n      tag_256\n        /* \"#utility.yul\":3481:3482   */\n      0x00\n        /* \"#utility.yul\":3470:3479   */\n      dup4\n        /* \"#utility.yul\":3466:3483   */\n      add\n        /* \"#utility.yul\":3457:3463   */\n      dup5\n        /* \"#utility.yul\":3419:3484   */\n      tag_166\n      jump\t// in\n    tag_256:\n        /* \"#utility.yul\":3281:3491   */\n      swap3\n      swap2\n      pop\n      pop\n      jump\t// out\n        /* \"#utility.yul\":3497:3614   */\n    tag_167:\n        /* \"#utility.yul\":3606:3607   */\n      0x00\n        /* \"#utility.yul\":3603:3604   */\n      0x00\n        /* \"#utility.yul\":3596:3608   */\n      revert\n        /* \"#utility.yul\":3620:3737   */\n    tag_168:\n        /* \"#utility.yul\":3729:3730   */\n      0x00\n        /* \"#utility.yul\":3726:3727   */\n      0x00\n        /* \"#utility.yul\":3719:3731   */\n      revert\n        /* \"#utility.yul\":3743:3820   */\n    tag_169:\n        /* \"#utility.yul\":3780:3787   */\n      0x00\n        /* \"#utility.yul\":3809:3814   */\n      dup2\n        /* \"#utility.yul\":3798:3814   */\n      swap1\n      pop\n        /* \"#utility.yul\":3743:3820   */\n      swap2\n      swap1\n      pop\n      jump\t// out\n        /* \"#utility.yul\":3826:3948   */\n    tag_170:\n        /* \"#utility.yul\":3899:3923   */\n      tag_261\n        /* \"#utility.yul\":3917:3922   */\n      dup2\n        /* \"#utility.yul\":3899:3923   */\n      tag_169\n      jump\t// in\n    tag_261:\n        /* \"#utility.yul\":3892:3897   */\n      dup2\n        /* \"#utility.yul\":3889:3924   */\n      eq\n        /* \"#utility.yul\":3879:3942   */\n      tag_262\n      jumpi\n        /* \"#utility.yul\":3938:3939   */\n      0x00\n        /* \"#utility.yul\":3935:3936   */\n      0x00\n        /* \"#utility.yul\":3928:3940   */\n      revert\n        /* \"#utility.yul\":3879:3942   */\n    tag_262:\n        /* \"#utility.yul\":3826:3948   */\n      pop\n      jump\t// out\n        /* \"#utility.yul\":3954:4093   */\n    tag_171:\n        /* \"#utility.yul\":4000:4005   */\n      0x00\n        /* \"#utility.yul\":4038:4044   */\n      dup2\n        /* \"#utility.yul\":4025:4045   */\n      calldataload\n        /* \"#utility.yul\":4016:4045   */\n      swap1\n      pop\n        /* \"#utility.yul\":4054:4087   */\n      tag_264\n        /* \"#utility.yul\":4081:4086   */\n      dup2\n        /* \"#utility.yul\":4054:4087   */\n      tag_170\n      jump\t// in\n    tag_264:\n        /* \"#utility.yul\":3954:4093   */\n      swap3\n      swap2\n      pop\n      pop\n      jump\t// out\n        /* \"#utility.yul\":4099:4215   */\n    tag_172:\n        /* \"#utility.yul\":4169:4190   */\n      tag_266\n        /* \"#utility.yul\":4184:4189   */\n      dup2\n        /* \"#utility.yul\":4169:4190   */\n      tag_165\n      jump\t// in\n    tag_266:\n        /* \"#utility.yul\":4162:4167   */\n      dup2\n        /* \"#utility.yul\":4159:4191   */\n      eq\n        /* \"#utility.yul\":4149:4209   */\n      tag_267\n      jumpi\n        /* \"#utility.yul\":4205:4206   */\n      0x00\n        /* \"#utility.yul\":4202:4203   */\n      0x00\n        /* \"#utility.yul\":4195:4207   */\n      revert\n        /* \"#utility.yul\":4149:4209   */\n    tag_267:\n        /* \"#utility.yul\":4099:4215   */\n      pop\n      jump\t// out\n        /* \"#utility.yul\":4221:4354   */\n    tag_173:\n        /* \"#utility.yul\":4264:4269   */\n      0x00\n        /* \"#utility.yul\":4302:4308   */\n      dup2\n        /* \"#utility.yul\":4289:4309   */\n      calldataload\n        /* \"#utility.yul\":4280:4309   */\n      swap1\n      pop\n        /* \"#utility.yul\":4318:4348   */\n      tag_269\n        /* \"#utility.yul\":4342:4347   */\n      dup2\n        /* \"#utility.yul\":4318:4348   */\n      tag_172\n      jump\t// in\n    tag_269:\n        /* \"#utility.yul\":4221:4354   */\n      swap3\n      swap2\n      pop\n      pop\n      jump\t// out\n        /* \"#utility.yul\":4396:8579   */\n    tag_174:\n        /* \"#utility.yul\":4475:4480   */\n      0x00\n        /* \"#utility.yul\":4519:4525   */\n      0x01c0\n        /* \"#utility.yul\":4507:4516   */\n      dup3\n        /* \"#utility.yul\":4502:4505   */\n      dup5\n        /* \"#utility.yul\":4498:4517   */\n      sub\n        /* \"#utility.yul\":4494:4526   */\n      slt\n        /* \"#utility.yul\":4491:4610   */\n      iszero\n      tag_271\n      jumpi\n        /* \"#utility.yul\":4529:4608   */\n      tag_272\n      tag_167\n      jump\t// in\n    tag_272:\n        /* \"#utility.yul\":4491:4610   */\n    tag_271:\n        /* \"#utility.yul\":4628:4651   */\n      tag_273\n        /* \"#utility.yul\":4644:4650   */\n      0x01c0\n        /* \"#utility.yul\":4628:4651   */\n      tag_160\n      jump\t// in\n    tag_273:\n        /* \"#utility.yul\":4619:4651   */\n      swap1\n      pop\n        /* \"#utility.yul\":4750:4751   */\n      0x00\n        /* \"#utility.yul\":4739:4748   */\n      dup3\n        /* \"#utility.yul\":4735:4752   */\n      add\n        /* \"#utility.yul\":4722:4753   */\n      calldataload\n        /* \"#utility.yul\":4780:4798   */\n      0xffffffffffffffff\n        /* \"#utility.yul\":4772:4778   */\n      dup2\n        /* \"#utility.yul\":4769:4799   */\n      gt\n        /* \"#utility.yul\":4766:4883   */\n      iszero\n      tag_274\n      jumpi\n        /* \"#utility.yul\":4802:4881   */\n      tag_275\n      tag_168\n      jump\t// in\n    tag_275:\n        /* \"#utility.yul\":4766:4883   */\n    tag_274:\n        /* \"#utility.yul\":4922:4981   */\n      tag_276\n        /* \"#utility.yul\":4977:4980   */\n      dup5\n        /* \"#utility.yul\":4968:4974   */\n      dup3\n        /* \"#utility.yul\":4957:4966   */\n      dup6\n        /* \"#utility.yul\":4953:4975   */\n      add\n        /* \"#utility.yul\":4922:4981   */\n      tag_164\n      jump\t// in\n    tag_276:\n        /* \"#utility.yul\":4915:4919   */\n      0x00\n        /* \"#utility.yul\":4908:4913   */\n      dup4\n        /* \"#utility.yul\":4904:4920   */\n      add\n        /* \"#utility.yul\":4897:4982   */\n      mstore\n        /* \"#utility.yul\":4661:4993   */\n      pop\n        /* \"#utility.yul\":5090:5092   */\n      0x20\n        /* \"#utility.yul\":5079:5088   */\n      dup3\n        /* \"#utility.yul\":5075:5093   */\n      add\n        /* \"#utility.yul\":5062:5094   */\n      calldataload\n        /* \"#utility.yul\":5121:5139   */\n      0xffffffffffffffff\n        /* \"#utility.yul\":5113:5119   */\n      dup2\n        /* \"#utility.yul\":5110:5140   */\n      gt\n        /* \"#utility.yul\":5107:5224   */\n      iszero\n      tag_277\n      jumpi\n        /* \"#utility.yul\":5143:5222   */\n      tag_278\n      tag_168\n      jump\t// in\n    tag_278:\n        /* \"#utility.yul\":5107:5224   */\n    tag_277:\n        /* \"#utility.yul\":5263:5322   */\n      tag_279\n        /* \"#utility.yul\":5318:5321   */\n      dup5\n        /* \"#utility.yul\":5309:5315   */\n      dup3\n        /* \"#utility.yul\":5298:5307   */\n      dup6\n        /* \"#utility.yul\":5294:5316   */\n      add\n        /* \"#utility.yul\":5263:5322   */\n      tag_164\n      jump\t// in\n    tag_279:\n        /* \"#utility.yul\":5256:5260   */\n      0x20\n        /* \"#utility.yul\":5249:5254   */\n      dup4\n        /* \"#utility.yul\":5245:5261   */\n      add\n        /* \"#utility.yul\":5238:5323   */\n      mstore\n        /* \"#utility.yul\":5003:5334   */\n      pop\n        /* \"#utility.yul\":5429:5431   */\n      0x40\n        /* \"#utility.yul\":5418:5427   */\n      dup3\n        /* \"#utility.yul\":5414:5432   */\n      add\n        /* \"#utility.yul\":5401:5433   */\n      calldataload\n        /* \"#utility.yul\":5460:5478   */\n      0xffffffffffffffff\n        /* \"#utility.yul\":5452:5458   */\n      dup2\n        /* \"#utility.yul\":5449:5479   */\n      gt\n        /* \"#utility.yul\":5446:5563   */\n      iszero\n      tag_280\n      jumpi\n        /* \"#utility.yul\":5482:5561   */\n      tag_281\n      tag_168\n      jump\t// in\n    tag_281:\n        /* \"#utility.yul\":5446:5563   */\n    tag_280:\n        /* \"#utility.yul\":5602:5661   */\n      tag_282\n        /* \"#utility.yul\":5657:5660   */\n      dup5\n        /* \"#utility.yul\":5648:5654   */\n      dup3\n        /* \"#utility.yul\":5637:5646   */\n      dup6\n        /* \"#utility.yul\":5633:5655   */\n      add\n        /* \"#utility.yul\":5602:5661   */\n      tag_164\n      jump\t// in\n    tag_282:\n        /* \"#utility.yul\":5595:5599   */\n      0x40\n        /* \"#utility.yul\":5588:5593   */\n      dup4\n        /* \"#utility.yul\":5584:5600   */\n      add\n        /* \"#utility.yul\":5577:5662   */\n      mstore\n        /* \"#utility.yul\":5344:5673   */\n      pop\n        /* \"#utility.yul\":5734:5736   */\n      0x60\n        /* \"#utility.yul\":5775:5824   */\n      tag_283\n        /* \"#utility.yul\":5820:5823   */\n      dup5\n        /* \"#utility.yul\":5811:5817   */\n      dup3\n        /* \"#utility.yul\":5800:5809   */\n      dup6\n        /* \"#utility.yul\":5796:5818   */\n      add\n        /* \"#utility.yul\":5775:5824   */\n      tag_171\n      jump\t// in\n    tag_283:\n        /* \"#utility.yul\":5768:5772   */\n      0x60\n        /* \"#utility.yul\":5761:5766   */\n      dup4\n        /* \"#utility.yul\":5757:5773   */\n      add\n        /* \"#utility.yul\":5750:5825   */\n      mstore\n        /* \"#utility.yul\":5683:5836   */\n      pop\n        /* \"#utility.yul\":5933:5936   */\n      0x80\n        /* \"#utility.yul\":5922:5931   */\n      dup3\n        /* \"#utility.yul\":5918:5937   */\n      add\n        /* \"#utility.yul\":5905:5938   */\n      calldataload\n        /* \"#utility.yul\":5965:5983   */\n      0xffffffffffffffff\n        /* \"#utility.yul\":5957:5963   */\n      dup2\n        /* \"#utility.yul\":5954:5984   */\n      gt\n        /* \"#utility.yul\":5951:6068   */\n      iszero\n      tag_284\n      jumpi\n        /* \"#utility.yul\":5987:6066   */\n      tag_285\n      tag_168\n      jump\t// in\n    tag_285:\n        /* \"#utility.yul\":5951:6068   */\n    tag_284:\n        /* \"#utility.yul\":6107:6166   */\n      tag_286\n        /* \"#utility.yul\":6162:6165   */\n      dup5\n        /* \"#utility.yul\":6153:6159   */\n      dup3\n        /* \"#utility.yul\":6142:6151   */\n      dup6\n        /* \"#utility.yul\":6138:6160   */\n      add\n        /* \"#utility.yul\":6107:6166   */\n      tag_164\n      jump\t// in\n    tag_286:\n        /* \"#utility.yul\":6100:6104   */\n      0x80\n        /* \"#utility.yul\":6093:6098   */\n      dup4\n        /* \"#utility.yul\":6089:6105   */\n      add\n        /* \"#utility.yul\":6082:6167   */\n      mstore\n        /* \"#utility.yul\":5846:6178   */\n      pop\n        /* \"#utility.yul\":6254:6257   */\n      0xa0\n        /* \"#utility.yul\":6296:6345   */\n      tag_287\n        /* \"#utility.yul\":6341:6344   */\n      dup5\n        /* \"#utility.yul\":6332:6338   */\n      dup3\n        /* \"#utility.yul\":6321:6330   */\n      dup6\n        /* \"#utility.yul\":6317:6339   */\n      add\n        /* \"#utility.yul\":6296:6345   */\n      tag_171\n      jump\t// in\n    tag_287:\n        /* \"#utility.yul\":6289:6293   */\n      0xa0\n        /* \"#utility.yul\":6282:6287   */\n      dup4\n        /* \"#utility.yul\":6278:6294   */\n      add\n        /* \"#utility.yul\":6271:6346   */\n      mstore\n        /* \"#utility.yul\":6188:6357   */\n      pop\n        /* \"#utility.yul\":6453:6456   */\n      0xc0\n        /* \"#utility.yul\":6442:6451   */\n      dup3\n        /* \"#utility.yul\":6438:6457   */\n      add\n        /* \"#utility.yul\":6425:6458   */\n      calldataload\n        /* \"#utility.yul\":6485:6503   */\n      0xffffffffffffffff\n        /* \"#utility.yul\":6477:6483   */\n      dup2\n        /* \"#utility.yul\":6474:6504   */\n      gt\n        /* \"#utility.yul\":6471:6588   */\n      iszero\n      tag_288\n      jumpi\n        /* \"#utility.yul\":6507:6586   */\n      tag_289\n      tag_168\n      jump\t// in\n    tag_289:\n        /* \"#utility.yul\":6471:6588   */\n    tag_288:\n        /* \"#utility.yul\":6627:6686   */\n      tag_290\n        /* \"#utility.yul\":6682:6685   */\n      dup5\n        /* \"#utility.yul\":6673:6679   */\n      dup3\n        /* \"#utility.yul\":6662:6671   */\n      dup6\n        /* \"#utility.yul\":6658:6680   */\n      add\n        /* \"#utility.yul\":6627:6686   */\n      tag_164\n      jump\t// in\n    tag_290:\n        /* \"#utility.yul\":6620:6624   */\n      0xc0\n        /* \"#utility.yul\":6613:6618   */\n      dup4\n        /* \"#utility.yul\":6609:6625   */\n      add\n        /* \"#utility.yul\":6602:6687   */\n      mstore\n        /* \"#utility.yul\":6367:6698   */\n      pop\n        /* \"#utility.yul\":6787:6790   */\n      0xe0\n        /* \"#utility.yul\":6776:6785   */\n      dup3\n        /* \"#utility.yul\":6772:6791   */\n      add\n        /* \"#utility.yul\":6759:6792   */\n      calldataload\n        /* \"#utility.yul\":6819:6837   */\n      0xffffffffffffffff\n        /* \"#utility.yul\":6811:6817   */\n      dup2\n        /* \"#utility.yul\":6808:6838   */\n      gt\n        /* \"#utility.yul\":6805:6922   */\n      iszero\n      tag_291\n      jumpi\n        /* \"#utility.yul\":6841:6920   */\n      tag_292\n      tag_168\n      jump\t// in\n    tag_292:\n        /* \"#utility.yul\":6805:6922   */\n    tag_291:\n        /* \"#utility.yul\":6961:7020   */\n      tag_293\n        /* \"#utility.yul\":7016:7019   */\n      dup5\n        /* \"#utility.yul\":7007:7013   */\n      dup3\n        /* \"#utility.yul\":6996:7005   */\n      dup6\n        /* \"#utility.yul\":6992:7014   */\n      add\n        /* \"#utility.yul\":6961:7020   */\n      tag_164\n      jump\t// in\n    tag_293:\n        /* \"#utility.yul\":6954:6958   */\n      0xe0\n        /* \"#utility.yul\":6947:6952   */\n      dup4\n        /* \"#utility.yul\":6943:6959   */\n      add\n        /* \"#utility.yul\":6936:7021   */\n      mstore\n        /* \"#utility.yul\":6708:7032   */\n      pop\n        /* \"#utility.yul\":7097:7100   */\n      0x0100\n        /* \"#utility.yul\":7141:7190   */\n      tag_294\n        /* \"#utility.yul\":7186:7189   */\n      dup5\n        /* \"#utility.yul\":7177:7183   */\n      dup3\n        /* \"#utility.yul\":7166:7175   */\n      dup6\n        /* \"#utility.yul\":7162:7184   */\n      add\n        /* \"#utility.yul\":7141:7190   */\n      tag_171\n      jump\t// in\n    tag_294:\n        /* \"#utility.yul\":7132:7138   */\n      0x0100\n        /* \"#utility.yul\":7125:7130   */\n      dup4\n        /* \"#utility.yul\":7121:7139   */\n      add\n        /* \"#utility.yul\":7114:7191   */\n      mstore\n        /* \"#utility.yul\":7042:7202   */\n      pop\n        /* \"#utility.yul\":7295:7298   */\n      0x0120\n        /* \"#utility.yul\":7284:7293   */\n      dup3\n        /* \"#utility.yul\":7280:7299   */\n      add\n        /* \"#utility.yul\":7267:7300   */\n      calldataload\n        /* \"#utility.yul\":7327:7345   */\n      0xffffffffffffffff\n        /* \"#utility.yul\":7319:7325   */\n      dup2\n        /* \"#utility.yul\":7316:7346   */\n      gt\n        /* \"#utility.yul\":7313:7430   */\n      iszero\n      tag_295\n      jumpi\n        /* \"#utility.yul\":7349:7428   */\n      tag_296\n      tag_168\n      jump\t// in\n    tag_296:\n        /* \"#utility.yul\":7313:7430   */\n    tag_295:\n        /* \"#utility.yul\":7471:7530   */\n      tag_297\n        /* \"#utility.yul\":7526:7529   */\n      dup5\n        /* \"#utility.yul\":7517:7523   */\n      dup3\n        /* \"#utility.yul\":7506:7515   */\n      dup6\n        /* \"#utility.yul\":7502:7524   */\n      add\n        /* \"#utility.yul\":7471:7530   */\n      tag_164\n      jump\t// in\n    tag_297:\n        /* \"#utility.yul\":7462:7468   */\n      0x0120\n        /* \"#utility.yul\":7455:7460   */\n      dup4\n        /* \"#utility.yul\":7451:7469   */\n      add\n        /* \"#utility.yul\":7444:7531   */\n      mstore\n        /* \"#utility.yul\":7212:7542   */\n      pop\n        /* \"#utility.yul\":7615:7618   */\n      0x0140\n        /* \"#utility.yul\":7659:7705   */\n      tag_298\n        /* \"#utility.yul\":7701:7704   */\n      dup5\n        /* \"#utility.yul\":7692:7698   */\n      dup3\n        /* \"#utility.yul\":7681:7690   */\n      dup6\n        /* \"#utility.yul\":7677:7699   */\n      add\n        /* \"#utility.yul\":7659:7705   */\n      tag_173\n      jump\t// in\n    tag_298:\n        /* \"#utility.yul\":7650:7656   */\n      0x0140\n        /* \"#utility.yul\":7643:7648   */\n      dup4\n        /* \"#utility.yul\":7639:7657   */\n      add\n        /* \"#utility.yul\":7632:7706   */\n      mstore\n        /* \"#utility.yul\":7552:7717   */\n      pop\n        /* \"#utility.yul\":7807:7810   */\n      0x0160\n        /* \"#utility.yul\":7796:7805   */\n      dup3\n        /* \"#utility.yul\":7792:7811   */\n      add\n        /* \"#utility.yul\":7779:7812   */\n      calldataload\n        /* \"#utility.yul\":7839:7857   */\n      0xffffffffffffffff\n        /* \"#utility.yul\":7831:7837   */\n      dup2\n        /* \"#utility.yul\":7828:7858   */\n      gt\n        /* \"#utility.yul\":7825:7942   */\n      iszero\n      tag_299\n      jumpi\n        /* \"#utility.yul\":7861:7940   */\n      tag_300\n      tag_168\n      jump\t// in\n    tag_300:\n        /* \"#utility.yul\":7825:7942   */\n    tag_299:\n        /* \"#utility.yul\":7983:8042   */\n      tag_301\n        /* \"#utility.yul\":8038:8041   */\n      dup5\n        /* \"#utility.yul\":8029:8035   */\n      dup3\n        /* \"#utility.yul\":8018:8027   */\n      dup6\n        /* \"#utility.yul\":8014:8036   */\n      add\n        /* \"#utility.yul\":7983:8042   */\n      tag_164\n      jump\t// in\n    tag_301:\n        /* \"#utility.yul\":7974:7980   */\n      0x0160\n        /* \"#utility.yul\":7967:7972   */\n      dup4\n        /* \"#utility.yul\":7963:7981   */\n      add\n        /* \"#utility.yul\":7956:8043   */\n      mstore\n        /* \"#utility.yul\":7727:8054   */\n      pop\n        /* \"#utility.yul\":8153:8156   */\n      0x0180\n        /* \"#utility.yul\":8142:8151   */\n      dup3\n        /* \"#utility.yul\":8138:8157   */\n      add\n        /* \"#utility.yul\":8125:8158   */\n      calldataload\n        /* \"#utility.yul\":8185:8203   */\n      0xffffffffffffffff\n        /* \"#utility.yul\":8177:8183   */\n      dup2\n        /* \"#utility.yul\":8174:8204   */\n      gt\n        /* \"#utility.yul\":8171:8288   */\n      iszero\n      tag_302\n      jumpi\n        /* \"#utility.yul\":8207:8286   */\n      tag_303\n      tag_168\n      jump\t// in\n    tag_303:\n        /* \"#utility.yul\":8171:8288   */\n    tag_302:\n        /* \"#utility.yul\":8329:8388   */\n      tag_304\n        /* \"#utility.yul\":8384:8387   */\n      dup5\n        /* \"#utility.yul\":8375:8381   */\n      dup3\n        /* \"#utility.yul\":8364:8373   */\n      dup6\n        /* \"#utility.yul\":8360:8382   */\n      add\n        /* \"#utility.yul\":8329:8388   */\n      tag_164\n      jump\t// in\n    tag_304:\n        /* \"#utility.yul\":8320:8326   */\n      0x0180\n        /* \"#utility.yul\":8313:8318   */\n      dup4\n        /* \"#utility.yul\":8309:8327   */\n      add\n        /* \"#utility.yul\":8302:8389   */\n      mstore\n        /* \"#utility.yul\":8064:8400   */\n      pop\n        /* \"#utility.yul\":8467:8470   */\n      0x01a0\n        /* \"#utility.yul\":8511:8560   */\n      tag_305\n        /* \"#utility.yul\":8556:8559   */\n      dup5\n        /* \"#utility.yul\":8547:8553   */\n      dup3\n        /* \"#utility.yul\":8536:8545   */\n      dup6\n        /* \"#utility.yul\":8532:8554   */\n      add\n        /* \"#utility.yul\":8511:8560   */\n      tag_171\n      jump\t// in\n    tag_305:\n        /* \"#utility.yul\":8502:8508   */\n      0x01a0\n        /* \"#utility.yul\":8495:8500   */\n      dup4\n        /* \"#utility.yul\":8491:8509   */\n      add\n        /* \"#utility.yul\":8484:8561   */\n      mstore\n        /* \"#utility.yul\":8410:8572   */\n      pop\n        /* \"#utility.yul\":4396:8579   */\n      swap3\n      swap2\n      pop\n      pop\n      jump\t// out\n        /* \"#utility.yul\":8585:9134   */\n    tag_19:\n        /* \"#utility.yul\":8674:8680   */\n      0x00\n        /* \"#utility.yul\":8723:8725   */\n      0x20\n        /* \"#utility.yul\":8711:8720   */\n      dup3\n        /* \"#utility.yul\":8702:8709   */\n      dup5\n        /* \"#utility.yul\":8698:8721   */\n      sub\n        /* \"#utility.yul\":8694:8726   */\n      slt\n        /* \"#utility.yul\":8691:8810   */\n      iszero\n      tag_307\n      jumpi\n        /* \"#utility.yul\":8729:8808   */\n      tag_308\n      tag_153\n      jump\t// in\n    tag_308:\n        /* \"#utility.yul\":8691:8810   */\n    tag_307:\n        /* \"#utility.yul\":8877:8878   */\n      0x00\n        /* \"#utility.yul\":8866:8875   */\n      dup3\n        /* \"#utility.yul\":8862:8879   */\n      add\n        /* \"#utility.yul\":8849:8880   */\n      calldataload\n        /* \"#utility.yul\":8907:8925   */\n      0xffffffffffffffff\n        /* \"#utility.yul\":8899:8905   */\n      dup2\n        /* \"#utility.yul\":8896:8926   */\n      gt\n        /* \"#utility.yul\":8893:9010   */\n      iszero\n      tag_309\n      jumpi\n        /* \"#utility.yul\":8929:9008   */\n      tag_310\n      tag_154\n      jump\t// in\n    tag_310:\n        /* \"#utility.yul\":8893:9010   */\n    tag_309:\n        /* \"#utility.yul\":9034:9117   */\n      tag_311\n        /* \"#utility.yul\":9109:9116   */\n      dup5\n        /* \"#utility.yul\":9100:9106   */\n      dup3\n        /* \"#utility.yul\":9089:9098   */\n      dup6\n        /* \"#utility.yul\":9085:9107   */\n      add\n        /* \"#utility.yul\":9034:9117   */\n      tag_174\n      jump\t// in\n    tag_311:\n        /* \"#utility.yul\":9024:9117   */\n      swap2\n      pop\n        /* \"#utility.yul\":8820:9127   */\n      pop\n        /* \"#utility.yul\":8585:9134   */\n      swap3\n      swap2\n      pop\n      pop\n      jump\t// out\n        /* \"#utility.yul\":9140:9266   */\n    tag_175:\n        /* \"#utility.yul\":9177:9184   */\n      0x00\n        /* \"#utility.yul\":9217:9259   */\n      0xffffffffffffffffffffffffffffffffffffffff\n        /* \"#utility.yul\":9210:9215   */\n      dup3\n        /* \"#utility.yul\":9206:9260   */\n      and\n        /* \"#utility.yul\":9195:9260   */\n      swap1\n      pop\n        /* \"#utility.yul\":9140:9266   */\n      swap2\n      swap1\n      pop\n      jump\t// out\n        /* \"#utility.yul\":9272:9368   */\n    tag_176:\n        /* \"#utility.yul\":9309:9316   */\n      0x00\n        /* \"#utility.yul\":9338:9362   */\n      tag_314\n        /* \"#utility.yul\":9356:9361   */\n      dup3\n        /* \"#utility.yul\":9338:9362   */\n      tag_175\n      jump\t// in\n    tag_314:\n        /* \"#utility.yul\":9327:9362   */\n      swap1\n      pop\n        /* \"#utility.yul\":9272:9368   */\n      swap2\n      swap1\n      pop\n      jump\t// out\n        /* \"#utility.yul\":9374:9492   */\n    tag_177:\n        /* \"#utility.yul\":9461:9485   */\n      tag_316\n        /* \"#utility.yul\":9479:9484   */\n      dup2\n        /* \"#utility.yul\":9461:9485   */\n      tag_176\n      jump\t// in\n    tag_316:\n        /* \"#utility.yul\":9456:9459   */\n      dup3\n        /* \"#utility.yul\":9449:9486   */\n      mstore\n        /* \"#utility.yul\":9374:9492   */\n      pop\n      pop\n      jump\t// out\n        /* \"#utility.yul\":9498:9720   */\n    tag_29:\n        /* \"#utility.yul\":9591:9595   */\n      0x00\n        /* \"#utility.yul\":9629:9631   */\n      0x20\n        /* \"#utility.yul\":9618:9627   */\n      dup3\n        /* \"#utility.yul\":9614:9632   */\n      add\n        /* \"#utility.yul\":9606:9632   */\n      swap1\n      pop\n        /* \"#utility.yul\":9642:9713   */\n      tag_318\n        /* \"#utility.yul\":9710:9711   */\n      0x00\n        /* \"#utility.yul\":9699:9708   */\n      dup4\n        /* \"#utility.yul\":9695:9712   */\n      add\n        /* \"#utility.yul\":9686:9692   */\n      dup5\n        /* \"#utility.yul\":9642:9713   */\n      tag_177\n      jump\t// in\n    tag_318:\n        /* \"#utility.yul\":9498:9720   */\n      swap3\n      swap2\n      pop\n      pop\n      jump\t// out\n        /* \"#utility.yul\":9726:9825   */\n    tag_178:\n        /* \"#utility.yul\":9778:9784   */\n      0x00\n        /* \"#utility.yul\":9812:9817   */\n      dup2\n        /* \"#utility.yul\":9806:9818   */\n      mload\n        /* \"#utility.yul\":9796:9818   */\n      swap1\n      pop\n        /* \"#utility.yul\":9726:9825   */\n      swap2\n      swap1\n      pop\n      jump\t// out\n        /* \"#utility.yul\":9831:9990   */\n    tag_179:\n        /* \"#utility.yul\":9905:9916   */\n      0x00\n        /* \"#utility.yul\":9939:9945   */\n      dup3\n        /* \"#utility.yul\":9934:9937   */\n      dup3\n        /* \"#utility.yul\":9927:9946   */\n      mstore\n        /* \"#utility.yul\":9979:9983   */\n      0x20\n        /* \"#utility.yul\":9974:9977   */\n      dup3\n        /* \"#utility.yul\":9970:9984   */\n      add\n        /* \"#utility.yul\":9955:9984   */\n      swap1\n      pop\n        /* \"#utility.yul\":9831:9990   */\n      swap3\n      swap2\n      pop\n      pop\n      jump\t// out\n        /* \"#utility.yul\":9996:10135   */\n    tag_180:\n        /* \"#utility.yul\":10085:10091   */\n      dup3\n        /* \"#utility.yul\":10080:10083   */\n      dup2\n        /* \"#utility.yul\":10075:10078   */\n      dup4\n        /* \"#utility.yul\":10069:10092   */\n      mcopy\n        /* \"#utility.yul\":10126:10127   */\n      0x00\n        /* \"#utility.yul\":10117:10123   */\n      dup4\n        /* \"#utility.yul\":10112:10115   */\n      dup4\n        /* \"#utility.yul\":10108:10124   */\n      add\n        /* \"#utility.yul\":10101:10128   */\n      mstore\n        /* \"#utility.yul\":9996:10135   */\n      pop\n      pop\n      pop\n      jump\t// out\n        /* \"#utility.yul\":10141:10498   */\n    tag_181:\n        /* \"#utility.yul\":10219:10222   */\n      0x00\n        /* \"#utility.yul\":10247:10286   */\n      tag_323\n        /* \"#utility.yul\":10280:10285   */\n      dup3\n        /* \"#utility.yul\":10247:10286   */\n      tag_178\n      jump\t// in\n    tag_323:\n        /* \"#utility.yul\":10302:10363   */\n      tag_324\n        /* \"#utility.yul\":10356:10362   */\n      dup2\n        /* \"#utility.yul\":10351:10354   */\n      dup6\n        /* \"#utility.yul\":10302:10363   */\n      tag_179\n      jump\t// in\n    tag_324:\n        /* \"#utility.yul\":10295:10363   */\n      swap4\n      pop\n        /* \"#utility.yul\":10372:10437   */\n      tag_325\n        /* \"#utility.yul\":10430:10436   */\n      dup2\n        /* \"#utility.yul\":10425:10428   */\n      dup6\n        /* \"#utility.yul\":10418:10422   */\n      0x20\n        /* \"#utility.yul\":10411:10416   */\n      dup7\n        /* \"#utility.yul\":10407:10423   */\n      add\n        /* \"#utility.yul\":10372:10437   */\n      tag_180\n      jump\t// in\n    tag_325:\n        /* \"#utility.yul\":10462:10491   */\n      tag_326\n        /* \"#utility.yul\":10484:10490   */\n      dup2\n        /* \"#utility.yul\":10462:10491   */\n      tag_157\n      jump\t// in\n    tag_326:\n        /* \"#utility.yul\":10457:10460   */\n      dup5\n        /* \"#utility.yul\":10453:10492   */\n      add\n        /* \"#utility.yul\":10446:10492   */\n      swap2\n      pop\n        /* \"#utility.yul\":10223:10498   */\n      pop\n        /* \"#utility.yul\":10141:10498   */\n      swap3\n      swap2\n      pop\n      pop\n      jump\t// out\n        /* \"#utility.yul\":10504:10612   */\n    tag_182:\n        /* \"#utility.yul\":10581:10605   */\n      tag_328\n        /* \"#utility.yul\":10599:10604   */\n      dup2\n        /* \"#utility.yul\":10581:10605   */\n      tag_169\n      jump\t// in\n    tag_328:\n        /* \"#utility.yul\":10576:10579   */\n      dup3\n        /* \"#utility.yul\":10569:10606   */\n      mstore\n        /* \"#utility.yul\":10504:10612   */\n      pop\n      pop\n      jump\t// out\n        /* \"#utility.yul\":10618:10717   */\n    tag_183:\n        /* \"#utility.yul\":10689:10710   */\n      tag_330\n        /* \"#utility.yul\":10704:10709   */\n      dup2\n        /* \"#utility.yul\":10689:10710   */\n      tag_165\n      jump\t// in\n    tag_330:\n        /* \"#utility.yul\":10684:10687   */\n      dup3\n        /* \"#utility.yul\":10677:10711   */\n      mstore\n        /* \"#utility.yul\":10618:10717   */\n      pop\n      pop\n      jump\t// out\n        /* \"#utility.yul\":10791:14202   */\n    tag_184:\n        /* \"#utility.yul\":10920:10923   */\n      0x00\n        /* \"#utility.yul\":10956:10962   */\n      0x01c0\n        /* \"#utility.yul\":10951:10954   */\n      dup4\n        /* \"#utility.yul\":10947:10963   */\n      add\n        /* \"#utility.yul\":11057:11061   */\n      0x00\n        /* \"#utility.yul\":11050:11055   */\n      dup4\n        /* \"#utility.yul\":11046:11062   */\n      add\n        /* \"#utility.yul\":11040:11063   */\n      mload\n        /* \"#utility.yul\":11110:11113   */\n      dup5\n        /* \"#utility.yul\":11104:11108   */\n      dup3\n        /* \"#utility.yul\":11100:11114   */\n      sub\n        /* \"#utility.yul\":11093:11097   */\n      0x00\n        /* \"#utility.yul\":11088:11091   */\n      dup7\n        /* \"#utility.yul\":11084:11098   */\n      add\n        /* \"#utility.yul\":11077:11115   */\n      mstore\n        /* \"#utility.yul\":11136:11209   */\n      tag_332\n        /* \"#utility.yul\":11204:11208   */\n      dup3\n        /* \"#utility.yul\":11190:11202   */\n      dup3\n        /* \"#utility.yul\":11136:11209   */\n      tag_181\n      jump\t// in\n    tag_332:\n        /* \"#utility.yul\":11128:11209   */\n      swap2\n      pop\n        /* \"#utility.yul\":10973:11220   */\n      pop\n        /* \"#utility.yul\":11312:11316   */\n      0x20\n        /* \"#utility.yul\":11305:11310   */\n      dup4\n        /* \"#utility.yul\":11301:11317   */\n      add\n        /* \"#utility.yul\":11295:11318   */\n      mload\n        /* \"#utility.yul\":11365:11368   */\n      dup5\n        /* \"#utility.yul\":11359:11363   */\n      dup3\n        /* \"#utility.yul\":11355:11369   */\n      sub\n        /* \"#utility.yul\":11348:11352   */\n      0x20\n        /* \"#utility.yul\":11343:11346   */\n      dup7\n        /* \"#utility.yul\":11339:11353   */\n      add\n        /* \"#utility.yul\":11332:11370   */\n      mstore\n        /* \"#utility.yul\":11391:11464   */\n      tag_333\n        /* \"#utility.yul\":11459:11463   */\n      dup3\n        /* \"#utility.yul\":11445:11457   */\n      dup3\n        /* \"#utility.yul\":11391:11464   */\n      tag_181\n      jump\t// in\n    tag_333:\n        /* \"#utility.yul\":11383:11464   */\n      swap2\n      pop\n        /* \"#utility.yul\":11230:11475   */\n      pop\n        /* \"#utility.yul\":11565:11569   */\n      0x40\n        /* \"#utility.yul\":11558:11563   */\n      dup4\n        /* \"#utility.yul\":11554:11570   */\n      add\n        /* \"#utility.yul\":11548:11571   */\n      mload\n        /* \"#utility.yul\":11618:11621   */\n      dup5\n        /* \"#utility.yul\":11612:11616   */\n      dup3\n        /* \"#utility.yul\":11608:11622   */\n      sub\n        /* \"#utility.yul\":11601:11605   */\n      0x40\n        /* \"#utility.yul\":11596:11599   */\n      dup7\n        /* \"#utility.yul\":11592:11606   */\n      add\n        /* \"#utility.yul\":11585:11623   */\n      mstore\n        /* \"#utility.yul\":11644:11717   */\n      tag_334\n        /* \"#utility.yul\":11712:11716   */\n      dup3\n        /* \"#utility.yul\":11698:11710   */\n      dup3\n        /* \"#utility.yul\":11644:11717   */\n      tag_181\n      jump\t// in\n    tag_334:\n        /* \"#utility.yul\":11636:11717   */\n      swap2\n      pop\n        /* \"#utility.yul\":11485:11728   */\n      pop\n        /* \"#utility.yul\":11812:11816   */\n      0x60\n        /* \"#utility.yul\":11805:11810   */\n      dup4\n        /* \"#utility.yul\":11801:11817   */\n      add\n        /* \"#utility.yul\":11795:11818   */\n      mload\n        /* \"#utility.yul\":11831:11894   */\n      tag_335\n        /* \"#utility.yul\":11888:11892   */\n      0x60\n        /* \"#utility.yul\":11883:11886   */\n      dup7\n        /* \"#utility.yul\":11879:11893   */\n      add\n        /* \"#utility.yul\":11865:11877   */\n      dup3\n        /* \"#utility.yul\":11831:11894   */\n      tag_182\n      jump\t// in\n    tag_335:\n        /* \"#utility.yul\":11738:11904   */\n      pop\n        /* \"#utility.yul\":11996:12000   */\n      0x80\n        /* \"#utility.yul\":11989:11994   */\n      dup4\n        /* \"#utility.yul\":11985:12001   */\n      add\n        /* \"#utility.yul\":11979:12002   */\n      mload\n        /* \"#utility.yul\":12049:12052   */\n      dup5\n        /* \"#utility.yul\":12043:12047   */\n      dup3\n        /* \"#utility.yul\":12039:12053   */\n      sub\n        /* \"#utility.yul\":12032:12036   */\n      0x80\n        /* \"#utility.yul\":12027:12030   */\n      dup7\n        /* \"#utility.yul\":12023:12037   */\n      add\n        /* \"#utility.yul\":12016:12054   */\n      mstore\n        /* \"#utility.yul\":12075:12148   */\n      tag_336\n        /* \"#utility.yul\":12143:12147   */\n      dup3\n        /* \"#utility.yul\":12129:12141   */\n      dup3\n        /* \"#utility.yul\":12075:12148   */\n      tag_181\n      jump\t// in\n    tag_336:\n        /* \"#utility.yul\":12067:12148   */\n      swap2\n      pop\n        /* \"#utility.yul\":11914:12159   */\n      pop\n        /* \"#utility.yul\":12258:12262   */\n      0xa0\n        /* \"#utility.yul\":12251:12256   */\n      dup4\n        /* \"#utility.yul\":12247:12263   */\n      add\n        /* \"#utility.yul\":12241:12264   */\n      mload\n        /* \"#utility.yul\":12277:12340   */\n      tag_337\n        /* \"#utility.yul\":12334:12338   */\n      0xa0\n        /* \"#utility.yul\":12329:12332   */\n      dup7\n        /* \"#utility.yul\":12325:12339   */\n      add\n        /* \"#utility.yul\":12311:12323   */\n      dup3\n        /* \"#utility.yul\":12277:12340   */\n      tag_182\n      jump\t// in\n    tag_337:\n        /* \"#utility.yul\":12169:12350   */\n      pop\n        /* \"#utility.yul\":12441:12445   */\n      0xc0\n        /* \"#utility.yul\":12434:12439   */\n      dup4\n        /* \"#utility.yul\":12430:12446   */\n      add\n        /* \"#utility.yul\":12424:12447   */\n      mload\n        /* \"#utility.yul\":12494:12497   */\n      dup5\n        /* \"#utility.yul\":12488:12492   */\n      dup3\n        /* \"#utility.yul\":12484:12498   */\n      sub\n        /* \"#utility.yul\":12477:12481   */\n      0xc0\n        /* \"#utility.yul\":12472:12475   */\n      dup7\n        /* \"#utility.yul\":12468:12482   */\n      add\n        /* \"#utility.yul\":12461:12499   */\n      mstore\n        /* \"#utility.yul\":12520:12593   */\n      tag_338\n        /* \"#utility.yul\":12588:12592   */\n      dup3\n        /* \"#utility.yul\":12574:12586   */\n      dup3\n        /* \"#utility.yul\":12520:12593   */\n      tag_181\n      jump\t// in\n    tag_338:\n        /* \"#utility.yul\":12512:12593   */\n      swap2\n      pop\n        /* \"#utility.yul\":12360:12604   */\n      pop\n        /* \"#utility.yul\":12688:12692   */\n      0xe0\n        /* \"#utility.yul\":12681:12686   */\n      dup4\n        /* \"#utility.yul\":12677:12693   */\n      add\n        /* \"#utility.yul\":12671:12694   */\n      mload\n        /* \"#utility.yul\":12741:12744   */\n      dup5\n        /* \"#utility.yul\":12735:12739   */\n      dup3\n        /* \"#utility.yul\":12731:12745   */\n      sub\n        /* \"#utility.yul\":12724:12728   */\n      0xe0\n        /* \"#utility.yul\":12719:12722   */\n      dup7\n        /* \"#utility.yul\":12715:12729   */\n      add\n        /* \"#utility.yul\":12708:12746   */\n      mstore\n        /* \"#utility.yul\":12767:12840   */\n      tag_339\n        /* \"#utility.yul\":12835:12839   */\n      dup3\n        /* \"#utility.yul\":12821:12833   */\n      dup3\n        /* \"#utility.yul\":12767:12840   */\n      tag_181\n      jump\t// in\n    tag_339:\n        /* \"#utility.yul\":12759:12840   */\n      swap2\n      pop\n        /* \"#utility.yul\":12614:12851   */\n      pop\n        /* \"#utility.yul\":12939:12945   */\n      0x0100\n        /* \"#utility.yul\":12932:12937   */\n      dup4\n        /* \"#utility.yul\":12928:12946   */\n      add\n        /* \"#utility.yul\":12922:12947   */\n      mload\n        /* \"#utility.yul\":12960:13025   */\n      tag_340\n        /* \"#utility.yul\":13017:13023   */\n      0x0100\n        /* \"#utility.yul\":13012:13015   */\n      dup7\n        /* \"#utility.yul\":13008:13024   */\n      add\n        /* \"#utility.yul\":12994:13006   */\n      dup3\n        /* \"#utility.yul\":12960:13025   */\n      tag_182\n      jump\t// in\n    tag_340:\n        /* \"#utility.yul\":12861:13035   */\n      pop\n        /* \"#utility.yul\":13123:13129   */\n      0x0120\n        /* \"#utility.yul\":13116:13121   */\n      dup4\n        /* \"#utility.yul\":13112:13130   */\n      add\n        /* \"#utility.yul\":13106:13131   */\n      mload\n        /* \"#utility.yul\":13180:13183   */\n      dup5\n        /* \"#utility.yul\":13174:13178   */\n      dup3\n        /* \"#utility.yul\":13170:13184   */\n      sub\n        /* \"#utility.yul\":13161:13167   */\n      0x0120\n        /* \"#utility.yul\":13156:13159   */\n      dup7\n        /* \"#utility.yul\":13152:13168   */\n      add\n        /* \"#utility.yul\":13145:13185   */\n      mstore\n        /* \"#utility.yul\":13206:13279   */\n      tag_341\n        /* \"#utility.yul\":13274:13278   */\n      dup3\n        /* \"#utility.yul\":13260:13272   */\n      dup3\n        /* \"#utility.yul\":13206:13279   */\n      tag_181\n      jump\t// in\n    tag_341:\n        /* \"#utility.yul\":13198:13279   */\n      swap2\n      pop\n        /* \"#utility.yul\":13045:13290   */\n      pop\n        /* \"#utility.yul\":13386:13392   */\n      0x0140\n        /* \"#utility.yul\":13379:13384   */\n      dup4\n        /* \"#utility.yul\":13375:13393   */\n      add\n        /* \"#utility.yul\":13369:13394   */\n      mload\n        /* \"#utility.yul\":13407:13466   */\n      tag_342\n        /* \"#utility.yul\":13458:13464   */\n      0x0140\n        /* \"#utility.yul\":13453:13456   */\n      dup7\n        /* \"#utility.yul\":13449:13465   */\n      add\n        /* \"#utility.yul\":13435:13447   */\n      dup3\n        /* \"#utility.yul\":13407:13466   */\n      tag_183\n      jump\t// in\n    tag_342:\n        /* \"#utility.yul\":13300:13476   */\n      pop\n        /* \"#utility.yul\":13561:13567   */\n      0x0160\n        /* \"#utility.yul\":13554:13559   */\n      dup4\n        /* \"#utility.yul\":13550:13568   */\n      add\n        /* \"#utility.yul\":13544:13569   */\n      mload\n        /* \"#utility.yul\":13618:13621   */\n      dup5\n        /* \"#utility.yul\":13612:13616   */\n      dup3\n        /* \"#utility.yul\":13608:13622   */\n      sub\n        /* \"#utility.yul\":13599:13605   */\n      0x0160\n        /* \"#utility.yul\":13594:13597   */\n      dup7\n        /* \"#utility.yul\":13590:13606   */\n      add\n        /* \"#utility.yul\":13583:13623   */\n      mstore\n        /* \"#utility.yul\":13644:13717   */\n      tag_343\n        /* \"#utility.yul\":13712:13716   */\n      dup3\n        /* \"#utility.yul\":13698:13710   */\n      dup3\n        /* \"#utility.yul\":13644:13717   */\n      tag_181\n      jump\t// in\n    tag_343:\n        /* \"#utility.yul\":13636:13717   */\n      swap2\n      pop\n        /* \"#utility.yul\":13486:13728   */\n      pop\n        /* \"#utility.yul\":13822:13828   */\n      0x0180\n        /* \"#utility.yul\":13815:13820   */\n      dup4\n        /* \"#utility.yul\":13811:13829   */\n      add\n        /* \"#utility.yul\":13805:13830   */\n      mload\n        /* \"#utility.yul\":13879:13882   */\n      dup5\n        /* \"#utility.yul\":13873:13877   */\n      dup3\n        /* \"#utility.yul\":13869:13883   */\n      sub\n        /* \"#utility.yul\":13860:13866   */\n      0x0180\n        /* \"#utility.yul\":13855:13858   */\n      dup7\n        /* \"#utility.yul\":13851:13867   */\n      add\n        /* \"#utility.yul\":13844:13884   */\n      mstore\n        /* \"#utility.yul\":13905:13978   */\n      tag_344\n        /* \"#utility.yul\":13973:13977   */\n      dup3\n        /* \"#utility.yul\":13959:13971   */\n      dup3\n        /* \"#utility.yul\":13905:13978   */\n      tag_181\n      jump\t// in\n    tag_344:\n        /* \"#utility.yul\":13897:13978   */\n      swap2\n      pop\n        /* \"#utility.yul\":13738:13989   */\n      pop\n        /* \"#utility.yul\":14079:14085   */\n      0x01a0\n        /* \"#utility.yul\":14072:14077   */\n      dup4\n        /* \"#utility.yul\":14068:14086   */\n      add\n        /* \"#utility.yul\":14062:14087   */\n      mload\n        /* \"#utility.yul\":14100:14165   */\n      tag_345\n        /* \"#utility.yul\":14157:14163   */\n      0x01a0\n        /* \"#utility.yul\":14152:14155   */\n      dup7\n        /* \"#utility.yul\":14148:14164   */\n      add\n        /* \"#utility.yul\":14134:14146   */\n      dup3\n        /* \"#utility.yul\":14100:14165   */\n      tag_182\n      jump\t// in\n    tag_345:\n        /* \"#utility.yul\":13999:14175   */\n      pop\n        /* \"#utility.yul\":14192:14196   */\n      dup1\n        /* \"#utility.yul\":14185:14196   */\n      swap2\n      pop\n        /* \"#utility.yul\":10925:14202   */\n      pop\n        /* \"#utility.yul\":10791:14202   */\n      swap3\n      swap2\n      pop\n      pop\n      jump\t// out\n        /* \"#utility.yul\":14208:14601   */\n    tag_34:\n        /* \"#utility.yul\":14361:14365   */\n      0x00\n        /* \"#utility.yul\":14399:14401   */\n      0x20\n        /* \"#utility.yul\":14388:14397   */\n      dup3\n        /* \"#utility.yul\":14384:14402   */\n      add\n        /* \"#utility.yul\":14376:14402   */\n      swap1\n      pop\n        /* \"#utility.yul\":14448:14457   */\n      dup2\n        /* \"#utility.yul\":14442:14446   */\n      dup2\n        /* \"#utility.yul\":14438:14458   */\n      sub\n        /* \"#utility.yul\":14434:14435   */\n      0x00\n        /* \"#utility.yul\":14423:14432   */\n      dup4\n        /* \"#utility.yul\":14419:14436   */\n      add\n        /* \"#utility.yul\":14412:14459   */\n      mstore\n        /* \"#utility.yul\":14476:14594   */\n      tag_347\n        /* \"#utility.yul\":14589:14593   */\n      dup2\n        /* \"#utility.yul\":14580:14586   */\n      dup5\n        /* \"#utility.yul\":14476:14594   */\n      tag_184\n      jump\t// in\n    tag_347:\n        /* \"#utility.yul\":14468:14594   */\n      swap1\n      pop\n        /* \"#utility.yul\":14208:14601   */\n      swap3\n      swap2\n      pop\n      pop\n      jump\t// out\n        /* \"#utility.yul\":14607:14729   */\n    tag_185:\n        /* \"#utility.yul\":14680:14704   */\n      tag_349\n        /* \"#utility.yul\":14698:14703   */\n      dup2\n        /* \"#utility.yul\":14680:14704   */\n      tag_176\n      jump\t// in\n    tag_349:\n        /* \"#utility.yul\":14673:14678   */\n      dup2\n        /* \"#utility.yul\":14670:14705   */\n      eq\n        /* \"#utility.yul\":14660:14723   */\n      tag_350\n      jumpi\n        /* \"#utility.yul\":14719:14720   */\n      0x00\n        /* \"#utility.yul\":14716:14717   */\n      0x00\n        /* \"#utility.yul\":14709:14721   */\n      revert\n        /* \"#utility.yul\":14660:14723   */\n    tag_350:\n        /* \"#utility.yul\":14607:14729   */\n      pop\n      jump\t// out\n        /* \"#utility.yul\":14735:14874   */\n    tag_186:\n        /* \"#utility.yul\":14781:14786   */\n      0x00\n        /* \"#utility.yul\":14819:14825   */\n      dup2\n        /* \"#utility.yul\":14806:14826   */\n      calldataload\n        /* \"#utility.yul\":14797:14826   */\n      swap1\n      pop\n        /* \"#utility.yul\":14835:14868   */\n      tag_352\n        /* \"#utility.yul\":14862:14867   */\n      dup2\n        /* \"#utility.yul\":14835:14868   */\n      tag_185\n      jump\t// in\n    tag_352:\n        /* \"#utility.yul\":14735:14874   */\n      swap3\n      swap2\n      pop\n      pop\n      jump\t// out\n        /* \"#utility.yul\":14880:15209   */\n    tag_37:\n        /* \"#utility.yul\":14939:14945   */\n      0x00\n        /* \"#utility.yul\":14988:14990   */\n      0x20\n        /* \"#utility.yul\":14976:14985   */\n      dup3\n        /* \"#utility.yul\":14967:14974   */\n      dup5\n        /* \"#utility.yul\":14963:14986   */\n      sub\n        /* \"#utility.yul\":14959:14991   */\n      slt\n        /* \"#utility.yul\":14956:15075   */\n      iszero\n      tag_354\n      jumpi\n        /* \"#utility.yul\":14994:15073   */\n      tag_355\n      tag_153\n      jump\t// in\n    tag_355:\n        /* \"#utility.yul\":14956:15075   */\n    tag_354:\n        /* \"#utility.yul\":15114:15115   */\n      0x00\n        /* \"#utility.yul\":15139:15192   */\n      tag_356\n        /* \"#utility.yul\":15184:15191   */\n      dup5\n        /* \"#utility.yul\":15175:15181   */\n      dup3\n        /* \"#utility.yul\":15164:15173   */\n      dup6\n        /* \"#utility.yul\":15160:15182   */\n      add\n        /* \"#utility.yul\":15139:15192   */\n      tag_186\n      jump\t// in\n    tag_356:\n        /* \"#utility.yul\":15129:15192   */\n      swap2\n      pop\n        /* \"#utility.yul\":15085:15202   */\n      pop\n        /* \"#utility.yul\":14880:15209   */\n      swap3\n      swap2\n      pop\n      pop\n      jump\t// out\n        /* \"#utility.yul\":15215:15363   */\n    tag_187:\n        /* \"#utility.yul\":15317:15328   */\n      0x00\n        /* \"#utility.yul\":15354:15357   */\n      dup2\n        /* \"#utility.yul\":15339:15357   */\n      swap1\n      pop\n        /* \"#utility.yul\":15215:15363   */\n      swap3\n      swap2\n      pop\n      pop\n      jump\t// out\n        /* \"#utility.yul\":15369:15759   */\n    tag_188:\n        /* \"#utility.yul\":15475:15478   */\n      0x00\n        /* \"#utility.yul\":15503:15542   */\n      tag_359\n        /* \"#utility.yul\":15536:15541   */\n      dup3\n        /* \"#utility.yul\":15503:15542   */\n      tag_178\n      jump\t// in\n    tag_359:\n        /* \"#utility.yul\":15558:15647   */\n      tag_360\n        /* \"#utility.yul\":15640:15646   */\n      dup2\n        /* \"#utility.yul\":15635:15638   */\n      dup6\n        /* \"#utility.yul\":15558:15647   */\n      tag_187\n      jump\t// in\n    tag_360:\n        /* \"#utility.yul\":15551:15647   */\n      swap4\n      pop\n        /* \"#utility.yul\":15656:15721   */\n      tag_361\n        /* \"#utility.yul\":15714:15720   */\n      dup2\n        /* \"#utility.yul\":15709:15712   */\n      dup6\n        /* \"#utility.yul\":15702:15706   */\n      0x20\n        /* \"#utility.yul\":15695:15700   */\n      dup7\n        /* \"#utility.yul\":15691:15707   */\n      add\n        /* \"#utility.yul\":15656:15721   */\n      tag_180\n      jump\t// in\n    tag_361:\n        /* \"#utility.yul\":15746:15752   */\n      dup1\n        /* \"#utility.yul\":15741:15744   */\n      dup5\n        /* \"#utility.yul\":15737:15753   */\n      add\n        /* \"#utility.yul\":15730:15753   */\n      swap2\n      pop\n        /* \"#utility.yul\":15479:15759   */\n      pop\n        /* \"#utility.yul\":15369:15759   */\n      swap3\n      swap2\n      pop\n      pop\n      jump\t// out\n        /* \"#utility.yul\":15765:16040   */\n    tag_41:\n        /* \"#utility.yul\":15897:15900   */\n      0x00\n        /* \"#utility.yul\":15919:16014   */\n      tag_363\n        /* \"#utility.yul\":16010:16013   */\n      dup3\n        /* \"#utility.yul\":16001:16007   */\n      dup5\n        /* \"#utility.yul\":15919:16014   */\n      tag_188\n      jump\t// in\n    tag_363:\n        /* \"#utility.yul\":15912:16014   */\n      swap2\n      pop\n        /* \"#utility.yul\":16031:16034   */\n      dup2\n        /* \"#utility.yul\":16024:16034   */\n      swap1\n      pop\n        /* \"#utility.yul\":15765:16040   */\n      swap3\n      swap2\n      pop\n      pop\n      jump\t// out\n        /* \"#utility.yul\":16046:16226   */\n    tag_189:\n        /* \"#utility.yul\":16094:16171   */\n      0x4e487b7100000000000000000000000000000000000000000000000000000000\n        /* \"#utility.yul\":16091:16092   */\n      0x00\n        /* \"#utility.yul\":16084:16172   */\n      mstore\n        /* \"#utility.yul\":16191:16195   */\n      0x22\n        /* \"#utility.yul\":16188:16189   */\n      0x04\n        /* \"#utility.yul\":16181:16196   */\n      mstore\n        /* \"#utility.yul\":16215:16219   */\n      0x24\n        /* \"#utility.yul\":16212:16213   */\n      0x00\n        /* \"#utility.yul\":16205:16220   */\n      revert\n        /* \"#utility.yul\":16232:16552   */\n    tag_43:\n        /* \"#utility.yul\":16276:16282   */\n      0x00\n        /* \"#utility.yul\":16313:16314   */\n      0x02\n        /* \"#utility.yul\":16307:16311   */\n      dup3\n        /* \"#utility.yul\":16303:16315   */\n      div\n        /* \"#utility.yul\":16293:16315   */\n      swap1\n      pop\n        /* \"#utility.yul\":16360:16361   */\n      0x01\n        /* \"#utility.yul\":16354:16358   */\n      dup3\n        /* \"#utility.yul\":16350:16362   */\n      and\n        /* \"#utility.yul\":16381:16399   */\n      dup1\n        /* \"#utility.yul\":16371:16452   */\n      tag_366\n      jumpi\n        /* \"#utility.yul\":16437:16441   */\n      0x7f\n        /* \"#utility.yul\":16429:16435   */\n      dup3\n        /* \"#utility.yul\":16425:16442   */\n      and\n        /* \"#utility.yul\":16415:16442   */\n      swap2\n      pop\n        /* \"#utility.yul\":16371:16452   */\n    tag_366:\n        /* \"#utility.yul\":16499:16501   */\n      0x20\n        /* \"#utility.yul\":16491:16497   */\n      dup3\n        /* \"#utility.yul\":16488:16502   */\n      lt\n        /* \"#utility.yul\":16468:16486   */\n      dup2\n        /* \"#utility.yul\":16465:16503   */\n      sub\n        /* \"#utility.yul\":16462:16546   */\n      tag_367\n      jumpi\n        /* \"#utility.yul\":16518:16536   */\n      tag_368\n      tag_189\n      jump\t// in\n    tag_368:\n        /* \"#utility.yul\":16462:16546   */\n    tag_367:\n        /* \"#utility.yul\":16283:16552   */\n      pop\n        /* \"#utility.yul\":16232:16552   */\n      swap2\n      swap1\n      pop\n      jump\t// out\n        /* \"#utility.yul\":16558:16727   */\n    tag_190:\n        /* \"#utility.yul\":16642:16653   */\n      0x00\n        /* \"#utility.yul\":16676:16682   */\n      dup3\n        /* \"#utility.yul\":16671:16674   */\n      dup3\n        /* \"#utility.yul\":16664:16683   */\n      mstore\n        /* \"#utility.yul\":16716:16720   */\n      0x20\n        /* \"#utility.yul\":16711:16714   */\n      dup3\n        /* \"#utility.yul\":16707:16721   */\n      add\n        /* \"#utility.yul\":16692:16721   */\n      swap1\n      pop\n        /* \"#utility.yul\":16558:16727   */\n      swap3\n      swap2\n      pop\n      pop\n      jump\t// out\n        /* \"#utility.yul\":16733:16906   */\n    tag_191:\n        /* \"#utility.yul\":16873:16898   */\n      0x5472616e73616374696f6e204944207265717569726564000000000000000000\n        /* \"#utility.yul\":16869:16870   */\n      0x00\n        /* \"#utility.yul\":16861:16867   */\n      dup3\n        /* \"#utility.yul\":16857:16871   */\n      add\n        /* \"#utility.yul\":16850:16899   */\n      mstore\n        /* \"#utility.yul\":16733:16906   */\n      pop\n      jump\t// out\n        /* \"#utility.yul\":16912:17278   */\n    tag_192:\n        /* \"#utility.yul\":17054:17057   */\n      0x00\n        /* \"#utility.yul\":17075:17142   */\n      tag_372\n        /* \"#utility.yul\":17139:17141   */\n      0x17\n        /* \"#utility.yul\":17134:17137   */\n      dup4\n        /* \"#utility.yul\":17075:17142   */\n      tag_190\n      jump\t// in\n    tag_372:\n        /* \"#utility.yul\":17068:17142   */\n      swap2\n      pop\n        /* \"#utility.yul\":17151:17244   */\n      tag_373\n        /* \"#utility.yul\":17240:17243   */\n      dup3\n        /* \"#utility.yul\":17151:17244   */\n      tag_191\n      jump\t// in\n    tag_373:\n        /* \"#utility.yul\":17269:17271   */\n      0x20\n        /* \"#utility.yul\":17264:17267   */\n      dup3\n        /* \"#utility.yul\":17260:17272   */\n      add\n        /* \"#utility.yul\":17253:17272   */\n      swap1\n      pop\n        /* \"#utility.yul\":16912:17278   */\n      swap2\n      swap1\n      pop\n      jump\t// out\n        /* \"#utility.yul\":17284:17703   */\n    tag_50:\n        /* \"#utility.yul\":17450:17454   */\n      0x00\n        /* \"#utility.yul\":17488:17490   */\n      0x20\n        /* \"#utility.yul\":17477:17486   */\n      dup3\n        /* \"#utility.yul\":17473:17491   */\n      add\n        /* \"#utility.yul\":17465:17491   */\n      swap1\n      pop\n        /* \"#utility.yul\":17537:17546   */\n      dup2\n        /* \"#utility.yul\":17531:17535   */\n      dup2\n        /* \"#utility.yul\":17527:17547   */\n      sub\n        /* \"#utility.yul\":17523:17524   */\n      0x00\n        /* \"#utility.yul\":17512:17521   */\n      dup4\n        /* \"#utility.yul\":17508:17525   */\n      add\n        /* \"#utility.yul\":17501:17548   */\n      mstore\n        /* \"#utility.yul\":17565:17696   */\n      tag_375\n        /* \"#utility.yul\":17691:17695   */\n      dup2\n        /* \"#utility.yul\":17565:17696   */\n      tag_192\n      jump\t// in\n    tag_375:\n        /* \"#utility.yul\":17557:17696   */\n      swap1\n      pop\n        /* \"#utility.yul\":17284:17703   */\n      swap2\n      swap1\n      pop\n      jump\t// out\n        /* \"#utility.yul\":17709:17891   */\n    tag_193:\n        /* \"#utility.yul\":17849:17883   */\n      0x416d6f756e74206d7573742062652067726561746572207468616e207a65726f\n        /* \"#utility.yul\":17845:17846   */\n      0x00\n        /* \"#utility.yul\":17837:17843   */\n      dup3\n        /* \"#utility.yul\":17833:17847   */\n      add\n        /* \"#utility.yul\":17826:17884   */\n      mstore\n        /* \"#utility.yul\":17709:17891   */\n      pop\n      jump\t// out\n        /* \"#utility.yul\":17897:18263   */\n    tag_194:\n        /* \"#utility.yul\":18039:18042   */\n      0x00\n        /* \"#utility.yul\":18060:18127   */\n      tag_378\n        /* \"#utility.yul\":18124:18126   */\n      0x20\n        /* \"#utility.yul\":18119:18122   */\n      dup4\n        /* \"#utility.yul\":18060:18127   */\n      tag_190\n      jump\t// in\n    tag_378:\n        /* \"#utility.yul\":18053:18127   */\n      swap2\n      pop\n        /* \"#utility.yul\":18136:18229   */\n      tag_379\n        /* \"#utility.yul\":18225:18228   */\n      dup3\n        /* \"#utility.yul\":18136:18229   */\n      tag_193\n      jump\t// in\n    tag_379:\n        /* \"#utility.yul\":18254:18256   */\n      0x20\n        /* \"#utility.yul\":18249:18252   */\n      dup3\n        /* \"#utility.yul\":18245:18257   */\n      add\n        /* \"#utility.yul\":18238:18257   */\n      swap1\n      pop\n        /* \"#utility.yul\":17897:18263   */\n      swap2\n      swap1\n      pop\n      jump\t// out\n        /* \"#utility.yul\":18269:18688   */\n    tag_53:\n        /* \"#utility.yul\":18435:18439   */\n      0x00\n        /* \"#utility.yul\":18473:18475   */\n      0x20\n        /* \"#utility.yul\":18462:18471   */\n      dup3\n        /* \"#utility.yul\":18458:18476   */\n      add\n        /* \"#utility.yul\":18450:18476   */\n      swap1\n      pop\n        /* \"#utility.yul\":18522:18531   */\n      dup2\n        /* \"#utility.yul\":18516:18520   */\n      dup2\n        /* \"#utility.yul\":18512:18532   */\n      sub\n        /* \"#utility.yul\":18508:18509   */\n      0x00\n        /* \"#utility.yul\":18497:18506   */\n      dup4\n        /* \"#utility.yul\":18493:18510   */\n      add\n        /* \"#utility.yul\":18486:18533   */\n      mstore\n        /* \"#utility.yul\":18550:18681   */\n      tag_381\n        /* \"#utility.yul\":18676:18680   */\n      dup2\n        /* \"#utility.yul\":18550:18681   */\n      tag_194\n      jump\t// in\n    tag_381:\n        /* \"#utility.yul\":18542:18681   */\n      swap1\n      pop\n        /* \"#utility.yul\":18269:18688   */\n      swap2\n      swap1\n      pop\n      jump\t// out\n        /* \"#utility.yul\":18694:18865   */\n    tag_195:\n        /* \"#utility.yul\":18834:18857   */\n      0x5061796d656e7420747970652072657175697265640000000000000000000000\n        /* \"#utility.yul\":18830:18831   */\n      0x00\n        /* \"#utility.yul\":18822:18828   */\n      dup3\n        /* \"#utility.yul\":18818:18832   */\n      add\n        /* \"#utility.yul\":18811:18858   */\n      mstore\n        /* \"#utility.yul\":18694:18865   */\n      pop\n      jump\t// out\n        /* \"#utility.yul\":18871:19237   */\n    tag_196:\n        /* \"#utility.yul\":19013:19016   */\n      0x00\n        /* \"#utility.yul\":19034:19101   */\n      tag_384\n        /* \"#utility.yul\":19098:19100   */\n      0x15\n        /* \"#utility.yul\":19093:19096   */\n      dup4\n        /* \"#utility.yul\":19034:19101   */\n      tag_190\n      jump\t// in\n    tag_384:\n        /* \"#utility.yul\":19027:19101   */\n      swap2\n      pop\n        /* \"#utility.yul\":19110:19203   */\n      tag_385\n        /* \"#utility.yul\":19199:19202   */\n      dup3\n        /* \"#utility.yul\":19110:19203   */\n      tag_195\n      jump\t// in\n    tag_385:\n        /* \"#utility.yul\":19228:19230   */\n      0x20\n        /* \"#utility.yul\":19223:19226   */\n      dup3\n        /* \"#utility.yul\":19219:19231   */\n      add\n        /* \"#utility.yul\":19212:19231   */\n      swap1\n      pop\n        /* \"#utility.yul\":18871:19237   */\n      swap2\n      swap1\n      pop\n      jump\t// out\n        /* \"#utility.yul\":19243:19662   */\n    tag_56:\n        /* \"#utility.yul\":19409:19413   */\n      0x00\n        /* \"#utility.yul\":19447:19449   */\n      0x20\n        /* \"#utility.yul\":19436:19445   */\n      dup3\n        /* \"#utility.yul\":19432:19450   */\n      add\n        /* \"#utility.yul\":19424:19450   */\n      swap1\n      pop\n        /* \"#utility.yul\":19496:19505   */\n      dup2\n        /* \"#utility.yul\":19490:19494   */\n      dup2\n        /* \"#utility.yul\":19486:19506   */\n      sub\n        /* \"#utility.yul\":19482:19483   */\n      0x00\n        /* \"#utility.yul\":19471:19480   */\n      dup4\n        /* \"#utility.yul\":19467:19484   */\n      add\n        /* \"#utility.yul\":19460:19507   */\n      mstore\n        /* \"#utility.yul\":19524:19655   */\n      tag_387\n        /* \"#utility.yul\":19650:19654   */\n      dup2\n        /* \"#utility.yul\":19524:19655   */\n      tag_196\n      jump\t// in\n    tag_387:\n        /* \"#utility.yul\":19516:19655   */\n      swap1\n      pop\n        /* \"#utility.yul\":19243:19662   */\n      swap2\n      swap1\n      pop\n      jump\t// out\n        /* \"#utility.yul\":19668:19809   */\n    tag_197:\n        /* \"#utility.yul\":19717:19721   */\n      0x00\n        /* \"#utility.yul\":19740:19743   */\n      dup2\n        /* \"#utility.yul\":19732:19743   */\n      swap1\n      pop\n        /* \"#utility.yul\":19763:19766   */\n      dup2\n        /* \"#utility.yul\":19760:19761   */\n      0x00\n        /* \"#utility.yul\":19753:19767   */\n      mstore\n        /* \"#utility.yul\":19797:19801   */\n      0x20\n        /* \"#utility.yul\":19794:19795   */\n      0x00\n        /* \"#utility.yul\":19784:19802   */\n      keccak256\n        /* \"#utility.yul\":19776:19802   */\n      swap1\n      pop\n        /* \"#utility.yul\":19668:19809   */\n      swap2\n      swap1\n      pop\n      jump\t// out\n        /* \"#utility.yul\":19815:19908   */\n    tag_198:\n        /* \"#utility.yul\":19852:19858   */\n      0x00\n        /* \"#utility.yul\":19899:19901   */\n      0x20\n        /* \"#utility.yul\":19894:19896   */\n      0x1f\n        /* \"#utility.yul\":19887:19892   */\n      dup4\n        /* \"#utility.yul\":19883:19897   */\n      add\n        /* \"#utility.yul\":19879:19902   */\n      div\n        /* \"#utility.yul\":19869:19902   */\n      swap1\n      pop\n        /* \"#utility.yul\":19815:19908   */\n      swap2\n      swap1\n      pop\n      jump\t// out\n        /* \"#utility.yul\":19914:20021   */\n    tag_199:\n        /* \"#utility.yul\":19958:19966   */\n      0x00\n        /* \"#utility.yul\":20008:20013   */\n      dup3\n        /* \"#utility.yul\":20002:20006   */\n      dup3\n        /* \"#utility.yul\":19998:20014   */\n      shl\n        /* \"#utility.yul\":19977:20014   */\n      swap1\n      pop\n        /* \"#utility.yul\":19914:20021   */\n      swap3\n      swap2\n      pop\n      pop\n      jump\t// out\n        /* \"#utility.yul\":20027:20420   */\n    tag_200:\n        /* \"#utility.yul\":20096:20102   */\n      0x00\n        /* \"#utility.yul\":20146:20147   */\n      0x08\n        /* \"#utility.yul\":20134:20144   */\n      dup4\n        /* \"#utility.yul\":20130:20148   */\n      mul\n        /* \"#utility.yul\":20169:20266   */\n      tag_392\n        /* \"#utility.yul\":20199:20265   */\n      0xffffffffffffffffffffffffffffffffffffffffffffffffffffffffffffffff\n        /* \"#utility.yul\":20188:20197   */\n      dup3\n        /* \"#utility.yul\":20169:20266   */\n      tag_199\n      jump\t// in\n    tag_392:\n        /* \"#utility.yul\":20287:20326   */\n      tag_393\n        /* \"#utility.yul\":20317:20325   */\n      dup7\n        /* \"#utility.yul\":20306:20315   */\n      dup4\n        /* \"#utility.yul\":20287:20326   */\n      tag_199\n      jump\t// in\n    tag_393:\n        /* \"#utility.yul\":20275:20326   */\n      swap6\n      pop\n        /* \"#utility.yul\":20359:20363   */\n      dup1\n        /* \"#utility.yul\":20355:20364   */\n      not\n        /* \"#utility.yul\":20348:20353   */\n      dup5\n        /* \"#utility.yul\":20344:20365   */\n      and\n        /* \"#utility.yul\":20335:20365   */\n      swap4\n      pop\n        /* \"#utility.yul\":20408:20412   */\n      dup1\n        /* \"#utility.yul\":20398:20406   */\n      dup7\n        /* \"#utility.yul\":20394:20413   */\n      and\n        /* \"#utility.yul\":20387:20392   */\n      dup5\n        /* \"#utility.yul\":20384:20414   */\n      or\n        /* \"#utility.yul\":20374:20414   */\n      swap3\n      pop\n        /* \"#utility.yul\":20103:20420   */\n      pop\n      pop\n        /* \"#utility.yul\":20027:20420   */\n      swap4\n      swap3\n      pop\n      pop\n      pop\n      jump\t// out\n        /* \"#utility.yul\":20426:20486   */\n    tag_201:\n        /* \"#utility.yul\":20454:20457   */\n      0x00\n        /* \"#utility.yul\":20475:20480   */\n      dup2\n        /* \"#utility.yul\":20468:20480   */\n      swap1\n      pop\n        /* \"#utility.yul\":20426:20486   */\n      swap2\n      swap1\n      pop\n      jump\t// out\n        /* \"#utility.yul\":20492:20634   */\n    tag_202:\n        /* \"#utility.yul\":20542:20551   */\n      0x00\n        /* \"#utility.yul\":20575:20628   */\n      tag_396\n        /* \"#utility.yul\":20593:20627   */\n      tag_397\n        /* \"#utility.yul\":20602:20626   */\n      tag_398\n        /* \"#utility.yul\":20620:20625   */\n      dup5\n        /* \"#utility.yul\":20602:20626   */\n      tag_169\n      jump\t// in\n    tag_398:\n        /* \"#utility.yul\":20593:20627   */\n      tag_201\n      jump\t// in\n    tag_397:\n        /* \"#utility.yul\":20575:20628   */\n      tag_169\n      jump\t// in\n    tag_396:\n        /* \"#utility.yul\":20562:20628   */\n      swap1\n      pop\n        /* \"#utility.yul\":20492:20634   */\n      swap2\n      swap1\n      pop\n      jump\t// out\n        /* \"#utility.yul\":20640:20715   */\n    tag_203:\n        /* \"#utility.yul\":20683:20686   */\n      0x00\n        /* \"#utility.yul\":20704:20709   */\n      dup2\n        /* \"#utility.yul\":20697:20709   */\n      swap1\n      pop\n        /* \"#utility.yul\":20640:20715   */\n      swap2\n      swap1\n      pop\n      jump\t// out\n        /* \"#utility.yul\":20721:20990   */\n    tag_204:\n        /* \"#utility.yul\":20831:20870   */\n      tag_401\n        /* \"#utility.yul\":20862:20869   */\n      dup4\n        /* \"#utility.yul\":20831:20870   */\n      tag_202\n      jump\t// in\n    tag_401:\n        /* \"#utility.yul\":20892:20983   */\n      tag_402\n        /* \"#utility.yul\":20941:20982   */\n      tag_403\n        /* \"#utility.yul\":20965:20981   */\n      dup3\n        /* \"#utility.yul\":20941:20982   */\n      tag_203\n      jump\t// in\n    tag_403:\n        /* \"#utility.yul\":20933:20939   */\n      dup5\n        /* \"#utility.yul\":20926:20930   */\n      dup5\n        /* \"#utility.yul\":20920:20931   */\n      sload\n        /* \"#utility.yul\":20892:20983   */\n      tag_200\n      jump\t// in\n    tag_402:\n        /* \"#utility.yul\":20886:20890   */\n      dup3\n        /* \"#utility.yul\":20879:20984   */\n      sstore\n        /* \"#utility.yul\":20797:20990   */\n      pop\n        /* \"#utility.yul\":20721:20990   */\n      pop\n      pop\n      pop\n      jump\t// out\n        /* \"#utility.yul\":20996:21069   */\n    tag_205:\n        /* \"#utility.yul\":21041:21044   */\n      0x00\n        /* \"#utility.yul\":21062:21063   */\n      0x00\n        /* \"#utility.yul\":21055:21063   */\n      swap1\n      pop\n        /* \"#utility.yul\":20996:21069   */\n      swap1\n      jump\t// out\n        /* \"#utility.yul\":21075:21264   */\n    tag_206:\n        /* \"#utility.yul\":21152:21184   */\n      tag_406\n      tag_205\n      jump\t// in\n    tag_406:\n        /* \"#utility.yul\":21193:21258   */\n      tag_407\n        /* \"#utility.yul\":21251:21257   */\n      dup2\n        /* \"#utility.yul\":21243:21249   */\n      dup5\n        /* \"#utility.yul\":21237:21241   */\n      dup5\n        /* \"#utility.yul\":21193:21258   */\n      tag_204\n      jump\t// in\n    tag_407:\n        /* \"#utility.yul\":21128:21264   */\n      pop\n        /* \"#utility.yul\":21075:21264   */\n      pop\n      pop\n      jump\t// out\n        /* \"#utility.yul\":21270:21456   */\n    tag_207:\n        /* \"#utility.yul\":21330:21450   */\n    tag_409:\n        /* \"#utility.yul\":21347:21350   */\n      dup2\n        /* \"#utility.yul\":21340:21345   */\n      dup2\n        /* \"#utility.yul\":21337:21351   */\n      lt\n        /* \"#utility.yul\":21330:21450   */\n      iszero\n      tag_411\n      jumpi\n        /* \"#utility.yul\":21401:21440   */\n      tag_412\n        /* \"#utility.yul\":21438:21439   */\n      0x00\n        /* \"#utility.yul\":21431:21436   */\n      dup3\n        /* \"#utility.yul\":21401:21440   */\n      tag_206\n      jump\t// in\n    tag_412:\n        /* \"#utility.yul\":21374:21375   */\n      0x01\n        /* \"#utility.yul\":21367:21372   */\n      dup2\n        /* \"#utility.yul\":21363:21376   */\n      add\n        /* \"#utility.yul\":21354:21376   */\n      swap1\n      pop\n        /* \"#utility.yul\":21330:21450   */\n      jump(tag_409)\n    tag_411:\n        /* \"#utility.yul\":21270:21456   */\n      pop\n      pop\n      jump\t// out\n        /* \"#utility.yul\":21462:22005   */\n    tag_208:\n        /* \"#utility.yul\":21563:21565   */\n      0x1f\n        /* \"#utility.yul\":21558:21561   */\n      dup3\n        /* \"#utility.yul\":21555:21566   */\n      gt\n        /* \"#utility.yul\":21552:21998   */\n      iszero\n      tag_414\n      jumpi\n        /* \"#utility.yul\":21597:21635   */\n      tag_415\n        /* \"#utility.yul\":21629:21634   */\n      dup2\n        /* \"#utility.yul\":21597:21635   */\n      tag_197\n      jump\t// in\n    tag_415:\n        /* \"#utility.yul\":21681:21710   */\n      tag_416\n        /* \"#utility.yul\":21699:21709   */\n      dup5\n        /* \"#utility.yul\":21681:21710   */\n      tag_198\n      jump\t// in\n    tag_416:\n        /* \"#utility.yul\":21671:21679   */\n      dup2\n        /* \"#utility.yul\":21667:21711   */\n      add\n        /* \"#utility.yul\":21864:21866   */\n      0x20\n        /* \"#utility.yul\":21852:21862   */\n      dup6\n        /* \"#utility.yul\":21849:21867   */\n      lt\n        /* \"#utility.yul\":21846:21895   */\n      iszero\n      tag_417\n      jumpi\n        /* \"#utility.yul\":21885:21893   */\n      dup2\n        /* \"#utility.yul\":21870:21893   */\n      swap1\n      pop\n        /* \"#utility.yul\":21846:21895   */\n    tag_417:\n        /* \"#utility.yul\":21908:21988   */\n      tag_418\n        /* \"#utility.yul\":21964:21986   */\n      tag_419\n        /* \"#utility.yul\":21982:21985   */\n      dup6\n        /* \"#utility.yul\":21964:21986   */\n      tag_198\n      jump\t// in\n    tag_419:\n        /* \"#utility.yul\":21954:21962   */\n      dup4\n        /* \"#utility.yul\":21950:21987   */\n      add\n        /* \"#utility.yul\":21937:21948   */\n      dup3\n        /* \"#utility.yul\":21908:21988   */\n      tag_207\n      jump\t// in\n    tag_418:\n        /* \"#utility.yul\":21567:21998   */\n      pop\n      pop\n        /* \"#utility.yul\":21552:21998   */\n    tag_414:\n        /* \"#utility.yul\":21462:22005   */\n      pop\n      pop\n      pop\n      jump\t// out\n        /* \"#utility.yul\":22011:22128   */\n    tag_209:\n        /* \"#utility.yul\":22065:22073   */\n      0x00\n        /* \"#utility.yul\":22115:22120   */\n      dup3\n        /* \"#utility.yul\":22109:22113   */\n      dup3\n        /* \"#utility.yul\":22105:22121   */\n      shr\n        /* \"#utility.yul\":22084:22121   */\n      swap1\n      pop\n        /* \"#utility.yul\":22011:22128   */\n      swap3\n      swap2\n      pop\n      pop\n      jump\t// out\n        /* \"#utility.yul\":22134:22303   */\n    tag_210:\n        /* \"#utility.yul\":22178:22184   */\n      0x00\n        /* \"#utility.yul\":22211:22262   */\n      tag_422\n        /* \"#utility.yul\":22259:22260   */\n      0x00\n        /* \"#utility.yul\":22255:22261   */\n      not\n        /* \"#utility.yul\":22247:22252   */\n      dup5\n        /* \"#utility.yul\":22244:22245   */\n      0x08\n        /* \"#utility.yul\":22240:22253   */\n      mul\n        /* \"#utility.yul\":22211:22262   */\n      tag_209\n      jump\t// in\n    tag_422:\n        /* \"#utility.yul\":22207:22263   */\n      not\n        /* \"#utility.yul\":22292:22296   */\n      dup1\n        /* \"#utility.yul\":22286:22290   */\n      dup4\n        /* \"#utility.yul\":22282:22297   */\n      and\n        /* \"#utility.yul\":22272:22297   */\n      swap2\n      pop\n        /* \"#utility.yul\":22185:22303   */\n      pop\n        /* \"#utility.yul\":22134:22303   */\n      swap3\n      swap2\n      pop\n      pop\n      jump\t// out\n        /* \"#utility.yul\":22308:22603   */\n    tag_211:\n        /* \"#utility.yul\":22384:22388   */\n      0x00\n        /* \"#utility.yul\":22530:22559   */\n      tag_424\n        /* \"#utility.yul\":22555:22558   */\n      dup4\n        /* \"#utility.yul\":22549:22553   */\n      dup4\n        /* \"#utility.yul\":22530:22559   */\n      tag_210\n      jump\t// in\n    tag_424:\n        /* \"#utility.yul\":22522:22559   */\n      swap2\n      pop\n        /* \"#utility.yul\":22592:22595   */\n      dup3\n        /* \"#utility.yul\":22589:22590   */\n      0x02\n        /* \"#utility.yul\":22585:22596   */\n      mul\n        /* \"#utility.yul\":22579:22583   */\n      dup3\n        /* \"#utility.yul\":22576:22597   */\n      or\n        /* \"#utility.yul\":22568:22597   */\n      swap1\n      pop\n        /* \"#utility.yul\":22308:22603   */\n      swap3\n      swap2\n      pop\n      pop\n      jump\t// out\n        /* \"#utility.yul\":22608:24003   */\n    tag_59:\n        /* \"#utility.yul\":22725:22762   */\n      tag_426\n        /* \"#utility.yul\":22758:22761   */\n      dup3\n        /* \"#utility.yul\":22725:22762   */\n      tag_178\n      jump\t// in\n    tag_426:\n        /* \"#utility.yul\":22827:22845   */\n      0xffffffffffffffff\n        /* \"#utility.yul\":22819:22825   */\n      dup2\n        /* \"#utility.yul\":22816:22846   */\n      gt\n        /* \"#utility.yul\":22813:22869   */\n      iszero\n      tag_427\n      jumpi\n        /* \"#utility.yul\":22849:22867   */\n      tag_428\n      tag_158\n      jump\t// in\n    tag_428:\n        /* \"#utility.yul\":22813:22869   */\n    tag_427:\n        /* \"#utility.yul\":22893:22931   */\n      tag_429\n        /* \"#utility.yul\":22925:22929   */\n      dup3\n        /* \"#utility.yul\":22919:22930   */\n      sload\n        /* \"#utility.yul\":22893:22931   */\n      tag_43\n      jump\t// in\n    tag_429:\n        /* \"#utility.yul\":22978:23045   */\n      tag_430\n        /* \"#utility.yul\":23038:23044   */\n      dup3\n        /* \"#utility.yul\":23030:23036   */\n      dup3\n        /* \"#utility.yul\":23024:23028   */\n      dup6\n        /* \"#utility.yul\":22978:23045   */\n      tag_208\n      jump\t// in\n    tag_430:\n        /* \"#utility.yul\":23072:23073   */\n      0x00\n        /* \"#utility.yul\":23096:23100   */\n      0x20\n        /* \"#utility.yul\":23083:23100   */\n      swap1\n      pop\n        /* \"#utility.yul\":23128:23130   */\n      0x1f\n        /* \"#utility.yul\":23120:23126   */\n      dup4\n        /* \"#utility.yul\":23117:23131   */\n      gt\n        /* \"#utility.yul\":23145:23146   */\n      0x01\n        /* \"#utility.yul\":23140:23758   */\n      dup2\n      eq\n      tag_432\n      jumpi\n        /* \"#utility.yul\":23802:23803   */\n      0x00\n        /* \"#utility.yul\":23819:23825   */\n      dup5\n        /* \"#utility.yul\":23816:23893   */\n      iszero\n      tag_433\n      jumpi\n        /* \"#utility.yul\":23868:23877   */\n      dup3\n        /* \"#utility.yul\":23863:23866   */\n      dup8\n        /* \"#utility.yul\":23859:23878   */\n      add\n        /* \"#utility.yul\":23853:23879   */\n      mload\n        /* \"#utility.yul\":23844:23879   */\n      swap1\n      pop\n        /* \"#utility.yul\":23816:23893   */\n    tag_433:\n        /* \"#utility.yul\":23919:23986   */\n      tag_434\n        /* \"#utility.yul\":23979:23985   */\n      dup6\n        /* \"#utility.yul\":23972:23977   */\n      dup3\n        /* \"#utility.yul\":23919:23986   */\n      tag_211\n      jump\t// in\n    tag_434:\n        /* \"#utility.yul\":23913:23917   */\n      dup7\n        /* \"#utility.yul\":23906:23987   */\n      sstore\n        /* \"#utility.yul\":23775:23997   */\n      pop\n        /* \"#utility.yul\":23110:23997   */\n      jump(tag_431)\n        /* \"#utility.yul\":23140:23758   */\n    tag_432:\n        /* \"#utility.yul\":23192:23196   */\n      0x1f\n        /* \"#utility.yul\":23188:23197   */\n      not\n        /* \"#utility.yul\":23180:23186   */\n      dup5\n        /* \"#utility.yul\":23176:23198   */\n      and\n        /* \"#utility.yul\":23226:23263   */\n      tag_435\n        /* \"#utility.yul\":23258:23262   */\n      dup7\n        /* \"#utility.yul\":23226:23263   */\n      tag_197\n      jump\t// in\n    tag_435:\n        /* \"#utility.yul\":23285:23286   */\n      0x00\n        /* \"#utility.yul\":23299:23507   */\n    tag_436:\n        /* \"#utility.yul\":23313:23320   */\n      dup3\n        /* \"#utility.yul\":23310:23311   */\n      dup2\n        /* \"#utility.yul\":23307:23321   */\n      lt\n        /* \"#utility.yul\":23299:23507   */\n      iszero\n      tag_438\n      jumpi\n        /* \"#utility.yul\":23392:23401   */\n      dup5\n        /* \"#utility.yul\":23387:23390   */\n      dup10\n        /* \"#utility.yul\":23383:23402   */\n      add\n        /* \"#utility.yul\":23377:23403   */\n      mload\n        /* \"#utility.yul\":23369:23375   */\n      dup3\n        /* \"#utility.yul\":23362:23404   */\n      sstore\n        /* \"#utility.yul\":23443:23444   */\n      0x01\n        /* \"#utility.yul\":23435:23441   */\n      dup3\n        /* \"#utility.yul\":23431:23445   */\n      add\n        /* \"#utility.yul\":23421:23445   */\n      swap2\n      pop\n        /* \"#utility.yul\":23490:23492   */\n      0x20\n        /* \"#utility.yul\":23479:23488   */\n      dup6\n        /* \"#utility.yul\":23475:23493   */\n      add\n        /* \"#utility.yul\":23462:23493   */\n      swap5\n      pop\n        /* \"#utility.yul\":23336:23340   */\n      0x20\n        /* \"#utility.yul\":23333:23334   */\n      dup2\n        /* \"#utility.yul\":23329:23341   */\n      add\n        /* \"#utility.yul\":23324:23341   */\n      swap1\n      pop\n        /* \"#utility.yul\":23299:23507   */\n      jump(tag_436)\n    tag_438:\n        /* \"#utility.yul\":23535:23541   */\n      dup7\n        /* \"#utility.yul\":23526:23533   */\n      dup4\n        /* \"#utility.yul\":23523:23542   */\n      lt\n        /* \"#utility.yul\":23520:23699   */\n      iszero\n      tag_439\n      jumpi\n        /* \"#utility.yul\":23593:23602   */\n      dup5\n        /* \"#utility.yul\":23588:23591   */\n      dup10\n        /* \"#utility.yul\":23584:23603   */\n      add\n        /* \"#utility.yul\":23578:23604   */\n      mload\n        /* \"#utility.yul\":23636:23684   */\n      tag_440\n        /* \"#utility.yul\":23678:23682   */\n      0x1f\n        /* \"#utility.yul\":23670:23676   */\n      dup10\n        /* \"#utility.yul\":23666:23683   */\n      and\n        /* \"#utility.yul\":23655:23664   */\n      dup3\n        /* \"#utility.yul\":23636:23684   */\n      tag_210\n      jump\t// in\n    tag_440:\n        /* \"#utility.yul\":23628:23634   */\n      dup4\n        /* \"#utility.yul\":23621:23685   */\n      sstore\n        /* \"#utility.yul\":23543:23699   */\n      pop\n        /* \"#utility.yul\":23520:23699   */\n    tag_439:\n        /* \"#utility.yul\":23745:23746   */\n      0x01\n        /* \"#utility.yul\":23741:23742   */\n      0x02\n        /* \"#utility.yul\":23733:23739   */\n      dup9\n        /* \"#utility.yul\":23729:23743   */\n      mul\n        /* \"#utility.yul\":23725:23747   */\n      add\n        /* \"#utility.yul\":23719:23723   */\n      dup9\n        /* \"#utility.yul\":23712:23748   */\n      sstore\n        /* \"#utility.yul\":23147:23758   */\n      pop\n      pop\n      pop\n        /* \"#utility.yul\":23110:23997   */\n    tag_431:\n      pop\n        /* \"#utility.yul\":22700:24003   */\n      pop\n      pop\n      pop\n        /* \"#utility.yul\":22608:24003   */\n      pop\n      pop\n      jump\t// out\n        /* \"#utility.yul\":24009:24127   */\n    tag_212:\n        /* \"#utility.yul\":24096:24120   */\n      tag_442\n        /* \"#utility.yul\":24114:24119   */\n      dup2\n        /* \"#utility.yul\":24096:24120   */\n      tag_169\n      jump\t// in\n    tag_442:\n        /* \"#utility.yul\":24091:24094   */\n      dup3\n        /* \"#utility.yul\":24084:24121   */\n      mstore\n        /* \"#utility.yul\":24009:24127   */\n      pop\n      pop\n      jump\t// out\n        /* \"#utility.yul\":24133:24510   */\n    tag_213:\n        /* \"#utility.yul\":24221:24224   */\n      0x00\n        /* \"#utility.yul\":24249:24288   */\n      tag_444\n        /* \"#utility.yul\":24282:24287   */\n      dup3\n        /* \"#utility.yul\":24249:24288   */\n      tag_178\n      jump\t// in\n    tag_444:\n        /* \"#utility.yul\":24304:24375   */\n      tag_445\n        /* \"#utility.yul\":24368:24374   */\n      dup2\n        /* \"#utility.yul\":24363:24366   */\n      dup6\n        /* \"#utility.yul\":24304:24375   */\n      tag_190\n      jump\t// in\n    tag_445:\n        /* \"#utility.yul\":24297:24375   */\n      swap4\n      pop\n        /* \"#utility.yul\":24384:24449   */\n      tag_446\n        /* \"#utility.yul\":24442:24448   */\n      dup2\n        /* \"#utility.yul\":24437:24440   */\n      dup6\n        /* \"#utility.yul\":24430:24434   */\n      0x20\n        /* \"#utility.yul\":24423:24428   */\n      dup7\n        /* \"#utility.yul\":24419:24435   */\n      add\n        /* \"#utility.yul\":24384:24449   */\n      tag_180\n      jump\t// in\n    tag_446:\n        /* \"#utility.yul\":24474:24503   */\n      tag_447\n        /* \"#utility.yul\":24496:24502   */\n      dup2\n        /* \"#utility.yul\":24474:24503   */\n      tag_157\n      jump\t// in\n    tag_447:\n        /* \"#utility.yul\":24469:24472   */\n      dup5\n        /* \"#utility.yul\":24465:24504   */\n      add\n        /* \"#utility.yul\":24458:24504   */\n      swap2\n      pop\n        /* \"#utility.yul\":24225:24510   */\n      pop\n        /* \"#utility.yul\":24133:24510   */\n      swap3\n      swap2\n      pop\n      pop\n      jump\t// out\n        /* \"#utility.yul\":24516:24939   */\n    tag_70:\n        /* \"#utility.yul\":24657:24661   */\n      0x00\n        /* \"#utility.yul\":24695:24697   */\n      0x40\n        /* \"#utility.yul\":24684:24693   */\n      dup3\n        /* \"#utility.yul\":24680:24698   */\n      add\n        /* \"#utility.yul\":24672:24698   */\n      swap1\n      pop\n        /* \"#utility.yul\":24708:24779   */\n      tag_449\n        /* \"#utility.yul\":24776:24777   */\n      0x00\n        /* \"#utility.yul\":24765:24774   */\n      dup4\n        /* \"#utility.yul\":24761:24778   */\n      add\n        /* \"#utility.yul\":24752:24758   */\n      dup6\n        /* \"#utility.yul\":24708:24779   */\n      tag_212\n      jump\t// in\n    tag_449:\n        /* \"#utility.yul\":24826:24835   */\n      dup2\n        /* \"#utility.yul\":24820:24824   */\n      dup2\n        /* \"#utility.yul\":24816:24836   */\n      sub\n        /* \"#utility.yul\":24811:24813   */\n      0x20\n        /* \"#utility.yul\":24800:24809   */\n      dup4\n        /* \"#utility.yul\":24796:24814   */\n      add\n        /* \"#utility.yul\":24789:24837   */\n      mstore\n        /* \"#utility.yul\":24854:24932   */\n      tag_450\n        /* \"#utility.yul\":24927:24931   */\n      dup2\n        /* \"#utility.yul\":24918:24924   */\n      dup5\n        /* \"#utility.yul\":24854:24932   */\n      tag_213\n      jump\t// in\n    tag_450:\n        /* \"#utility.yul\":24846:24932   */\n      swap1\n      pop\n        /* \"#utility.yul\":24516:24939   */\n      swap4\n      swap3\n      pop\n      pop\n      pop\n      jump\t// out\n        /* \"#utility.yul\":24945:25117   */\n    tag_214:\n        /* \"#utility.yul\":25085:25109   */\n      0x5061796d656e7420646f6573206e6f7420657869737400000000000000000000\n        /* \"#utility.yul\":25081:25082   */\n      0x00\n        /* \"#utility.yul\":25073:25079   */\n      dup3\n        /* \"#utility.yul\":25069:25083   */\n      add\n        /* \"#utility.yul\":25062:25110   */\n      mstore\n        /* \"#utility.yul\":24945:25117   */\n      pop\n      jump\t// out\n        /* \"#utility.yul\":25123:25489   */\n    tag_215:\n        /* \"#utility.yul\":25265:25268   */\n      0x00\n        /* \"#utility.yul\":25286:25353   */\n      tag_453\n        /* \"#utility.yul\":25350:25352   */\n      0x16\n        /* \"#utility.yul\":25345:25348   */\n      dup4\n        /* \"#utility.yul\":25286:25353   */\n      tag_190\n      jump\t// in\n    tag_453:\n        /* \"#utility.yul\":25279:25353   */\n      swap2\n      pop\n        /* \"#utility.yul\":25362:25455   */\n      tag_454\n        /* \"#utility.yul\":25451:25454   */\n      dup3\n        /* \"#utility.yul\":25362:25455   */\n      tag_214\n      jump\t// in\n    tag_454:\n        /* \"#utility.yul\":25480:25482   */\n      0x20\n        /* \"#utility.yul\":25475:25478   */\n      dup3\n        /* \"#utility.yul\":25471:25483   */\n      add\n        /* \"#utility.yul\":25464:25483   */\n      swap1\n      pop\n        /* \"#utility.yul\":25123:25489   */\n      swap2\n      swap1\n      pop\n      jump\t// out\n        /* \"#utility.yul\":25495:25914   */\n    tag_78:\n        /* \"#utility.yul\":25661:25665   */\n      0x00\n        /* \"#utility.yul\":25699:25701   */\n      0x20\n        /* \"#utility.yul\":25688:25697   */\n      dup3\n        /* \"#utility.yul\":25684:25702   */\n      add\n        /* \"#utility.yul\":25676:25702   */\n      swap1\n      pop\n        /* \"#utility.yul\":25748:25757   */\n      dup2\n        /* \"#utility.yul\":25742:25746   */\n      dup2\n        /* \"#utility.yul\":25738:25758   */\n      sub\n        /* \"#utility.yul\":25734:25735   */\n      0x00\n        /* \"#utility.yul\":25723:25732   */\n      dup4\n        /* \"#utility.yul\":25719:25736   */\n      add\n        /* \"#utility.yul\":25712:25759   */\n      mstore\n        /* \"#utility.yul\":25776:25907   */\n      tag_456\n        /* \"#utility.yul\":25902:25906   */\n      dup2\n        /* \"#utility.yul\":25776:25907   */\n      tag_215\n      jump\t// in\n    tag_456:\n        /* \"#utility.yul\":25768:25907   */\n      swap1\n      pop\n        /* \"#utility.yul\":25495:25914   */\n      swap2\n      swap1\n      pop\n      jump\t// out\n\n    auxdata: 0xa26469706673582212206c24906abefea3a334469e12b3f74aba207ec130b8296da0a6660172bbd859c464736f6c634300081e0033\n}\n",
				"bytecode": {
					"linkReferences": {},
					"object": "608060405234801561000f575f5ffd5b50335f73ffffffffffffffffffffffffffffffffffffffff168173ffffffffffffffffffffffffffffffffffffffff1603610081575f6040517f1e4fbdf70000000000000000000000000000000000000000000000000000000081526004016100789190610196565b60405180910390fd5b6100908161009660201b60201c565b506101af565b5f5f5f9054906101000a900473ffffffffffffffffffffffffffffffffffffffff169050815f5f6101000a81548173ffffffffffffffffffffffffffffffffffffffff021916908373ffffffffffffffffffffffffffffffffffffffff1602179055508173ffffffffffffffffffffffffffffffffffffffff168173ffffffffffffffffffffffffffffffffffffffff167f8be0079c531659141344cd1fd0a4f28419497f9722a3daafe3b4186f6b6457e060405160405180910390a35050565b5f73ffffffffffffffffffffffffffffffffffffffff82169050919050565b5f61018082610157565b9050919050565b61019081610176565b82525050565b5f6020820190506101a95f830184610187565b92915050565b611a11806101bc5f395ff3fe608060405234801561000f575f5ffd5b506004361061007b575f3560e01c8063715018a611610059578063715018a6146100e75780638da5cb5b146100f1578063c69207a31461010f578063f2fde38b1461013f5761007b565b806318c7d16b1461007f5780631d64ad5e146100af5780634cc232d0146100cb575b5f5ffd5b61009960048036038101906100949190610e7f565b61015b565b6040516100a69190610ee0565b60405180910390f35b6100c960048036038101906100c491906111a5565b610193565b005b6100e560048036038101906100e09190610e7f565b610406565b005b6100ef6104e3565b005b6100f96104f6565b604051610106919061122b565b60405180910390f35b61012960048036038101906101249190610e7f565b61051d565b6040516101369190611425565b60405180910390f35b6101596004803603810190610154919061146f565b610af3565b005b5f5f60018360405161016d91906114d4565b9081526020016040518091039020600101805461018990611517565b9050119050919050565b61019b610b77565b5f816020015151116101e2576040517f08c379a00000000000000000000000000000000000000000000000000000000081526004016101d9906115a1565b60405180910390fd5b5f816060015111610228576040517f08c379a000000000000000000000000000000000000000000000000000000000815260040161021f90611609565b60405180910390fd5b5f8160400151511161026f576040517f08c379a000000000000000000000000000000000000000000000000000000000815260040161026690611671565b60405180910390fd5b5f6001826020015160405161028491906114d4565b90815260200160405180910390209050815f0151815f0190816102a7919061182f565b5081602001518160010190816102bd919061182f565b5081604001518160020190816102d3919061182f565b508160600151816003018190555081608001518160040190816102f6919061182f565b508160a0015181600501819055508160c00151816006019081610319919061182f565b508160e0015181600701908161032f919061182f565b5042816008018190555081610120015181600901908161034f919061182f565b505f81600a015f6101000a81548160ff02191690831515021790555081610160015181600b019081610381919061182f565b5081610180015181600c019081610398919061182f565b50816101a0015181600d018190555081602001516040516103b991906114d4565b60405180910390207fc961b12288acbf4eb41fb8eda6b6fdda3523af3060c8cf53123a0bb0723cf8ba83606001518460e001516040516103fa929190611945565b60405180910390a25050565b61040e610b77565b5f60018260405161041f91906114d4565b908152602001604051809103902090505f81600101805461043f90611517565b905011610481576040517f08c379a0000000000000000000000000000000000000000000000000000000008152600401610478906119bd565b60405180910390fd5b600181600a015f6101000a81548160ff021916908315150217905550816040516104ab91906114d4565b60405180910390207ff8a0e437deaab453be503dfae13b305a2dc99a6b6a650f58a9b116bcaf48dafb60405160405180910390a25050565b6104eb610b77565b6104f45f610bfe565b565b5f5f5f9054906101000a900473ffffffffffffffffffffffffffffffffffffffff16905090565b610525610cc6565b5f60018360405161053691906114d4565b9081526020016040518091039020604051806101c00160405290815f8201805461055f90611517565b80601f016020809104026020016040519081016040528092919081815260200182805461058b90611517565b80156105d65780601f106105ad576101008083540402835291602001916105d6565b820191905f5260205f20905b8154815290600101906020018083116105b957829003601f168201915b505050505081526020016001820180546105ef90611517565b80601f016020809104026020016040519081016040528092919081815260200182805461061b90611517565b80156106665780601f1061063d57610100808354040283529160200191610666565b820191905f5260205f20905b81548152906001019060200180831161064957829003601f168201915b5050505050815260200160028201805461067f90611517565b80601f01602080910402602001604051908101604052809291908181526020018280546106ab90611517565b80156106f65780601f106106cd576101008083540402835291602001916106f6565b820191905f5260205f20905b8154815290600101906020018083116106d957829003601f168201915b505050505081526020016003820154815260200160048201805461071990611517565b80601f016020809104026020016040519081016040528092919081815260200182805461074590611517565b80156107905780601f1061076757610100808354040283529160200191610790565b820191905f5260205f20905b81548152906001019060200180831161077357829003601f168201915b50505050508152602001600582015481526020016006820180546107b390611517565b80601f01602080910402602001604051908101604052809291908181526020018280546107df90611517565b801561082a5780601f106108015761010080835404028352916020019161082a565b820191905f5260205f20905b81548152906001019060200180831161080d57829003601f168201915b5050505050815260200160078201805461084390611517565b80601f016020809104026020016040519081016040528092919081815260200182805461086f90611517565b80156108ba5780601f10610891576101008083540402835291602001916108ba565b820191905f5260205f20905b81548152906001019060200180831161089d57829003601f168201915b50505050508152602001600882015481526020016009820180546108dd90611517565b80601f016020809104026020016040519081016040528092919081815260200182805461090990611517565b80156109545780601f1061092b57610100808354040283529160200191610954565b820191905f5260205f20905b81548152906001019060200180831161093757829003601f168201915b50505050508152602001600a82015f9054906101000a900460ff16151515158152602001600b8201805461098790611517565b80601f01602080910402602001604051908101604052809291908181526020018280546109b390611517565b80156109fe5780601f106109d5576101008083540402835291602001916109fe565b820191905f5260205f20905b8154815290600101906020018083116109e157829003601f168201915b50505050508152602001600c82018054610a1790611517565b80601f0160208091040260200160405190810160405280929190818152602001828054610a4390611517565b8015610a8e5780601f10610a6557610100808354040283529160200191610a8e565b820191905f5260205f20905b815481529060010190602001808311610a7157829003601f168201915b50505050508152602001600d8201548152505090505f81602001515111610aea576040517f08c379a0000000000000000000000000000000000000000000000000000000008152600401610ae1906119bd565b60405180910390fd5b80915050919050565b610afb610b77565b5f73ffffffffffffffffffffffffffffffffffffffff168173ffffffffffffffffffffffffffffffffffffffff1603610b6b575f6040517f1e4fbdf7000000000000000000000000000000000000000000000000000000008152600401610b62919061122b565b60405180910390fd5b610b7481610bfe565b50565b610b7f610cbf565b73ffffffffffffffffffffffffffffffffffffffff16610b9d6104f6565b73ffffffffffffffffffffffffffffffffffffffff1614610bfc57610bc0610cbf565b6040517f118cdaa7000000000000000000000000000000000000000000000000000000008152600401610bf3919061122b565b60405180910390fd5b565b5f5f5f9054906101000a900473ffffffffffffffffffffffffffffffffffffffff169050815f5f6101000a81548173ffffffffffffffffffffffffffffffffffffffff021916908373ffffffffffffffffffffffffffffffffffffffff1602179055508173ffffffffffffffffffffffffffffffffffffffff168173ffffffffffffffffffffffffffffffffffffffff167f8be0079c531659141344cd1fd0a4f28419497f9722a3daafe3b4186f6b6457e060405160405180910390a35050565b5f33905090565b604051806101c001604052806060815260200160608152602001606081526020015f8152602001606081526020015f815260200160608152602001606081526020015f8152602001606081526020015f1515815260200160608152602001606081526020015f81525090565b5f604051905090565b5f5ffd5b5f5ffd5b5f5ffd5b5f5ffd5b5f601f19601f8301169050919050565b7f4e487b71000000000000000000000000000000000000000000000000000000005f52604160045260245ffd5b610d9182610d4b565b810181811067ffffffffffffffff82111715610db057610daf610d5b565b5b80604052505050565b5f610dc2610d32565b9050610dce8282610d88565b919050565b5f67ffffffffffffffff821115610ded57610dec610d5b565b5b610df682610d4b565b9050602081019050919050565b828183375f83830152505050565b5f610e23610e1e84610dd3565b610db9565b905082815260208101848484011115610e3f57610e3e610d47565b5b610e4a848285610e03565b509392505050565b5f82601f830112610e6657610e65610d43565b5b8135610e76848260208601610e11565b91505092915050565b5f60208284031215610e9457610e93610d3b565b5b5f82013567ffffffffffffffff811115610eb157610eb0610d3f565b5b610ebd84828501610e52565b91505092915050565b5f8115159050919050565b610eda81610ec6565b82525050565b5f602082019050610ef35f830184610ed1565b92915050565b5f5ffd5b5f5ffd5b5f819050919050565b610f1381610f01565b8114610f1d575f5ffd5b50565b5f81359050610f2e81610f0a565b92915050565b610f3d81610ec6565b8114610f47575f5ffd5b50565b5f81359050610f5881610f34565b92915050565b5f6101c08284031215610f7457610f73610ef9565b5b610f7f6101c0610db9565b90505f82013567ffffffffffffffff811115610f9e57610f9d610efd565b5b610faa84828501610e52565b5f83015250602082013567ffffffffffffffff811115610fcd57610fcc610efd565b5b610fd984828501610e52565b602083015250604082013567ffffffffffffffff811115610ffd57610ffc610efd565b5b61100984828501610e52565b604083015250606061101d84828501610f20565b606083015250608082013567ffffffffffffffff81111561104157611040610efd565b5b61104d84828501610e52565b60808301525060a061106184828501610f20565b60a08301525060c082013567ffffffffffffffff81111561108557611084610efd565b5b61109184828501610e52565b60c08301525060e082013567ffffffffffffffff8111156110b5576110b4610efd565b5b6110c184828501610e52565b60e0830152506101006110d684828501610f20565b6101008301525061012082013567ffffffffffffffff8111156110fc576110fb610efd565b5b61110884828501610e52565b6101208301525061014061111e84828501610f4a565b6101408301525061016082013567ffffffffffffffff81111561114457611143610efd565b5b61115084828501610e52565b6101608301525061018082013567ffffffffffffffff81111561117657611175610efd565b5b61118284828501610e52565b610180830152506101a061119884828501610f20565b6101a08301525092915050565b5f602082840312156111ba576111b9610d3b565b5b5f82013567ffffffffffffffff8111156111d7576111d6610d3f565b5b6111e384828501610f5e565b91505092915050565b5f73ffffffffffffffffffffffffffffffffffffffff82169050919050565b5f611215826111ec565b9050919050565b6112258161120b565b82525050565b5f60208201905061123e5f83018461121c565b92915050565b5f81519050919050565b5f82825260208201905092915050565b8281835e5f83830152505050565b5f61127682611244565b611280818561124e565b935061129081856020860161125e565b61129981610d4b565b840191505092915050565b6112ad81610f01565b82525050565b6112bc81610ec6565b82525050565b5f6101c083015f8301518482035f8601526112dd828261126c565b915050602083015184820360208601526112f7828261126c565b91505060408301518482036040860152611311828261126c565b915050606083015161132660608601826112a4565b506080830151848203608086015261133e828261126c565b91505060a083015161135360a08601826112a4565b5060c083015184820360c086015261136b828261126c565b91505060e083015184820360e0860152611385828261126c565b91505061010083015161139c6101008601826112a4565b506101208301518482036101208601526113b6828261126c565b9150506101408301516113cd6101408601826112b3565b506101608301518482036101608601526113e7828261126c565b915050610180830151848203610180860152611403828261126c565b9150506101a083015161141a6101a08601826112a4565b508091505092915050565b5f6020820190508181035f83015261143d81846112c2565b905092915050565b61144e8161120b565b8114611458575f5ffd5b50565b5f8135905061146981611445565b92915050565b5f6020828403121561148457611483610d3b565b5b5f6114918482850161145b565b91505092915050565b5f81905092915050565b5f6114ae82611244565b6114b8818561149a565b93506114c881856020860161125e565b80840191505092915050565b5f6114df82846114a4565b915081905092915050565b7f4e487b71000000000000000000000000000000000000000000000000000000005f52602260045260245ffd5b5f600282049050600182168061152e57607f821691505b602082108103611541576115406114ea565b5b50919050565b5f82825260208201905092915050565b7f5472616e73616374696f6e2049442072657175697265640000000000000000005f82015250565b5f61158b601783611547565b915061159682611557565b602082019050919050565b5f6020820190508181035f8301526115b88161157f565b9050919050565b7f416d6f756e74206d7573742062652067726561746572207468616e207a65726f5f82015250565b5f6115f3602083611547565b91506115fe826115bf565b602082019050919050565b5f6020820190508181035f830152611620816115e7565b9050919050565b7f5061796d656e74207479706520726571756972656400000000000000000000005f82015250565b5f61165b601583611547565b915061166682611627565b602082019050919050565b5f6020820190508181035f8301526116888161164f565b9050919050565b5f819050815f5260205f209050919050565b5f6020601f8301049050919050565b5f82821b905092915050565b5f600883026116eb7fffffffffffffffffffffffffffffffffffffffffffffffffffffffffffffffff826116b0565b6116f586836116b0565b95508019841693508086168417925050509392505050565b5f819050919050565b5f61173061172b61172684610f01565b61170d565b610f01565b9050919050565b5f819050919050565b61174983611716565b61175d61175582611737565b8484546116bc565b825550505050565b5f5f905090565b611774611765565b61177f818484611740565b505050565b5b818110156117a2576117975f8261176c565b600181019050611785565b5050565b601f8211156117e7576117b88161168f565b6117c1846116a1565b810160208510156117d0578190505b6117e46117dc856116a1565b830182611784565b50505b505050565b5f82821c905092915050565b5f6118075f19846008026117ec565b1980831691505092915050565b5f61181f83836117f8565b9150826002028217905092915050565b61183882611244565b67ffffffffffffffff81111561185157611850610d5b565b5b61185b8254611517565b6118668282856117a6565b5f60209050601f831160018114611897575f8415611885578287015190505b61188f8582611814565b8655506118f6565b601f1984166118a58661168f565b5f5b828110156118cc578489015182556001820191506020850194506020810190506118a7565b868310156118e957848901516118e5601f8916826117f8565b8355505b6001600288020188555050505b505050505050565b61190781610f01565b82525050565b5f61191782611244565b6119218185611547565b935061193181856020860161125e565b61193a81610d4b565b840191505092915050565b5f6040820190506119585f8301856118fe565b818103602083015261196a818461190d565b90509392505050565b7f5061796d656e7420646f6573206e6f74206578697374000000000000000000005f82015250565b5f6119a7601683611547565b91506119b282611973565b602082019050919050565b5f6020820190508181035f8301526119d48161199b565b905091905056fea26469706673582212206c24906abefea3a334469e12b3f74aba207ec130b8296da0a6660172bbd859c464736f6c634300081e0033",
					"opcodes": "PUSH1 0x80 PUSH1 0x40 MSTORE CALLVALUE DUP1 ISZERO PUSH2 0xF JUMPI PUSH0 PUSH0 REVERT JUMPDEST POP CALLER PUSH0 PUSH20 0xFFFFFFFFFFFFFFFFFFFFFFFFFFFFFFFFFFFFFFFF AND DUP2 PUSH20 0xFFFFFFFFFFFFFFFFFFFFFFFFFFFFFFFFFFFFFFFF AND SUB PUSH2 0x81 JUMPI PUSH0 PUSH1 0x40 MLOAD PUSH32 0x1E4FBDF700000000000000000000000000000000000000000000000000000000 DUP2 MSTORE PUSH1 0x4 ADD PUSH2 0x78 SWAP2 SWAP1 PUSH2 0x196 JUMP JUMPDEST PUSH1 0x40 MLOAD DUP1 SWAP2 SUB SWAP1 REVERT JUMPDEST PUSH2 0x90 DUP2 PUSH2 0x96 PUSH1 0x20 SHL PUSH1 0x20 SHR JUMP JUMPDEST POP PUSH2 0x1AF JUMP JUMPDEST PUSH0 PUSH0 PUSH0 SWAP1 SLOAD SWAP1 PUSH2 0x100 EXP SWAP1 DIV PUSH20 0xFFFFFFFFFFFFFFFFFFFFFFFFFFFFFFFFFFFFFFFF AND SWAP1 POP DUP2 PUSH0 PUSH0 PUSH2 0x100 EXP DUP2 SLOAD DUP2 PUSH20 0xFFFFFFFFFFFFFFFFFFFFFFFFFFFFFFFFFFFFFFFF MUL NOT AND SWAP1 DUP4 PUSH20 0xFFFFFFFFFFFFFFFFFFFFFFFFFFFFFFFFFFFFFFFF AND MUL OR SWAP1 SSTORE POP DUP2 PUSH20 0xFFFFFFFFFFFFFFFFFFFFFFFFFFFFFFFFFFFFFFFF AND DUP2 PUSH20 0xFFFFFFFFFFFFFFFFFFFFFFFFFFFFFFFFFFFFFFFF AND PUSH32 0x8BE0079C531659141344CD1FD0A4F28419497F9722A3DAAFE3B4186F6B6457E0 PUSH1 0x40 MLOAD PUSH1 0x40 MLOAD DUP1 SWAP2 SUB SWAP1 LOG3 POP POP JUMP JUMPDEST PUSH0 PUSH20 0xFFFFFFFFFFFFFFFFFFFFFFFFFFFFFFFFFFFFFFFF DUP3 AND SWAP1 POP SWAP2 SWAP1 POP JUMP JUMPDEST PUSH0 PUSH2 0x180 DUP3 PUSH2 0x157 JUMP JUMPDEST SWAP1 POP SWAP2 SWAP1 POP JUMP JUMPDEST PUSH2 0x190 DUP2 PUSH2 0x176 JUMP JUMPDEST DUP3 MSTORE POP POP JUMP JUMPDEST PUSH0 PUSH1 0x20 DUP3 ADD SWAP1 POP PUSH2 0x1A9 PUSH0 DUP4 ADD DUP5 PUSH2 0x187 JUMP JUMPDEST SWAP3 SWAP2 POP POP JUMP JUMPDEST PUSH2 0x1A11 DUP1 PUSH2 0x1BC PUSH0 CODECOPY PUSH0 RETURN INVALID PUSH1 0x80 PUSH1 0x40 MSTORE CALLVALUE DUP1 ISZERO PUSH2 0xF JUMPI PUSH0 PUSH0 REVERT JUMPDEST POP PUSH1 0x4 CALLDATASIZE LT PUSH2 0x7B JUMPI PUSH0 CALLDATALOAD PUSH1 0xE0 SHR DUP1 PUSH4 0x715018A6 GT PUSH2 0x59 JUMPI DUP1 PUSH4 0x715018A6 EQ PUSH2 0xE7 JUMPI DUP1 PUSH4 0x8DA5CB5B EQ PUSH2 0xF1 JUMPI DUP1 PUSH4 0xC69207A3 EQ PUSH2 0x10F JUMPI DUP1 PUSH4 0xF2FDE38B EQ PUSH2 0x13F JUMPI PUSH2 0x7B JUMP JUMPDEST DUP1 PUSH4 0x18C7D16B EQ PUSH2 0x7F JUMPI DUP1 PUSH4 0x1D64AD5E EQ PUSH2 0xAF JUMPI DUP1 PUSH4 0x4CC232D0 EQ PUSH2 0xCB JUMPI JUMPDEST PUSH0 PUSH0 REVERT JUMPDEST PUSH2 0x99 PUSH1 0x4 DUP1 CALLDATASIZE SUB DUP2 ADD SWAP1 PUSH2 0x94 SWAP2 SWAP1 PUSH2 0xE7F JUMP JUMPDEST PUSH2 0x15B JUMP JUMPDEST PUSH1 0x40 MLOAD PUSH2 0xA6 SWAP2 SWAP1 PUSH2 0xEE0 JUMP JUMPDEST PUSH1 0x40 MLOAD DUP1 SWAP2 SUB SWAP1 RETURN JUMPDEST PUSH2 0xC9 PUSH1 0x4 DUP1 CALLDATASIZE SUB DUP2 ADD SWAP1 PUSH2 0xC4 SWAP2 SWAP1 PUSH2 0x11A5 JUMP JUMPDEST PUSH2 0x193 JUMP JUMPDEST STOP JUMPDEST PUSH2 0xE5 PUSH1 0x4 DUP1 CALLDATASIZE SUB DUP2 ADD SWAP1 PUSH2 0xE0 SWAP2 SWAP1 PUSH2 0xE7F JUMP JUMPDEST PUSH2 0x406 JUMP JUMPDEST STOP JUMPDEST PUSH2 0xEF PUSH2 0x4E3 JUMP JUMPDEST STOP JUMPDEST PUSH2 0xF9 PUSH2 0x4F6 JUMP JUMPDEST PUSH1 0x40 MLOAD PUSH2 0x106 SWAP2 SWAP1 PUSH2 0x122B JUMP JUMPDEST PUSH1 0x40 MLOAD DUP1 SWAP2 SUB SWAP1 RETURN JUMPDEST PUSH2 0x129 PUSH1 0x4 DUP1 CALLDATASIZE SUB DUP2 ADD SWAP1 PUSH2 0x124 SWAP2 SWAP1 PUSH2 0xE7F JUMP JUMPDEST PUSH2 0x51D JUMP JUMPDEST PUSH1 0x40 MLOAD PUSH2 0x136 SWAP2 SWAP1 PUSH2 0x1425 JUMP JUMPDEST PUSH1 0x40 MLOAD DUP1 SWAP2 SUB SWAP1 RETURN JUMPDEST PUSH2 0x159 PUSH1 0x4 DUP1 CALLDATASIZE SUB DUP2 ADD SWAP1 PUSH2 0x154 SWAP2 SWAP1 PUSH2 0x146F JUMP JUMPDEST PUSH2 0xAF3 JUMP JUMPDEST STOP JUMPDEST PUSH0 PUSH0 PUSH1 0x1 DUP4 PUSH1 0x40 MLOAD PUSH2 0x16D SWAP2 SWAP1 PUSH2 0x14D4 JUMP JUMPDEST SWAP1 DUP2 MSTORE PUSH1 0x20 ADD PUSH1 0x40 MLOAD DUP1 SWAP2 SUB SWAP1 KECCAK256 PUSH1 0x1 ADD DUP1 SLOAD PUSH2 0x189 SWAP1 PUSH2 0x1517 JUMP JUMPDEST SWAP1 POP GT SWAP1 POP SWAP2 SWAP1 POP JUMP JUMPDEST PUSH2 0x19B PUSH2 0xB77 JUMP JUMPDEST PUSH0 DUP2 PUSH1 0x20 ADD MLOAD MLOAD GT PUSH2 0x1E2 JUMPI PUSH1 0x40 MLOAD PUSH32 0x8C379A000000000000000000000000000000000000000000000000000000000 DUP2 MSTORE PUSH1 0x4 ADD PUSH2 0x1D9 SWAP1 PUSH2 0x15A1 JUMP JUMPDEST PUSH1 0x40 MLOAD DUP1 SWAP2 SUB SWAP1 REVERT JUMPDEST PUSH0 DUP2 PUSH1 0x60 ADD MLOAD GT PUSH2 0x228 JUMPI PUSH1 0x40 MLOAD PUSH32 0x8C379A000000000000000000000000000000000000000000000000000000000 DUP2 MSTORE PUSH1 0x4 ADD PUSH2 0x21F SWAP1 PUSH2 0x1609 JUMP JUMPDEST PUSH1 0x40 MLOAD DUP1 SWAP2 SUB SWAP1 REVERT JUMPDEST PUSH0 DUP2 PUSH1 0x40 ADD MLOAD MLOAD GT PUSH2 0x26F JUMPI PUSH1 0x40 MLOAD PUSH32 0x8C379A000000000000000000000000000000000000000000000000000000000 DUP2 MSTORE PUSH1 0x4 ADD PUSH2 0x266 SWAP1 PUSH2 0x1671 JUMP JUMPDEST PUSH1 0x40 MLOAD DUP1 SWAP2 SUB SWAP1 REVERT JUMPDEST PUSH0 PUSH1 0x1 DUP3 PUSH1 0x20 ADD MLOAD PUSH1 0x40 MLOAD PUSH2 0x284 SWAP2 SWAP1 PUSH2 0x14D4 JUMP JUMPDEST SWAP1 DUP2 MSTORE PUSH1 0x20 ADD PUSH1 0x40 MLOAD DUP1 SWAP2 SUB SWAP1 KECCAK256 SWAP1 POP DUP2 PUSH0 ADD MLOAD DUP2 PUSH0 ADD SWAP1 DUP2 PUSH2 0x2A7 SWAP2 SWAP1 PUSH2 0x182F JUMP JUMPDEST POP DUP2 PUSH1 0x20 ADD MLOAD DUP2 PUSH1 0x1 ADD SWAP1 DUP2 PUSH2 0x2BD SWAP2 SWAP1 PUSH2 0x182F JUMP JUMPDEST POP DUP2 PUSH1 0x40 ADD MLOAD DUP2 PUSH1 0x2 ADD SWAP1 DUP2 PUSH2 0x2D3 SWAP2 SWAP1 PUSH2 0x182F JUMP JUMPDEST POP DUP2 PUSH1 0x60 ADD MLOAD DUP2 PUSH1 0x3 ADD DUP2 SWAP1 SSTORE POP DUP2 PUSH1 0x80 ADD MLOAD DUP2 PUSH1 0x4 ADD SWAP1 DUP2 PUSH2 0x2F6 SWAP2 SWAP1 PUSH2 0x182F JUMP JUMPDEST POP DUP2 PUSH1 0xA0 ADD MLOAD DUP2 PUSH1 0x5 ADD DUP2 SWAP1 SSTORE POP DUP2 PUSH1 0xC0 ADD MLOAD DUP2 PUSH1 0x6 ADD SWAP1 DUP2 PUSH2 0x319 SWAP2 SWAP1 PUSH2 0x182F JUMP JUMPDEST POP DUP2 PUSH1 0xE0 ADD MLOAD DUP2 PUSH1 0x7 ADD SWAP1 DUP2 PUSH2 0x32F SWAP2 SWAP1 PUSH2 0x182F JUMP JUMPDEST POP TIMESTAMP DUP2 PUSH1 0x8 ADD DUP2 SWAP1 SSTORE POP DUP2 PUSH2 0x120 ADD MLOAD DUP2 PUSH1 0x9 ADD SWAP1 DUP2 PUSH2 0x34F SWAP2 SWAP1 PUSH2 0x182F JUMP JUMPDEST POP PUSH0 DUP2 PUSH1 0xA ADD PUSH0 PUSH2 0x100 EXP DUP2 SLOAD DUP2 PUSH1 0xFF MUL NOT AND SWAP1 DUP4 ISZERO ISZERO MUL OR SWAP1 SSTORE POP DUP2 PUSH2 0x160 ADD MLOAD DUP2 PUSH1 0xB ADD SWAP1 DUP2 PUSH2 0x381 SWAP2 SWAP1 PUSH2 0x182F JUMP JUMPDEST POP DUP2 PUSH2 0x180 ADD MLOAD DUP2 PUSH1 0xC ADD SWAP1 DUP2 PUSH2 0x398 SWAP2 SWAP1 PUSH2 0x182F JUMP JUMPDEST POP DUP2 PUSH2 0x1A0 ADD MLOAD DUP2 PUSH1 0xD ADD DUP2 SWAP1 SSTORE POP DUP2 PUSH1 0x20 ADD MLOAD PUSH1 0x40 MLOAD PUSH2 0x3B9 SWAP2 SWAP1 PUSH2 0x14D4 JUMP JUMPDEST PUSH1 0x40 MLOAD DUP1 SWAP2 SUB SWAP1 KECCAK256 PUSH32 0xC961B12288ACBF4EB41FB8EDA6B6FDDA3523AF3060C8CF53123A0BB0723CF8BA DUP4 PUSH1 0x60 ADD MLOAD DUP5 PUSH1 0xE0 ADD MLOAD PUSH1 0x40 MLOAD PUSH2 0x3FA SWAP3 SWAP2 SWAP1 PUSH2 0x1945 JUMP JUMPDEST PUSH1 0x40 MLOAD DUP1 SWAP2 SUB SWAP1 LOG2 POP POP JUMP JUMPDEST PUSH2 0x40E PUSH2 0xB77 JUMP JUMPDEST PUSH0 PUSH1 0x1 DUP3 PUSH1 0x40 MLOAD PUSH2 0x41F SWAP2 SWAP1 PUSH2 0x14D4 JUMP JUMPDEST SWAP1 DUP2 MSTORE PUSH1 0x20 ADD PUSH1 0x40 MLOAD DUP1 SWAP2 SUB SWAP1 KECCAK256 SWAP1 POP PUSH0 DUP2 PUSH1 0x1 ADD DUP1 SLOAD PUSH2 0x43F SWAP1 PUSH2 0x1517 JUMP JUMPDEST SWAP1 POP GT PUSH2 0x481 JUMPI PUSH1 0x40 MLOAD PUSH32 0x8C379A000000000000000000000000000000000000000000000000000000000 DUP2 MSTORE PUSH1 0x4 ADD PUSH2 0x478 SWAP1 PUSH2 0x19BD JUMP JUMPDEST PUSH1 0x40 MLOAD DUP1 SWAP2 SUB SWAP1 REVERT JUMPDEST PUSH1 0x1 DUP2 PUSH1 0xA ADD PUSH0 PUSH2 0x100 EXP DUP2 SLOAD DUP2 PUSH1 0xFF MUL NOT AND SWAP1 DUP4 ISZERO ISZERO MUL OR SWAP1 SSTORE POP DUP2 PUSH1 0x40 MLOAD PUSH2 0x4AB SWAP2 SWAP1 PUSH2 0x14D4 JUMP JUMPDEST PUSH1 0x40 MLOAD DUP1 SWAP2 SUB SWAP1 KECCAK256 PUSH32 0xF8A0E437DEAAB453BE503DFAE13B305A2DC99A6B6A650F58A9B116BCAF48DAFB PUSH1 0x40 MLOAD PUSH1 0x40 MLOAD DUP1 SWAP2 SUB SWAP1 LOG2 POP POP JUMP JUMPDEST PUSH2 0x4EB PUSH2 0xB77 JUMP JUMPDEST PUSH2 0x4F4 PUSH0 PUSH2 0xBFE JUMP JUMPDEST JUMP JUMPDEST PUSH0 PUSH0 PUSH0 SWAP1 SLOAD SWAP1 PUSH2 0x100 EXP SWAP1 DIV PUSH20 0xFFFFFFFFFFFFFFFFFFFFFFFFFFFFFFFFFFFFFFFF AND SWAP1 POP SWAP1 JUMP JUMPDEST PUSH2 0x525 PUSH2 0xCC6 JUMP JUMPDEST PUSH0 PUSH1 0x1 DUP4 PUSH1 0x40 MLOAD PUSH2 0x536 SWAP2 SWAP1 PUSH2 0x14D4 JUMP JUMPDEST SWAP1 DUP2 MSTORE PUSH1 0x20 ADD PUSH1 0x40 MLOAD DUP1 SWAP2 SUB SWAP1 KECCAK256 PUSH1 0x40 MLOAD DUP1 PUSH2 0x1C0 ADD PUSH1 0x40 MSTORE SWAP1 DUP2 PUSH0 DUP3 ADD DUP1 SLOAD PUSH2 0x55F SWAP1 PUSH2 0x1517 JUMP JUMPDEST DUP1 PUSH1 0x1F ADD PUSH1 0x20 DUP1 SWAP2 DIV MUL PUSH1 0x20 ADD PUSH1 0x40 MLOAD SWAP1 DUP2 ADD PUSH1 0x40 MSTORE DUP1 SWAP3 SWAP2 SWAP1 DUP2 DUP2 MSTORE PUSH1 0x20 ADD DUP3 DUP1 SLOAD PUSH2 0x58B SWAP1 PUSH2 0x1517 JUMP JUMPDEST DUP1 ISZERO PUSH2 0x5D6 JUMPI DUP1 PUSH1 0x1F LT PUSH2 0x5AD JUMPI PUSH2 0x100 DUP1 DUP4 SLOAD DIV MUL DUP4 MSTORE SWAP2 PUSH1 0x20 ADD SWAP2 PUSH2 0x5D6 JUMP JUMPDEST DUP3 ADD SWAP2 SWAP1 PUSH0 MSTORE PUSH1 0x20 PUSH0 KECCAK256 SWAP1 JUMPDEST DUP2 SLOAD DUP2 MSTORE SWAP1 PUSH1 0x1 ADD SWAP1 PUSH1 0x20 ADD DUP1 DUP4 GT PUSH2 0x5B9 JUMPI DUP3 SWAP1 SUB PUSH1 0x1F AND DUP3 ADD SWAP2 JUMPDEST POP POP POP POP POP DUP2 MSTORE PUSH1 0x20 ADD PUSH1 0x1 DUP3 ADD DUP1 SLOAD PUSH2 0x5EF SWAP1 PUSH2 0x1517 JUMP JUMPDEST DUP1 PUSH1 0x1F ADD PUSH1 0x20 DUP1 SWAP2 DIV MUL PUSH1 0x20 ADD PUSH1 0x40 MLOAD SWAP1 DUP2 ADD PUSH1 0x40 MSTORE DUP1 SWAP3 SWAP2 SWAP1 DUP2 DUP2 MSTORE PUSH1 0x20 ADD DUP3 DUP1 SLOAD PUSH2 0x61B SWAP1 PUSH2 0x1517 JUMP JUMPDEST DUP1 ISZERO PUSH2 0x666 JUMPI DUP1 PUSH1 0x1F LT PUSH2 0x63D JUMPI PUSH2 0x100 DUP1 DUP4 SLOAD DIV MUL DUP4 MSTORE SWAP2 PUSH1 0x20 ADD SWAP2 PUSH2 0x666 JUMP JUMPDEST DUP3 ADD SWAP2 SWAP1 PUSH0 MSTORE PUSH1 0x20 PUSH0 KECCAK256 SWAP1 JUMPDEST DUP2 SLOAD DUP2 MSTORE SWAP1 PUSH1 0x1 ADD SWAP1 PUSH1 0x20 ADD DUP1 DUP4 GT PUSH2 0x649 JUMPI DUP3 SWAP1 SUB PUSH1 0x1F AND DUP3 ADD SWAP2 JUMPDEST POP POP POP POP POP DUP2 MSTORE PUSH1 0x20 ADD PUSH1 0x2 DUP3 ADD DUP1 SLOAD PUSH2 0x67F SWAP1 PUSH2 0x1517 JUMP JUMPDEST DUP1 PUSH1 0x1F ADD PUSH1 0x20 DUP1 SWAP2 DIV MUL PUSH1 0x20 ADD PUSH1 0x40 MLOAD SWAP1 DUP2 ADD PUSH1 0x40 MSTORE DUP1 SWAP3 SWAP2 SWAP1 DUP2 DUP2 MSTORE PUSH1 0x20 ADD DUP3 DUP1 SLOAD PUSH2 0x6AB SWAP1 PUSH2 0x1517 JUMP JUMPDEST DUP1 ISZERO PUSH2 0x6F6 JUMPI DUP1 PUSH1 0x1F LT PUSH2 0x6CD JUMPI PUSH2 0x100 DUP1 DUP4 SLOAD DIV MUL DUP4 MSTORE SWAP2 PUSH1 0x20 ADD SWAP2 PUSH2 0x6F6 JUMP JUMPDEST DUP3 ADD SWAP2 SWAP1 PUSH0 MSTORE PUSH1 0x20 PUSH0 KECCAK256 SWAP1 JUMPDEST DUP2 SLOAD DUP2 MSTORE SWAP1 PUSH1 0x1 ADD SWAP1 PUSH1 0x20 ADD DUP1 DUP4 GT PUSH2 0x6D9 JUMPI DUP3 SWAP1 SUB PUSH1 0x1F AND DUP3 ADD SWAP2 JUMPDEST POP POP POP POP POP DUP2 MSTORE PUSH1 0x20 ADD PUSH1 0x3 DUP3 ADD SLOAD DUP2 MSTORE PUSH1 0x20 ADD PUSH1 0x4 DUP3 ADD DUP1 SLOAD PUSH2 0x719 SWAP1 PUSH2 0x1517 JUMP JUMPDEST DUP1 PUSH1 0x1F ADD PUSH1 0x20 DUP1 SWAP2 DIV MUL PUSH1 0x20 ADD PUSH1 0x40 MLOAD SWAP1 DUP2 ADD PUSH1 0x40 MSTORE DUP1 SWAP3 SWAP2 SWAP1 DUP2 DUP2 MSTORE PUSH1 0x20 ADD DUP3 DUP1 SLOAD PUSH2 0x745 SWAP1 PUSH2 0x1517 JUMP JUMPDEST DUP1 ISZERO PUSH2 0x790 JUMPI DUP1 PUSH1 0x1F LT PUSH2 0x767 JUMPI PUSH2 0x100 DUP1 DUP4 SLOAD DIV MUL DUP4 MSTORE SWAP2 PUSH1 0x20 ADD SWAP2 PUSH2 0x790 JUMP JUMPDEST DUP3 ADD SWAP2 SWAP1 PUSH0 MSTORE PUSH1 0x20 PUSH0 KECCAK256 SWAP1 JUMPDEST DUP2 SLOAD DUP2 MSTORE SWAP1 PUSH1 0x1 ADD SWAP1 PUSH1 0x20 ADD DUP1 DUP4 GT PUSH2 0x773 JUMPI DUP3 SWAP1 SUB PUSH1 0x1F AND DUP3 ADD SWAP2 JUMPDEST POP POP POP POP POP DUP2 MSTORE PUSH1 0x20 ADD PUSH1 0x5 DUP3 ADD SLOAD DUP2 MSTORE PUSH1 0x20 ADD PUSH1 0x6 DUP3 ADD DUP1 SLOAD PUSH2 0x7B3 SWAP1 PUSH2 0x1517 JUMP JUMPDEST DUP1 PUSH1 0x1F ADD PUSH1 0x20 DUP1 SWAP2 DIV MUL PUSH1 0x20 ADD PUSH1 0x40 MLOAD SWAP1 DUP2 ADD PUSH1 0x40 MSTORE DUP1 SWAP3 SWAP2 SWAP1 DUP2 DUP2 MSTORE PUSH1 0x20 ADD DUP3 DUP1 SLOAD PUSH2 0x7DF SWAP1 PUSH2 0x1517 JUMP JUMPDEST DUP1 ISZERO PUSH2 0x82A JUMPI DUP1 PUSH1 0x1F LT PUSH2 0x801 JUMPI PUSH2 0x100 DUP1 DUP4 SLOAD DIV MUL DUP4 MSTORE SWAP2 PUSH1 0x20 ADD SWAP2 PUSH2 0x82A JUMP JUMPDEST DUP3 ADD SWAP2 SWAP1 PUSH0 MSTORE PUSH1 0x20 PUSH0 KECCAK256 SWAP1 JUMPDEST DUP2 SLOAD DUP2 MSTORE SWAP1 PUSH1 0x1 ADD SWAP1 PUSH1 0x20 ADD DUP1 DUP4 GT PUSH2 0x80D JUMPI DUP3 SWAP1 SUB PUSH1 0x1F AND DUP3 ADD SWAP2 JUMPDEST POP POP POP POP POP DUP2 MSTORE PUSH1 0x20 ADD PUSH1 0x7 DUP3 ADD DUP1 SLOAD PUSH2 0x843 SWAP1 PUSH2 0x1517 JUMP JUMPDEST DUP1 PUSH1 0x1F ADD PUSH1 0x20 DUP1 SWAP2 DIV MUL PUSH1 0x20 ADD PUSH1 0x40 MLOAD SWAP1 DUP2 ADD PUSH1 0x40 MSTORE DUP1 SWAP3 SWAP2 SWAP1 DUP2 DUP2 MSTORE PUSH1 0x20 ADD DUP3 DUP1 SLOAD PUSH2 0x86F SWAP1 PUSH2 0x1517 JUMP JUMPDEST DUP1 ISZERO PUSH2 0x8BA JUMPI DUP1 PUSH1 0x1F LT PUSH2 0x891 JUMPI PUSH2 0x100 DUP1 DUP4 SLOAD DIV MUL DUP4 MSTORE SWAP2 PUSH1 0x20 ADD SWAP2 PUSH2 0x8BA JUMP JUMPDEST DUP3 ADD SWAP2 SWAP1 PUSH0 MSTORE PUSH1 0x20 PUSH0 KECCAK256 SWAP1 JUMPDEST DUP2 SLOAD DUP2 MSTORE SWAP1 PUSH1 0x1 ADD SWAP1 PUSH1 0x20 ADD DUP1 DUP4 GT PUSH2 0x89D JUMPI DUP3 SWAP1 SUB PUSH1 0x1F AND DUP3 ADD SWAP2 JUMPDEST POP POP POP POP POP DUP2 MSTORE PUSH1 0x20 ADD PUSH1 0x8 DUP3 ADD SLOAD DUP2 MSTORE PUSH1 0x20 ADD PUSH1 0x9 DUP3 ADD DUP1 SLOAD PUSH2 0x8DD SWAP1 PUSH2 0x1517 JUMP JUMPDEST DUP1 PUSH1 0x1F ADD PUSH1 0x20 DUP1 SWAP2 DIV MUL PUSH1 0x20 ADD PUSH1 0x40 MLOAD SWAP1 DUP2 ADD PUSH1 0x40 MSTORE DUP1 SWAP3 SWAP2 SWAP1 DUP2 DUP2 MSTORE PUSH1 0x20 ADD DUP3 DUP1 SLOAD PUSH2 0x909 SWAP1 PUSH2 0x1517 JUMP JUMPDEST DUP1 ISZERO PUSH2 0x954 JUMPI DUP1 PUSH1 0x1F LT PUSH2 0x92B JUMPI PUSH2 0x100 DUP1 DUP4 SLOAD DIV MUL DUP4 MSTORE SWAP2 PUSH1 0x20 ADD SWAP2 PUSH2 0x954 JUMP JUMPDEST DUP3 ADD SWAP2 SWAP1 PUSH0 MSTORE PUSH1 0x20 PUSH0 KECCAK256 SWAP1 JUMPDEST DUP2 SLOAD DUP2 MSTORE SWAP1 PUSH1 0x1 ADD SWAP1 PUSH1 0x20 ADD DUP1 DUP4 GT PUSH2 0x937 JUMPI DUP3 SWAP1 SUB PUSH1 0x1F AND DUP3 ADD SWAP2 JUMPDEST POP POP POP POP POP DUP2 MSTORE PUSH1 0x20 ADD PUSH1 0xA DUP3 ADD PUSH0 SWAP1 SLOAD SWAP1 PUSH2 0x100 EXP SWAP1 DIV PUSH1 0xFF AND ISZERO ISZERO ISZERO ISZERO DUP2 MSTORE PUSH1 0x20 ADD PUSH1 0xB DUP3 ADD DUP1 SLOAD PUSH2 0x987 SWAP1 PUSH2 0x1517 JUMP JUMPDEST DUP1 PUSH1 0x1F ADD PUSH1 0x20 DUP1 SWAP2 DIV MUL PUSH1 0x20 ADD PUSH1 0x40 MLOAD SWAP1 DUP2 ADD PUSH1 0x40 MSTORE DUP1 SWAP3 SWAP2 SWAP1 DUP2 DUP2 MSTORE PUSH1 0x20 ADD DUP3 DUP1 SLOAD PUSH2 0x9B3 SWAP1 PUSH2 0x1517 JUMP JUMPDEST DUP1 ISZERO PUSH2 0x9FE JUMPI DUP1 PUSH1 0x1F LT PUSH2 0x9D5 JUMPI PUSH2 0x100 DUP1 DUP4 SLOAD DIV MUL DUP4 MSTORE SWAP2 PUSH1 0x20 ADD SWAP2 PUSH2 0x9FE JUMP JUMPDEST DUP3 ADD SWAP2 SWAP1 PUSH0 MSTORE PUSH1 0x20 PUSH0 KECCAK256 SWAP1 JUMPDEST DUP2 SLOAD DUP2 MSTORE SWAP1 PUSH1 0x1 ADD SWAP1 PUSH1 0x20 ADD DUP1 DUP4 GT PUSH2 0x9E1 JUMPI DUP3 SWAP1 SUB PUSH1 0x1F AND DUP3 ADD SWAP2 JUMPDEST POP POP POP POP POP DUP2 MSTORE PUSH1 0x20 ADD PUSH1 0xC DUP3 ADD DUP1 SLOAD PUSH2 0xA17 SWAP1 PUSH2 0x1517 JUMP JUMPDEST DUP1 PUSH1 0x1F ADD PUSH1 0x20 DUP1 SWAP2 DIV MUL PUSH1 0x20 ADD PUSH1 0x40 MLOAD SWAP1 DUP2 ADD PUSH1 0x40 MSTORE DUP1 SWAP3 SWAP2 SWAP1 DUP2 DUP2 MSTORE PUSH1 0x20 ADD DUP3 DUP1 SLOAD PUSH2 0xA43 SWAP1 PUSH2 0x1517 JUMP JUMPDEST DUP1 ISZERO PUSH2 0xA8E JUMPI DUP1 PUSH1 0x1F LT PUSH2 0xA65 JUMPI PUSH2 0x100 DUP1 DUP4 SLOAD DIV MUL DUP4 MSTORE SWAP2 PUSH1 0x20 ADD SWAP2 PUSH2 0xA8E JUMP JUMPDEST DUP3 ADD SWAP2 SWAP1 PUSH0 MSTORE PUSH1 0x20 PUSH0 KECCAK256 SWAP1 JUMPDEST DUP2 SLOAD DUP2 MSTORE SWAP1 PUSH1 0x1 ADD SWAP1 PUSH1 0x20 ADD DUP1 DUP4 GT PUSH2 0xA71 JUMPI DUP3 SWAP1 SUB PUSH1 0x1F AND DUP3 ADD SWAP2 JUMPDEST POP POP POP POP POP DUP2 MSTORE PUSH1 0x20 ADD PUSH1 0xD DUP3 ADD SLOAD DUP2 MSTORE POP POP SWAP1 POP PUSH0 DUP2 PUSH1 0x20 ADD MLOAD MLOAD GT PUSH2 0xAEA JUMPI PUSH1 0x40 MLOAD PUSH32 0x8C379A000000000000000000000000000000000000000000000000000000000 DUP2 MSTORE PUSH1 0x4 ADD PUSH2 0xAE1 SWAP1 PUSH2 0x19BD JUMP JUMPDEST PUSH1 0x40 MLOAD DUP1 SWAP2 SUB SWAP1 REVERT JUMPDEST DUP1 SWAP2 POP POP SWAP2 SWAP1 POP JUMP JUMPDEST PUSH2 0xAFB PUSH2 0xB77 JUMP JUMPDEST PUSH0 PUSH20 0xFFFFFFFFFFFFFFFFFFFFFFFFFFFFFFFFFFFFFFFF AND DUP2 PUSH20 0xFFFFFFFFFFFFFFFFFFFFFFFFFFFFFFFFFFFFFFFF AND SUB PUSH2 0xB6B JUMPI PUSH0 PUSH1 0x40 MLOAD PUSH32 0x1E4FBDF700000000000000000000000000000000000000000000000000000000 DUP2 MSTORE PUSH1 0x4 ADD PUSH2 0xB62 SWAP2 SWAP1 PUSH2 0x122B JUMP JUMPDEST PUSH1 0x40 MLOAD DUP1 SWAP2 SUB SWAP1 REVERT JUMPDEST PUSH2 0xB74 DUP2 PUSH2 0xBFE JUMP JUMPDEST POP JUMP JUMPDEST PUSH2 0xB7F PUSH2 0xCBF JUMP JUMPDEST PUSH20 0xFFFFFFFFFFFFFFFFFFFFFFFFFFFFFFFFFFFFFFFF AND PUSH2 0xB9D PUSH2 0x4F6 JUMP JUMPDEST PUSH20 0xFFFFFFFFFFFFFFFFFFFFFFFFFFFFFFFFFFFFFFFF AND EQ PUSH2 0xBFC JUMPI PUSH2 0xBC0 PUSH2 0xCBF JUMP JUMPDEST PUSH1 0x40 MLOAD PUSH32 0x118CDAA700000000000000000000000000000000000000000000000000000000 DUP2 MSTORE PUSH1 0x4 ADD PUSH2 0xBF3 SWAP2 SWAP1 PUSH2 0x122B JUMP JUMPDEST PUSH1 0x40 MLOAD DUP1 SWAP2 SUB SWAP1 REVERT JUMPDEST JUMP JUMPDEST PUSH0 PUSH0 PUSH0 SWAP1 SLOAD SWAP1 PUSH2 0x100 EXP SWAP1 DIV PUSH20 0xFFFFFFFFFFFFFFFFFFFFFFFFFFFFFFFFFFFFFFFF AND SWAP1 POP DUP2 PUSH0 PUSH0 PUSH2 0x100 EXP DUP2 SLOAD DUP2 PUSH20 0xFFFFFFFFFFFFFFFFFFFFFFFFFFFFFFFFFFFFFFFF MUL NOT AND SWAP1 DUP4 PUSH20 0xFFFFFFFFFFFFFFFFFFFFFFFFFFFFFFFFFFFFFFFF AND MUL OR SWAP1 SSTORE POP DUP2 PUSH20 0xFFFFFFFFFFFFFFFFFFFFFFFFFFFFFFFFFFFFFFFF AND DUP2 PUSH20 0xFFFFFFFFFFFFFFFFFFFFFFFFFFFFFFFFFFFFFFFF AND PUSH32 0x8BE0079C531659141344CD1FD0A4F28419497F9722A3DAAFE3B4186F6B6457E0 PUSH1 0x40 MLOAD PUSH1 0x40 MLOAD DUP1 SWAP2 SUB SWAP1 LOG3 POP POP JUMP JUMPDEST PUSH0 CALLER SWAP1 POP SWAP1 JUMP JUMPDEST PUSH1 0x40 MLOAD DUP1 PUSH2 0x1C0 ADD PUSH1 0x40 MSTORE DUP1 PUSH1 0x60 DUP2 MSTORE PUSH1 0x20 ADD PUSH1 0x60 DUP2 MSTORE PUSH1 0x20 ADD PUSH1 0x60 DUP2 MSTORE PUSH1 0x20 ADD PUSH0 DUP2 MSTORE PUSH1 0x20 ADD PUSH1 0x60 DUP2 MSTORE PUSH1 0x20 ADD PUSH0 DUP2 MSTORE PUSH1 0x20 ADD PUSH1 0x60 DUP2 MSTORE PUSH1 0x20 ADD PUSH1 0x60 DUP2 MSTORE PUSH1 0x20 ADD PUSH0 DUP2 MSTORE PUSH1 0x20 ADD PUSH1 0x60 DUP2 MSTORE PUSH1 0x20 ADD PUSH0 ISZERO ISZERO DUP2 MSTORE PUSH1 0x20 ADD PUSH1 0x60 DUP2 MSTORE PUSH1 0x20 ADD PUSH1 0x60 DUP2 MSTORE PUSH1 0x20 ADD PUSH0 DUP2 MSTORE POP SWAP1 JUMP JUMPDEST PUSH0 PUSH1 0x40 MLOAD SWAP1 POP SWAP1 JUMP JUMPDEST PUSH0 PUSH0 REVERT JUMPDEST PUSH0 PUSH0 REVERT JUMPDEST PUSH0 PUSH0 REVERT JUMPDEST PUSH0 PUSH0 REVERT JUMPDEST PUSH0 PUSH1 0x1F NOT PUSH1 0x1F DUP4 ADD AND SWAP1 POP SWAP2 SWAP1 POP JUMP JUMPDEST PUSH32 0x4E487B7100000000000000000000000000000000000000000000000000000000 PUSH0 MSTORE PUSH1 0x41 PUSH1 0x4 MSTORE PUSH1 0x24 PUSH0 REVERT JUMPDEST PUSH2 0xD91 DUP3 PUSH2 0xD4B JUMP JUMPDEST DUP2 ADD DUP2 DUP2 LT PUSH8 0xFFFFFFFFFFFFFFFF DUP3 GT OR ISZERO PUSH2 0xDB0 JUMPI PUSH2 0xDAF PUSH2 0xD5B JUMP JUMPDEST JUMPDEST DUP1 PUSH1 0x40 MSTORE POP POP POP JUMP JUMPDEST PUSH0 PUSH2 0xDC2 PUSH2 0xD32 JUMP JUMPDEST SWAP1 POP PUSH2 0xDCE DUP3 DUP3 PUSH2 0xD88 JUMP JUMPDEST SWAP2 SWAP1 POP JUMP JUMPDEST PUSH0 PUSH8 0xFFFFFFFFFFFFFFFF DUP3 GT ISZERO PUSH2 0xDED JUMPI PUSH2 0xDEC PUSH2 0xD5B JUMP JUMPDEST JUMPDEST PUSH2 0xDF6 DUP3 PUSH2 0xD4B JUMP JUMPDEST SWAP1 POP PUSH1 0x20 DUP2 ADD SWAP1 POP SWAP2 SWAP1 POP JUMP JUMPDEST DUP3 DUP2 DUP4 CALLDATACOPY PUSH0 DUP4 DUP4 ADD MSTORE POP POP POP JUMP JUMPDEST PUSH0 PUSH2 0xE23 PUSH2 0xE1E DUP5 PUSH2 0xDD3 JUMP JUMPDEST PUSH2 0xDB9 JUMP JUMPDEST SWAP1 POP DUP3 DUP2 MSTORE PUSH1 0x20 DUP2 ADD DUP5 DUP5 DUP5 ADD GT ISZERO PUSH2 0xE3F JUMPI PUSH2 0xE3E PUSH2 0xD47 JUMP JUMPDEST JUMPDEST PUSH2 0xE4A DUP5 DUP3 DUP6 PUSH2 0xE03 JUMP JUMPDEST POP SWAP4 SWAP3 POP POP POP JUMP JUMPDEST PUSH0 DUP3 PUSH1 0x1F DUP4 ADD SLT PUSH2 0xE66 JUMPI PUSH2 0xE65 PUSH2 0xD43 JUMP JUMPDEST JUMPDEST DUP2 CALLDATALOAD PUSH2 0xE76 DUP5 DUP3 PUSH1 0x20 DUP7 ADD PUSH2 0xE11 JUMP JUMPDEST SWAP2 POP POP SWAP3 SWAP2 POP POP JUMP JUMPDEST PUSH0 PUSH1 0x20 DUP3 DUP5 SUB SLT ISZERO PUSH2 0xE94 JUMPI PUSH2 0xE93 PUSH2 0xD3B JUMP JUMPDEST JUMPDEST PUSH0 DUP3 ADD CALLDATALOAD PUSH8 0xFFFFFFFFFFFFFFFF DUP2 GT ISZERO PUSH2 0xEB1 JUMPI PUSH2 0xEB0 PUSH2 0xD3F JUMP JUMPDEST JUMPDEST PUSH2 0xEBD DUP5 DUP3 DUP6 ADD PUSH2 0xE52 JUMP JUMPDEST SWAP2 POP POP SWAP3 SWAP2 POP POP JUMP JUMPDEST PUSH0 DUP2 ISZERO ISZERO SWAP1 POP SWAP2 SWAP1 POP JUMP JUMPDEST PUSH2 0xEDA DUP2 PUSH2 0xEC6 JUMP JUMPDEST DUP3 MSTORE POP POP JUMP JUMPDEST PUSH0 PUSH1 0x20 DUP3 ADD SWAP1 POP PUSH2 0xEF3 PUSH0 DUP4 ADD DUP5 PUSH2 0xED1 JUMP JUMPDEST SWAP3 SWAP2 POP POP JUMP JUMPDEST PUSH0 PUSH0 REVERT JUMPDEST PUSH0 PUSH0 REVERT JUMPDEST PUSH0 DUP2 SWAP1 POP SWAP2 SWAP1 POP JUMP JUMPDEST PUSH2 0xF13 DUP2 PUSH2 0xF01 JUMP JUMPDEST DUP2 EQ PUSH2 0xF1D JUMPI PUSH0 PUSH0 REVERT JUMPDEST POP JUMP JUMPDEST PUSH0 DUP2 CALLDATALOAD SWAP1 POP PUSH2 0xF2E DUP2 PUSH2 0xF0A JUMP JUMPDEST SWAP3 SWAP2 POP POP JUMP JUMPDEST PUSH2 0xF3D DUP2 PUSH2 0xEC6 JUMP JUMPDEST DUP2 EQ PUSH2 0xF47 JUMPI PUSH0 PUSH0 REVERT JUMPDEST POP JUMP JUMPDEST PUSH0 DUP2 CALLDATALOAD SWAP1 POP PUSH2 0xF58 DUP2 PUSH2 0xF34 JUMP JUMPDEST SWAP3 SWAP2 POP POP JUMP JUMPDEST PUSH0 PUSH2 0x1C0 DUP3 DUP5 SUB SLT ISZERO PUSH2 0xF74 JUMPI PUSH2 0xF73 PUSH2 0xEF9 JUMP JUMPDEST JUMPDEST PUSH2 0xF7F PUSH2 0x1C0 PUSH2 0xDB9 JUMP JUMPDEST SWAP1 POP PUSH0 DUP3 ADD CALLDATALOAD PUSH8 0xFFFFFFFFFFFFFFFF DUP2 GT ISZERO PUSH2 0xF9E JUMPI PUSH2 0xF9D PUSH2 0xEFD JUMP JUMPDEST JUMPDEST PUSH2 0xFAA DUP5 DUP3 DUP6 ADD PUSH2 0xE52 JUMP JUMPDEST PUSH0 DUP4 ADD MSTORE POP PUSH1 0x20 DUP3 ADD CALLDATALOAD PUSH8 0xFFFFFFFFFFFFFFFF DUP2 GT ISZERO PUSH2 0xFCD JUMPI PUSH2 0xFCC PUSH2 0xEFD JUMP JUMPDEST JUMPDEST PUSH2 0xFD9 DUP5 DUP3 DUP6 ADD PUSH2 0xE52 JUMP JUMPDEST PUSH1 0x20 DUP4 ADD MSTORE POP PUSH1 0x40 DUP3 ADD CALLDATALOAD PUSH8 0xFFFFFFFFFFFFFFFF DUP2 GT ISZERO PUSH2 0xFFD JUMPI PUSH2 0xFFC PUSH2 0xEFD JUMP JUMPDEST JUMPDEST PUSH2 0x1009 DUP5 DUP3 DUP6 ADD PUSH2 0xE52 JUMP JUMPDEST PUSH1 0x40 DUP4 ADD MSTORE POP PUSH1 0x60 PUSH2 0x101D DUP5 DUP3 DUP6 ADD PUSH2 0xF20 JUMP JUMPDEST PUSH1 0x60 DUP4 ADD MSTORE POP PUSH1 0x80 DUP3 ADD CALLDATALOAD PUSH8 0xFFFFFFFFFFFFFFFF DUP2 GT ISZERO PUSH2 0x1041 JUMPI PUSH2 0x1040 PUSH2 0xEFD JUMP JUMPDEST JUMPDEST PUSH2 0x104D DUP5 DUP3 DUP6 ADD PUSH2 0xE52 JUMP JUMPDEST PUSH1 0x80 DUP4 ADD MSTORE POP PUSH1 0xA0 PUSH2 0x1061 DUP5 DUP3 DUP6 ADD PUSH2 0xF20 JUMP JUMPDEST PUSH1 0xA0 DUP4 ADD MSTORE POP PUSH1 0xC0 DUP3 ADD CALLDATALOAD PUSH8 0xFFFFFFFFFFFFFFFF DUP2 GT ISZERO PUSH2 0x1085 JUMPI PUSH2 0x1084 PUSH2 0xEFD JUMP JUMPDEST JUMPDEST PUSH2 0x1091 DUP5 DUP3 DUP6 ADD PUSH2 0xE52 JUMP JUMPDEST PUSH1 0xC0 DUP4 ADD MSTORE POP PUSH1 0xE0 DUP3 ADD CALLDATALOAD PUSH8 0xFFFFFFFFFFFFFFFF DUP2 GT ISZERO PUSH2 0x10B5 JUMPI PUSH2 0x10B4 PUSH2 0xEFD JUMP JUMPDEST JUMPDEST PUSH2 0x10C1 DUP5 DUP3 DUP6 ADD PUSH2 0xE52 JUMP JUMPDEST PUSH1 0xE0 DUP4 ADD MSTORE POP PUSH2 0x100 PUSH2 0x10D6 DUP5 DUP3 DUP6 ADD PUSH2 0xF20 JUMP JUMPDEST PUSH2 0x100 DUP4 ADD MSTORE POP PUSH2 0x120 DUP3 ADD CALLDATALOAD PUSH8 0xFFFFFFFFFFFFFFFF DUP2 GT ISZERO PUSH2 0x10FC JUMPI PUSH2 0x10FB PUSH2 0xEFD JUMP JUMPDEST JUMPDEST PUSH2 0x1108 DUP5 DUP3 DUP6 ADD PUSH2 0xE52 JUMP JUMPDEST PUSH2 0x120 DUP4 ADD MSTORE POP PUSH2 0x140 PUSH2 0x111E DUP5 DUP3 DUP6 ADD PUSH2 0xF4A JUMP JUMPDEST PUSH2 0x140 DUP4 ADD MSTORE POP PUSH2 0x160 DUP3 ADD CALLDATALOAD PUSH8 0xFFFFFFFFFFFFFFFF DUP2 GT ISZERO PUSH2 0x1144 JUMPI PUSH2 0x1143 PUSH2 0xEFD JUMP JUMPDEST JUMPDEST PUSH2 0x1150 DUP5 DUP3 DUP6 ADD PUSH2 0xE52 JUMP JUMPDEST PUSH2 0x160 DUP4 ADD MSTORE POP PUSH2 0x180 DUP3 ADD CALLDATALOAD PUSH8 0xFFFFFFFFFFFFFFFF DUP2 GT ISZERO PUSH2 0x1176 JUMPI PUSH2 0x1175 PUSH2 0xEFD JUMP JUMPDEST JUMPDEST PUSH2 0x1182 DUP5 DUP3 DUP6 ADD PUSH2 0xE52 JUMP JUMPDEST PUSH2 0x180 DUP4 ADD MSTORE POP PUSH2 0x1A0 PUSH2 0x1198 DUP5 DUP3 DUP6 ADD PUSH2 0xF20 JUMP JUMPDEST PUSH2 0x1A0 DUP4 ADD MSTORE POP SWAP3 SWAP2 POP POP JUMP JUMPDEST PUSH0 PUSH1 0x20 DUP3 DUP5 SUB SLT ISZERO PUSH2 0x11BA JUMPI PUSH2 0x11B9 PUSH2 0xD3B JUMP JUMPDEST JUMPDEST PUSH0 DUP3 ADD CALLDATALOAD PUSH8 0xFFFFFFFFFFFFFFFF DUP2 GT ISZERO PUSH2 0x11D7 JUMPI PUSH2 0x11D6 PUSH2 0xD3F JUMP JUMPDEST JUMPDEST PUSH2 0x11E3 DUP5 DUP3 DUP6 ADD PUSH2 0xF5E JUMP JUMPDEST SWAP2 POP POP SWAP3 SWAP2 POP POP JUMP JUMPDEST PUSH0 PUSH20 0xFFFFFFFFFFFFFFFFFFFFFFFFFFFFFFFFFFFFFFFF DUP3 AND SWAP1 POP SWAP2 SWAP1 POP JUMP JUMPDEST PUSH0 PUSH2 0x1215 DUP3 PUSH2 0x11EC JUMP JUMPDEST SWAP1 POP SWAP2 SWAP1 POP JUMP JUMPDEST PUSH2 0x1225 DUP2 PUSH2 0x120B JUMP JUMPDEST DUP3 MSTORE POP POP JUMP JUMPDEST PUSH0 PUSH1 0x20 DUP3 ADD SWAP1 POP PUSH2 0x123E PUSH0 DUP4 ADD DUP5 PUSH2 0x121C JUMP JUMPDEST SWAP3 SWAP2 POP POP JUMP JUMPDEST PUSH0 DUP2 MLOAD SWAP1 POP SWAP2 SWAP1 POP JUMP JUMPDEST PUSH0 DUP3 DUP3 MSTORE PUSH1 0x20 DUP3 ADD SWAP1 POP SWAP3 SWAP2 POP POP JUMP JUMPDEST DUP3 DUP2 DUP4 MCOPY PUSH0 DUP4 DUP4 ADD MSTORE POP POP POP JUMP JUMPDEST PUSH0 PUSH2 0x1276 DUP3 PUSH2 0x1244 JUMP JUMPDEST PUSH2 0x1280 DUP2 DUP6 PUSH2 0x124E JUMP JUMPDEST SWAP4 POP PUSH2 0x1290 DUP2 DUP6 PUSH1 0x20 DUP7 ADD PUSH2 0x125E JUMP JUMPDEST PUSH2 0x1299 DUP2 PUSH2 0xD4B JUMP JUMPDEST DUP5 ADD SWAP2 POP POP SWAP3 SWAP2 POP POP JUMP JUMPDEST PUSH2 0x12AD DUP2 PUSH2 0xF01 JUMP JUMPDEST DUP3 MSTORE POP POP JUMP JUMPDEST PUSH2 0x12BC DUP2 PUSH2 0xEC6 JUMP JUMPDEST DUP3 MSTORE POP POP JUMP JUMPDEST PUSH0 PUSH2 0x1C0 DUP4 ADD PUSH0 DUP4 ADD MLOAD DUP5 DUP3 SUB PUSH0 DUP7 ADD MSTORE PUSH2 0x12DD DUP3 DUP3 PUSH2 0x126C JUMP JUMPDEST SWAP2 POP POP PUSH1 0x20 DUP4 ADD MLOAD DUP5 DUP3 SUB PUSH1 0x20 DUP7 ADD MSTORE PUSH2 0x12F7 DUP3 DUP3 PUSH2 0x126C JUMP JUMPDEST SWAP2 POP POP PUSH1 0x40 DUP4 ADD MLOAD DUP5 DUP3 SUB PUSH1 0x40 DUP7 ADD MSTORE PUSH2 0x1311 DUP3 DUP3 PUSH2 0x126C JUMP JUMPDEST SWAP2 POP POP PUSH1 0x60 DUP4 ADD MLOAD PUSH2 0x1326 PUSH1 0x60 DUP7 ADD DUP3 PUSH2 0x12A4 JUMP JUMPDEST POP PUSH1 0x80 DUP4 ADD MLOAD DUP5 DUP3 SUB PUSH1 0x80 DUP7 ADD MSTORE PUSH2 0x133E DUP3 DUP3 PUSH2 0x126C JUMP JUMPDEST SWAP2 POP POP PUSH1 0xA0 DUP4 ADD MLOAD PUSH2 0x1353 PUSH1 0xA0 DUP7 ADD DUP3 PUSH2 0x12A4 JUMP JUMPDEST POP PUSH1 0xC0 DUP4 ADD MLOAD DUP5 DUP3 SUB PUSH1 0xC0 DUP7 ADD MSTORE PUSH2 0x136B DUP3 DUP3 PUSH2 0x126C JUMP JUMPDEST SWAP2 POP POP PUSH1 0xE0 DUP4 ADD MLOAD DUP5 DUP3 SUB PUSH1 0xE0 DUP7 ADD MSTORE PUSH2 0x1385 DUP3 DUP3 PUSH2 0x126C JUMP JUMPDEST SWAP2 POP POP PUSH2 0x100 DUP4 ADD MLOAD PUSH2 0x139C PUSH2 0x100 DUP7 ADD DUP3 PUSH2 0x12A4 JUMP JUMPDEST POP PUSH2 0x120 DUP4 ADD MLOAD DUP5 DUP3 SUB PUSH2 0x120 DUP7 ADD MSTORE PUSH2 0x13B6 DUP3 DUP3 PUSH2 0x126C JUMP JUMPDEST SWAP2 POP POP PUSH2 0x140 DUP4 ADD MLOAD PUSH2 0x13CD PUSH2 0x140 DUP7 ADD DUP3 PUSH2 0x12B3 JUMP JUMPDEST POP PUSH2 0x160 DUP4 ADD MLOAD DUP5 DUP3 SUB PUSH2 0x160 DUP7 ADD MSTORE PUSH2 0x13E7 DUP3 DUP3 PUSH2 0x126C JUMP JUMPDEST SWAP2 POP POP PUSH2 0x180 DUP4 ADD MLOAD DUP5 DUP3 SUB PUSH2 0x180 DUP7 ADD MSTORE PUSH2 0x1403 DUP3 DUP3 PUSH2 0x126C JUMP JUMPDEST SWAP2 POP POP PUSH2 0x1A0 DUP4 ADD MLOAD PUSH2 0x141A PUSH2 0x1A0 DUP7 ADD DUP3 PUSH2 0x12A4 JUMP JUMPDEST POP DUP1 SWAP2 POP POP SWAP3 SWAP2 POP POP JUMP JUMPDEST PUSH0 PUSH1 0x20 DUP3 ADD SWAP1 POP DUP2 DUP2 SUB PUSH0 DUP4 ADD MSTORE PUSH2 0x143D DUP2 DUP5 PUSH2 0x12C2 JUMP JUMPDEST SWAP1 POP SWAP3 SWAP2 POP POP JUMP JUMPDEST PUSH2 0x144E DUP2 PUSH2 0x120B JUMP JUMPDEST DUP2 EQ PUSH2 0x1458 JUMPI PUSH0 PUSH0 REVERT JUMPDEST POP JUMP JUMPDEST PUSH0 DUP2 CALLDATALOAD SWAP1 POP PUSH2 0x1469 DUP2 PUSH2 0x1445 JUMP JUMPDEST SWAP3 SWAP2 POP POP JUMP JUMPDEST PUSH0 PUSH1 0x20 DUP3 DUP5 SUB SLT ISZERO PUSH2 0x1484 JUMPI PUSH2 0x1483 PUSH2 0xD3B JUMP JUMPDEST JUMPDEST PUSH0 PUSH2 0x1491 DUP5 DUP3 DUP6 ADD PUSH2 0x145B JUMP JUMPDEST SWAP2 POP POP SWAP3 SWAP2 POP POP JUMP JUMPDEST PUSH0 DUP2 SWAP1 POP SWAP3 SWAP2 POP POP JUMP JUMPDEST PUSH0 PUSH2 0x14AE DUP3 PUSH2 0x1244 JUMP JUMPDEST PUSH2 0x14B8 DUP2 DUP6 PUSH2 0x149A JUMP JUMPDEST SWAP4 POP PUSH2 0x14C8 DUP2 DUP6 PUSH1 0x20 DUP7 ADD PUSH2 0x125E JUMP JUMPDEST DUP1 DUP5 ADD SWAP2 POP POP SWAP3 SWAP2 POP POP JUMP JUMPDEST PUSH0 PUSH2 0x14DF DUP3 DUP5 PUSH2 0x14A4 JUMP JUMPDEST SWAP2 POP DUP2 SWAP1 POP SWAP3 SWAP2 POP POP JUMP JUMPDEST PUSH32 0x4E487B7100000000000000000000000000000000000000000000000000000000 PUSH0 MSTORE PUSH1 0x22 PUSH1 0x4 MSTORE PUSH1 0x24 PUSH0 REVERT JUMPDEST PUSH0 PUSH1 0x2 DUP3 DIV SWAP1 POP PUSH1 0x1 DUP3 AND DUP1 PUSH2 0x152E JUMPI PUSH1 0x7F DUP3 AND SWAP2 POP JUMPDEST PUSH1 0x20 DUP3 LT DUP2 SUB PUSH2 0x1541 JUMPI PUSH2 0x1540 PUSH2 0x14EA JUMP JUMPDEST JUMPDEST POP SWAP2 SWAP1 POP JUMP JUMPDEST PUSH0 DUP3 DUP3 MSTORE PUSH1 0x20 DUP3 ADD SWAP1 POP SWAP3 SWAP2 POP POP JUMP JUMPDEST PUSH32 0x5472616E73616374696F6E204944207265717569726564000000000000000000 PUSH0 DUP3 ADD MSTORE POP JUMP JUMPDEST PUSH0 PUSH2 0x158B PUSH1 0x17 DUP4 PUSH2 0x1547 JUMP JUMPDEST SWAP2 POP PUSH2 0x1596 DUP3 PUSH2 0x1557 JUMP JUMPDEST PUSH1 0x20 DUP3 ADD SWAP1 POP SWAP2 SWAP1 POP JUMP JUMPDEST PUSH0 PUSH1 0x20 DUP3 ADD SWAP1 POP DUP2 DUP2 SUB PUSH0 DUP4 ADD MSTORE PUSH2 0x15B8 DUP2 PUSH2 0x157F JUMP JUMPDEST SWAP1 POP SWAP2 SWAP1 POP JUMP JUMPDEST PUSH32 0x416D6F756E74206D7573742062652067726561746572207468616E207A65726F PUSH0 DUP3 ADD MSTORE POP JUMP JUMPDEST PUSH0 PUSH2 0x15F3 PUSH1 0x20 DUP4 PUSH2 0x1547 JUMP JUMPDEST SWAP2 POP PUSH2 0x15FE DUP3 PUSH2 0x15BF JUMP JUMPDEST PUSH1 0x20 DUP3 ADD SWAP1 POP SWAP2 SWAP1 POP JUMP JUMPDEST PUSH0 PUSH1 0x20 DUP3 ADD SWAP1 POP DUP2 DUP2 SUB PUSH0 DUP4 ADD MSTORE PUSH2 0x1620 DUP2 PUSH2 0x15E7 JUMP JUMPDEST SWAP1 POP SWAP2 SWAP1 POP JUMP JUMPDEST PUSH32 0x5061796D656E7420747970652072657175697265640000000000000000000000 PUSH0 DUP3 ADD MSTORE POP JUMP JUMPDEST PUSH0 PUSH2 0x165B PUSH1 0x15 DUP4 PUSH2 0x1547 JUMP JUMPDEST SWAP2 POP PUSH2 0x1666 DUP3 PUSH2 0x1627 JUMP JUMPDEST PUSH1 0x20 DUP3 ADD SWAP1 POP SWAP2 SWAP1 POP JUMP JUMPDEST PUSH0 PUSH1 0x20 DUP3 ADD SWAP1 POP DUP2 DUP2 SUB PUSH0 DUP4 ADD MSTORE PUSH2 0x1688 DUP2 PUSH2 0x164F JUMP JUMPDEST SWAP1 POP SWAP2 SWAP1 POP JUMP JUMPDEST PUSH0 DUP2 SWAP1 POP DUP2 PUSH0 MSTORE PUSH1 0x20 PUSH0 KECCAK256 SWAP1 POP SWAP2 SWAP1 POP JUMP JUMPDEST PUSH0 PUSH1 0x20 PUSH1 0x1F DUP4 ADD DIV SWAP1 POP SWAP2 SWAP1 POP JUMP JUMPDEST PUSH0 DUP3 DUP3 SHL SWAP1 POP SWAP3 SWAP2 POP POP JUMP JUMPDEST PUSH0 PUSH1 0x8 DUP4 MUL PUSH2 0x16EB PUSH32 0xFFFFFFFFFFFFFFFFFFFFFFFFFFFFFFFFFFFFFFFFFFFFFFFFFFFFFFFFFFFFFFFF DUP3 PUSH2 0x16B0 JUMP JUMPDEST PUSH2 0x16F5 DUP7 DUP4 PUSH2 0x16B0 JUMP JUMPDEST SWAP6 POP DUP1 NOT DUP5 AND SWAP4 POP DUP1 DUP7 AND DUP5 OR SWAP3 POP POP POP SWAP4 SWAP3 POP POP POP JUMP JUMPDEST PUSH0 DUP2 SWAP1 POP SWAP2 SWAP1 POP JUMP JUMPDEST PUSH0 PUSH2 0x1730 PUSH2 0x172B PUSH2 0x1726 DUP5 PUSH2 0xF01 JUMP JUMPDEST PUSH2 0x170D JUMP JUMPDEST PUSH2 0xF01 JUMP JUMPDEST SWAP1 POP SWAP2 SWAP1 POP JUMP JUMPDEST PUSH0 DUP2 SWAP1 POP SWAP2 SWAP1 POP JUMP JUMPDEST PUSH2 0x1749 DUP4 PUSH2 0x1716 JUMP JUMPDEST PUSH2 0x175D PUSH2 0x1755 DUP3 PUSH2 0x1737 JUMP JUMPDEST DUP5 DUP5 SLOAD PUSH2 0x16BC JUMP JUMPDEST DUP3 SSTORE POP POP POP POP JUMP JUMPDEST PUSH0 PUSH0 SWAP1 POP SWAP1 JUMP JUMPDEST PUSH2 0x1774 PUSH2 0x1765 JUMP JUMPDEST PUSH2 0x177F DUP2 DUP5 DUP5 PUSH2 0x1740 JUMP JUMPDEST POP POP POP JUMP JUMPDEST JUMPDEST DUP2 DUP2 LT ISZERO PUSH2 0x17A2 JUMPI PUSH2 0x1797 PUSH0 DUP3 PUSH2 0x176C JUMP JUMPDEST PUSH1 0x1 DUP2 ADD SWAP1 POP PUSH2 0x1785 JUMP JUMPDEST POP POP JUMP JUMPDEST PUSH1 0x1F DUP3 GT ISZERO PUSH2 0x17E7 JUMPI PUSH2 0x17B8 DUP2 PUSH2 0x168F JUMP JUMPDEST PUSH2 0x17C1 DUP5 PUSH2 0x16A1 JUMP JUMPDEST DUP2 ADD PUSH1 0x20 DUP6 LT ISZERO PUSH2 0x17D0 JUMPI DUP2 SWAP1 POP JUMPDEST PUSH2 0x17E4 PUSH2 0x17DC DUP6 PUSH2 0x16A1 JUMP JUMPDEST DUP4 ADD DUP3 PUSH2 0x1784 JUMP JUMPDEST POP POP JUMPDEST POP POP POP JUMP JUMPDEST PUSH0 DUP3 DUP3 SHR SWAP1 POP SWAP3 SWAP2 POP POP JUMP JUMPDEST PUSH0 PUSH2 0x1807 PUSH0 NOT DUP5 PUSH1 0x8 MUL PUSH2 0x17EC JUMP JUMPDEST NOT DUP1 DUP4 AND SWAP2 POP POP SWAP3 SWAP2 POP POP JUMP JUMPDEST PUSH0 PUSH2 0x181F DUP4 DUP4 PUSH2 0x17F8 JUMP JUMPDEST SWAP2 POP DUP3 PUSH1 0x2 MUL DUP3 OR SWAP1 POP SWAP3 SWAP2 POP POP JUMP JUMPDEST PUSH2 0x1838 DUP3 PUSH2 0x1244 JUMP JUMPDEST PUSH8 0xFFFFFFFFFFFFFFFF DUP2 GT ISZERO PUSH2 0x1851 JUMPI PUSH2 0x1850 PUSH2 0xD5B JUMP JUMPDEST JUMPDEST PUSH2 0x185B DUP3 SLOAD PUSH2 0x1517 JUMP JUMPDEST PUSH2 0x1866 DUP3 DUP3 DUP6 PUSH2 0x17A6 JUMP JUMPDEST PUSH0 PUSH1 0x20 SWAP1 POP PUSH1 0x1F DUP4 GT PUSH1 0x1 DUP2 EQ PUSH2 0x1897 JUMPI PUSH0 DUP5 ISZERO PUSH2 0x1885 JUMPI DUP3 DUP8 ADD MLOAD SWAP1 POP JUMPDEST PUSH2 0x188F DUP6 DUP3 PUSH2 0x1814 JUMP JUMPDEST DUP7 SSTORE POP PUSH2 0x18F6 JUMP JUMPDEST PUSH1 0x1F NOT DUP5 AND PUSH2 0x18A5 DUP7 PUSH2 0x168F JUMP JUMPDEST PUSH0 JUMPDEST DUP3 DUP2 LT ISZERO PUSH2 0x18CC JUMPI DUP5 DUP10 ADD MLOAD DUP3 SSTORE PUSH1 0x1 DUP3 ADD SWAP2 POP PUSH1 0x20 DUP6 ADD SWAP5 POP PUSH1 0x20 DUP2 ADD SWAP1 POP PUSH2 0x18A7 JUMP JUMPDEST DUP7 DUP4 LT ISZERO PUSH2 0x18E9 JUMPI DUP5 DUP10 ADD MLOAD PUSH2 0x18E5 PUSH1 0x1F DUP10 AND DUP3 PUSH2 0x17F8 JUMP JUMPDEST DUP4 SSTORE POP JUMPDEST PUSH1 0x1 PUSH1 0x2 DUP9 MUL ADD DUP9 SSTORE POP POP POP JUMPDEST POP POP POP POP POP POP JUMP JUMPDEST PUSH2 0x1907 DUP2 PUSH2 0xF01 JUMP JUMPDEST DUP3 MSTORE POP POP JUMP JUMPDEST PUSH0 PUSH2 0x1917 DUP3 PUSH2 0x1244 JUMP JUMPDEST PUSH2 0x1921 DUP2 DUP6 PUSH2 0x1547 JUMP JUMPDEST SWAP4 POP PUSH2 0x1931 DUP2 DUP6 PUSH1 0x20 DUP7 ADD PUSH2 0x125E JUMP JUMPDEST PUSH2 0x193A DUP2 PUSH2 0xD4B JUMP JUMPDEST DUP5 ADD SWAP2 POP POP SWAP3 SWAP2 POP POP JUMP JUMPDEST PUSH0 PUSH1 0x40 DUP3 ADD SWAP1 POP PUSH2 0x1958 PUSH0 DUP4 ADD DUP6 PUSH2 0x18FE JUMP JUMPDEST DUP2 DUP2 SUB PUSH1 0x20 DUP4 ADD MSTORE PUSH2 0x196A DUP2 DUP5 PUSH2 0x190D JUMP JUMPDEST SWAP1 POP SWAP4 SWAP3 POP POP POP JUMP JUMPDEST PUSH32 0x5061796D656E7420646F6573206E6F7420657869737400000000000000000000 PUSH0 DUP3 ADD MSTORE POP JUMP JUMPDEST PUSH0 PUSH2 0x19A7 PUSH1 0x16 DUP4 PUSH2 0x1547 JUMP JUMPDEST SWAP2 POP PUSH2 0x19B2 DUP3 PUSH2 0x1973 JUMP JUMPDEST PUSH1 0x20 DUP3 ADD SWAP1 POP SWAP2 SWAP1 POP JUMP JUMPDEST PUSH0 PUSH1 0x20 DUP3 ADD SWAP1 POP DUP2 DUP2 SUB PUSH0 DUP4 ADD MSTORE PUSH2 0x19D4 DUP2 PUSH2 0x199B JUMP JUMPDEST SWAP1 POP SWAP2 SWAP1 POP JUMP INVALID LOG2 PUSH5 0x6970667358 0x22 SLT KECCAK256 PUSH13 0x24906ABEFEA3A334469E12B3F7 BLOBBASEFEE 0xBA KECCAK256 PUSH31 0xC130B8296DA0A6660172BBD859C464736F6C634300081E0033000000000000 "
				},
				"gasEstimates": {
					"creation": {
						"codeDepositCost": "1334600",
						"executionCost": "infinite",
						"totalCost": "infinite"
					},
					"external": {
						"createPayment((string,string,string,uint256,string,uint256,string,string,uint256,string,bool,string,string,uint256))": "infinite",
						"getPayment(string)": "infinite",
						"markEmailSent(string)": "infinite",
						"owner()": "2536",
						"paymentExists(string)": "infinite",
						"renounceOwnership()": "infinite",
						"transferOwnership(address)": "infinite"
					}
				},
				"methodIdentifiers": {
					"createPayment((string,string,string,uint256,string,uint256,string,string,uint256,string,bool,string,string,uint256))": "1d64ad5e",
					"getPayment(string)": "c69207a3",
					"markEmailSent(string)": "4cc232d0",
					"owner()": "8da5cb5b",
					"paymentExists(string)": "18c7d16b",
					"renounceOwnership()": "715018a6",
					"transferOwnership(address)": "f2fde38b"
				}
			},
			"storageLayout": {
				"storage": [
					{
						"astId": 8,
						"contract": "Payment.sol:Payment",
						"label": "_owner",
						"offset": 0,
						"slot": "0",
						"type": "t_address"
					},
					{
						"astId": 228,
						"contract": "Payment.sol:Payment",
						"label": "payments",
						"offset": 0,
						"slot": "1",
						"type": "t_mapping(t_string_memory_ptr,t_struct(PaymentRecord)222_storage)"
					}
				],
				"types": {
					"t_address": {
						"encoding": "inplace",
						"label": "address",
						"numberOfBytes": "20"
					},
					"t_bool": {
						"encoding": "inplace",
						"label": "bool",
						"numberOfBytes": "1"
					},
					"t_mapping(t_string_memory_ptr,t_struct(PaymentRecord)222_storage)": {
						"encoding": "mapping",
						"key": "t_string_memory_ptr",
						"label": "mapping(string => struct Payment.PaymentRecord)",
						"numberOfBytes": "32",
						"value": "t_struct(PaymentRecord)222_storage"
					},
					"t_string_memory_ptr": {
						"encoding": "bytes",
						"label": "string",
						"numberOfBytes": "32"
					},
					"t_string_storage": {
						"encoding": "bytes",
						"label": "string",
						"numberOfBytes": "32"
					},
					"t_struct(PaymentRecord)222_storage": {
						"encoding": "inplace",
						"label": "struct Payment.PaymentRecord",
						"members": [
							{
								"astId": 195,
								"contract": "Payment.sol:Payment",
								"label": "quote_request_id",
								"offset": 0,
								"slot": "0",
								"type": "t_string_storage"
							},
							{
								"astId": 197,
								"contract": "Payment.sol:Payment",
								"label": "transaction_id",
								"offset": 0,
								"slot": "1",
								"type": "t_string_storage"
							},
							{
								"astId": 199,
								"contract": "Payment.sol:Payment",
								"label": "payment_type",
								"offset": 0,
								"slot": "2",
								"type": "t_string_storage"
							},
							{
								"astId": 201,
								"contract": "Payment.sol:Payment",
								"label": "amount",
								"offset": 0,
								"slot": "3",
								"type": "t_uint256"
							},
							{
								"astId": 203,
								"contract": "Payment.sol:Payment",
								"label": "amount_purpose",
								"offset": 0,
								"slot": "4",
								"type": "t_string_storage"
							},
							{
								"astId": 205,
								"contract": "Payment.sol:Payment",
								"label": "blockchain_gas_amount",
								"offset": 0,
								"slot": "5",
								"type": "t_uint256"
							},
							{
								"astId": 207,
								"contract": "Payment.sol:Payment",
								"label": "source_wallet",
								"offset": 0,
								"slot": "6",
								"type": "t_string_storage"
							},
							{
								"astId": 209,
								"contract": "Payment.sol:Payment",
								"label": "status",
								"offset": 0,
								"slot": "7",
								"type": "t_string_storage"
							},
							{
								"astId": 211,
								"contract": "Payment.sol:Payment",
								"label": "created_at",
								"offset": 0,
								"slot": "8",
								"type": "t_uint256"
							},
							{
								"astId": 213,
								"contract": "Payment.sol:Payment",
								"label": "created_by",
								"offset": 0,
								"slot": "9",
								"type": "t_string_storage"
							},
							{
								"astId": 215,
								"contract": "Payment.sol:Payment",
								"label": "payment_email_sent",
								"offset": 0,
								"slot": "10",
								"type": "t_bool"
							},
							{
								"astId": 217,
								"contract": "Payment.sol:Payment",
								"label": "user_id",
								"offset": 0,
								"slot": "11",
								"type": "t_string_storage"
							},
							{
								"astId": 219,
								"contract": "Payment.sol:Payment",
								"label": "transaction_hash",
								"offset": 0,
								"slot": "12",
								"type": "t_string_storage"
							},
							{
								"astId": 221,
								"contract": "Payment.sol:Payment",
								"label": "confirmed_at",
								"offset": 0,
								"slot": "13",
								"type": "t_uint256"
							}
						],
						"numberOfBytes": "448"
					},
					"t_uint256": {
						"encoding": "inplace",
						"label": "uint256",
						"numberOfBytes": "32"
					}
				}
			},
			"userdoc": {
				"events": {
					"EmailMarkedSent(string)": {
						"notice": "Event emitted when payment email is marked as sent"
					},
					"PaymentCreated(string,uint256,string)": {
						"notice": "Event emitted when a new payment is created"
					}
				},
				"kind": "user",
				"methods": {
					"constructor": {
						"notice": "Constructor sets the deployer as the contract owner"
					},
					"createPayment((string,string,string,uint256,string,uint256,string,string,uint256,string,bool,string,string,uint256))": {
						"notice": "Create a new payment record"
					},
					"getPayment(string)": {
						"notice": "Retrieve a payment record by transaction_id"
					},
					"markEmailSent(string)": {
						"notice": "Mark that a payment confirmation email has been sent"
					},
					"paymentExists(string)": {
						"notice": "Check if a payment exists for a given transaction_id"
					}
				},
				"notice": "Handles creation, tracking, and email status of payments",
				"version": 1
			}
		}
	}
}